:400000000080002011000000E5040000E504000008B5044B1A6803F53F5302331A6000F069FA00BFFA46004010B5054C237833B9044B13B10448AFF300800123237010BD42
:400040003081FF1F00000000400A0000084B10B51BB108490848AFF300800848036803B910BD074B002BFBD0BDE81040184700BF000000003481FF1F400A0000C880FF1F9E
:400080000000000038B5012000F042FB0D4C25786B1C237000F0D4FA0B4B585563782BB9094B187800F06AFB0122627000F050FB044B987000F040FB044B1870002000F0A3
:4000C00027FB38BD4C81FF1F9881FF1F1E82FF1F08B5114BDB78C3B9104A1078104B187052785A70002307E09A1C0C49895C0C4A1A4491700133DBB2821E9342F4DB064BC3
:4001000000225A700121D9701A7000F015FB002000F0FEFA08BD00BF4C81FF1F9881FF1F2082FF1F10B5012000F034FC002000F0B1FA002000F068FB00F066FA00F016FCEA
:40014000002000F0C1FB00F051FB00F0E7FA012000F0ECFA00F0C0FA374800F0CBFA00F0AFFA00F073FB354800F07EFB00F062FB62B6334BDB78002BFBD0324A5378324807
:40018000437032494B70127802700A70012B27D073B1022B3CD049E0981C2A4919448C78294901448C7029490C540133DBB200E00023911E8B42EFDB0022214BDA70214BDC
:4001C000987800F0E7FB31E0981C1E4919448C781D4901448C701D490C540133DBB200E00023911E8B42EFDB0022154BDA70154B987800F0C9FB19E0981C124919448C78C0
:40020000114901448C7011490C540133DBB200E00023911E8B42EFDB0022094BDA70094BD8789B7843EA002000F04EFB064B1978064800F01BFA9CE785000000D100000054
:400240004C81FF1F2082FF1FDC81FF1F5481FF1FFEE700BFF0B40022174611E050F82760F3B226F0FF0608E001EB420511F812406D78A5550132013BDBB2002BF4D10137A5
:40028000212FEBD9F0BC7047064B1B78DBB203F00701054A11701B09013213704422034B1A707047CF0100496E5800407658004008B50A46002100F0BAFB08BD38B50024E6
:4002C0002A4B1C80582202331A70012202331A80182327490B7002310A80264A1370192502321580023213700222234B1A7008224FF040231A70032103F5007319701F4B3A
:400300001B78DBB21E490B701E4B1A8041F25122023B1A800CE01C4B1B7803F0010343EA440404F003044FF4F07000F039FB013D0DB1032CEFD115B90320FFF789FF134B6F
:400340004FF480721A8007221A70002210490A704820023108701A700222033B1A700D4A137843F00F03137038BD00BF80400040864000408A40004000430040080100493A
:40038000A146004022420040254200400440004006400040A243004008B500F03DFB08BD38B572B63B4A137843F00403137000240CE0394D630019194A0011462A44084688
:4003C00091882858FFF774FF0134E4B2072CF0D900240BE03048A20011194B0003441A8F596B186BFFF7D8FF0134E4B2012CF1D92A494FF09040FFF72DFF294A294B1A60CB
:4004000002F1806280331A60274A03F500731A60264A137843F0020313701032137843F002031370224C237843F040032370A2F58632513A137843F01003137008221D4956
:400440001D48FFF7A9FF0A221C491D48FFF7A4FF08221C491C48FFF79FFF08221B491C48FFF79AFF1B4A137843F0080313701A4D61232B70FFF722FF81232B700122174BD0
:400480001A70FFF701FF0E2221461548FFF784FF38BD00BFE8460040440A0000880000480404C40058140140040400C403500140A0430040DC09004802510040E40900481E
:4004C000C0510040F009004812510040F809004822510040224300400048004004000840B043004008B500F06BFA03680C2B00D1FEE7FEE708B5104E104D16E029686B68FE
:40050000AC68002204E051F8040B43F8040B0432A242F8D1E868002203E0002143F8041B04328242F9D11035013E002EE6D100F04DFAFFF7F7FDFEE701000000B00A00005E
:4005400008B5104A104B1A60104A136843F40073136000230AE0032B03D80D4A52F8231000E00C490C4A42F8231001332F2BF2D90A4B1A780A4B1A70074A0A4B1A60FFF786
:400580000FFF08BD0004FA050CED00E014ED00E000000000E50400000080FF1FBC760040C080FF1F08ED00E07222084B1A70202203F201131A700622653B1A70472210333B
:4005C0001A70002252331A70704700BF8964004010B500F0EDF904460A4A137843F02003137002F20112137843F010031370033A137843F01003137000F044F9204600F091
:40060000DBF910BD9964004008B5054B1B7823B9FFF7CAFF0122024B1A70FFF7D9FF08BD5081FF1F014B1878704700BF4A650040024B187800F07F00704700BF6A65004013
:4006400010B5FFF7F5FF0402FFF7ECFF204380B210BD00BF034B1B7813F0040FFAD1024B187070476765004044650040084B1B7833B97047305DFFF7EDFF0134E4B203E0DA
:4006800070B50D4606460024AC42F3D370BD00BF5081FF1F014B1870704700BF7A650040704700BF014B1B681864704708ED00E04001C0B2014B1870704700BF00E400E04C
:4006C0000122014B1A60704700E100E00122014B1A60704780E100E008B5FFF7F7FF0448FFF7E0FF0720FFF7E3FFFFF7E9FF08BDA106000010B50446FFF7E8FF2046FFF75D
:40070000D1FF0720FFF7D4FFFFF7DAFF10BD00BF014B1870704700BF7A640040024A137843F080031370704778640040014B1870704700BF88650040014B1878704700BF8A
:4007400068650040014B1870704700BF08650040024B1B78024B1878704700BF0865004048650040014B1878704700BF48650040014B1870704700BF28650040014B18707E
:40078000704700BF3865004008B501E0FFF7EAFFFFF7D2FF10F0400FF8D108BD08B5114B1A7802F0F8021A701A7802F0FC021A70FFF7EAFFFE20FFF7DBFF0020FFF7C2FFF4
:4007C0000120FFF7B3FFFFF7B7FF8020FFF7D6FF00F0EEF8044A137843F01003137000F0EBF808BD786400409865004008B5054B1B7823B9FFF7D2FF0122024B1A70FFF77D
:400800008DFF08BD5281FF1F014B1870704700BF78650040704700BF014B1B685864704708ED00E04001C0B2014B1870704700BF01E400E00222014B1A60704700E100E05E
:400840000222014B1A60704780E100E008B5FFF7F7FF0448FFF7E0FF0720FFF7E3FFFFF7E9FF08BD1508000010B50446FFF7E8FF2046FFF7D1FF0720FFF7D4FFFFF7DAFF36
:4008800010BD00BF054A137843F0080313701032137843F008031370704700BFA2430040024A137843F080031370704777640040014B1880704700BF0C680040014B188014
:4008C000704700BF8C680040014B1880704700BF4C680040014B1870704700BF87640040014B1878704700BF67640040014B188880B27047AC68004008B501E0FFF7F6FF7C
:40090000FFF7EEFF10F0100FF8D108BD10B5154A137803F0C00343F00A0313701F32137843F001031370104C237843F0010323704FF49660FFF7BCFF4FF49660FFF7BEFFD2
:400940004FF47A70FFF7C0FF0420FFF7C3FF00F02FF8237843F01003237000F02DF8FFF7CBFF10BD776400409764004008B5054B1B7823B9FFF7CAFF0122024B1A70FFF70B
:400980008FFF08BD5381FF1F014B1870704700BF75650040014B1870704700BF766400400230800803D000BF01380046FCD17047EFF3108072B6704780F31088704700BF09
:4009C000014B1868704700BF2C81FF1F0E4B70B51E460E4C0025E41AA410A54204D056F8253098470135F8E700F050F8084B094C1E46E41AA4100025A54204D056F825300C
:400A000098470135F8E770BD980A0000980A0000980A0000A00A000010B5431E0A44914204D011F8014B03F8014FF8E710BD03460244934202D003F8011BFAE770470000B9
:400A400000000000305100404000F05100401000000001400010001401400006801A0140800100400140000A004C0140000200500140200060520040540900480600001A5A
:400A800001405C090048800043000000F8B500BFF8BC08BC9E4670474D00000041050000F8B500BFF8BC08BC9E46704729000000C00A0000C880FF1F6800000038010000FA
:400AC000000000000000000000000000000000000000000000000000000000000000000000000000880A000000000000000000000000000000000000000000000000000064
:400B0000000000000000000000000000000000000000000000000000000000000000000000000000CC80FF1F0000000000000000000000000000000000000000000000004B
:400B40000000000000000000000000000000000000000000000000000000000000000000000000000000000000000000000000000000000000000000000000000000000075
:400B80000000000000000000000000000000000000000000000000000000000000000000000000000000000000000000000000000000000000000000000000000000000035
:400BC00000000000000000000000000000000000000000000000000000000000000000000000000000000000000000000000000000000000000000000000000000000000F5
:400C000000000000000000000000000000000000000000000000000000000000000000000000000000000000000000000000000000000000000000000000000000000000B4
:020000040003F7
:0200000480007A
:40000000035200400764004005650040010101400404014005050140530601402C0701404A080140340901404F0A0140340B01404A0C0140260D0140450E0140260F0140B1
:40004000521401403A150140371601402A1701404B180140411901403D1B01400740014005410140084201400343014004450140044601400648014004490140074D014079
:400080000B5001400151014000401001110176017C017F01872D89728B0D8F6778017A01870F88678A38E20838203E1058045F011B208320E404E640EE0112011F01210146
:4000C00028032E02300331014050410249FF4AFF4BFF4DA04F045018580459045A045B045C395D095F01604062C06440654066C068C06AC06CC06EC08C188D0F8E02910CCF
:4001000092019B0A9E1C9F05A110A208A610AA04B018B103B204B402B510B601B70CBE04BF10C010C106C5D1C702C817C9FFCAFFCBFFCDAFCE0FCF04D018D280D425D60449
:40014000D804D904DA04DB04DC99DD99DF01E040E2C0E440E540E6C0E8C0EAC0ECC0EEC001400A410E8010A0120415401604180419041A011B411E802102224023042780F1
:4001800028802F8030A031023780394042014604482849014F805088520459055A8060846D407240C001C219C4CECA81CC1DCE08D028D214D60BD805401649FF4AFF4BFFF1
:4001C0004F01501852805A045B045D105F016040624064406540668068806A806C806E80800384028501881889018A038C1B8D0290019101941B950298039A1C9C039E0457
:40020000A010A102A408A818A902AE03B01FB101B302BA02BF04C013C9FFCAFFCBFFCD83CE03CF01D018D602D712D804D904DA04DB04DC33DD30DE08DF01E040E240E44068
:40024000E540E680E880EA80EC80EE8000440120038008A809091080120213141902220629322A0231083301384039143A4040024220440245404F205A0869146B01708043
:4002800072087314768078808C208E0290C2968097109A209D339E08A148A310A480A602C00FC20FC40FCA05CC03CE0ED01AD220D602DE0804020501080709030C060D039C
:4002C0000E010F0C100713081406150B19031B081C011D021E0620042108230328072D032E012F043007310F3B02405349FF4AFF4BFF4D834E034F015018580459045A0483
:400300005B045C335F016040624064406540668068806A806C806E808B01AF01B101BF01C016C5ECC620C80BC9FFCAFFCBFFCD83CE03CF01D018D401D904DA04DB04DF01E1
:40034000E040E240E440E540E680E880EA80EC80EE800040012408420A800B1010841202188020402780284229022C02308431183202384039043A083B103F2042204540C9
:4003800048024D084F215410562057105D085F81698080018D4194029C02A002A148A410A940AA40C007C20DC40BCA19CC0FCE2ED012D228D6D0E640EC040D0212011D0232
:4003C0001E0128012F0133013601370239803E403F404014410549FF4AFF4BFF4DA04F015018580459045A045B045C205D025F016040628064406540668068406A506BA83A
:400400006C406D206E506FA88A019701AD01AE01B001B301B601C014C105C9FFCAFFCBFFCDAFCE07CF01D018D804D904DA04DB04DC30DD02DF01E040E280E440E540E680A2
:40044000E840EA50EBA8EC40ED20EE50EFA800200E811002171019801A811D802108271328022D80310836803E4041804301458047024A024C014E0269406C026D806E802B
:4004800092409F01A280A580A602C002C290C441CA18CC12CE10D099D2184014410549FF4AFF4BFF4DAF4E074F0150185A045D025F016040628064406540668068406A5023
:4004C0006BA86C406D206E506FA883028C0192029E01A802AF01B001B301B402B702BE11C014C105C54CC620C70EC83BC9FFCAFFCBFFCDAFCE07CF01D018D407D604D8043B
:40050000D904DA04DB04DC20DD22DF05E040E280E440E540E680E840EA50EBA8EC40ED20EE50EFA807020C020F0217101E88268027122C023F0241804301458047014A026D
:400540004E024F065402560857105E885F106330660867846E406F027F028740C080C290C440CA10CE80D099D218D670D8E0DE10001F010603100409061007120A03101074
:40058000120C141C1506160217101B201D061F38200C21062211230824142501281029242B103301341F373E3B803F0440124105450B46E0470C481949FF4AFF4BFF4EF03A
:4005C0004F44500C580459045A045C335D035F0966C06A406B0281038701890292019D03AC01B001B103B902BF01C001C640C9FFCA07CBFFCC40CD20CEF0CF05D008D804A1
:40060000D904DA04DB04DC03DD03DF09E040E1A8E240E3200120020403900A900E80102011201301160219201E802020214022C027802A2631083240331036803B053C02C9
:400640003E343F0541404204478048214F0451085310551057106F017B807F808410860287819210930197249B10A508A680A790AF12C00EC21CC48ECA07CC1ECEE3D01CA7
:40068000D208DE81E008E6080101040C05020613101F160818101C011D011E0E200222052A0C2B01321F33033908580459045C335F018001831C8708880489018C068F0A12
:4006C00090029512960197089A019B12A001A102A304A601A710B002B301B404B601B71EB822BB80BE40BF04D401D804D904DB04DC39DD30DF05016002C0050409080A6060
:400700000B080FA513051640171019A01A401D041E101F042204230127102BD02F043104331036803A403B253F0559805A285B027B809140A780AF05C02BC2FEC45CCA23C6
:40074000CC16CECFD60FDE01E208020C03010C011104120214081D041E01220825022F02300132043304340235023608370139083E413F1440124105454246C0470E483B95
:4007800049FF4AFF4BFF4DA04F01501854075604580459045A045B045C115D115F056040628064406540668068406A506BA86C406D206E506FA88003845286248A038C07F8
:4007C0008E18902992C494039CFFA203A47CA87CAE03B003B280B460B61CD804DC03DF01000401A0034005010702088809010C020E200F01111412421680180419821B98BC
:400800001D801E601F102680272A2C022F10368037013F01458047204C014E104F01540256185A305E505F08661867806F037F0287409082911493149404968098089AC22B
:400840009C809D21A080A202A501A780C09FC2BDC41FCA50CC90CE80D030D210D670D8E0DE1002420328088009010A2410801140131419301A801B21200421822208280843
:400880002A402B903112334038AA3A804008428643404A0A5011590260046181694078807B0187018C048D018E12908093149680980899029A429C809D219F40A080A20214
:4008C000A398A501C00FC20FC40FCA0FCC0DCE0FD00DD20CD601D80DDE08E00831203301358037088708CCF0E2105F029D809F01A520D68053808D209D809F01A520AB0232
:40090000D420EE809D809F01A78050085C40D404D6048C08A408A840E40885809D80AF81E210EA40EE1077808780DE20E2401220740284028E20C408DE04E208000F0101A8
:400940000A080B010C0B0E0D100A11011A081B011C0A00FF82880000400000000E0001100E00300400000208000021080200001023000C002F0000010F011000080000021F
:40098000040000040C01000000004001400100063F1000080002200000000054150204000600C0E028FFFFFF62A0F0410C00000018000400040404043333000D0000000009
:4009C0000000400200103010001010120000000000000000000000000000000000404000400000008000408A8A008A0000000000000B0B00000000000003030003000000F6
:400A000000000000000000000000000000000000000000000000000000000000000000000000000000000000000000000000000000000000000000000000000000000000B6
:400A40000000000000000000000000000000000000000000000000000000000000000000000000000000000000000000000000000000000000000000000000000000000076
:400A80000000000000000000000000000000000000000000000000000000000000000000000000000000000000000000000000000000000000000000000000000000000036
:400AC00000000000000000000000000000000000000000000000000000000000000000000000000000000000000000000000000000000000000000000000000000000000F6
:0200000490006A
:0400000000004005B7
:0200000490105A
:04000000BC90ACAF55
:0200000490303A
:0200000006F701
:0200000490402A
:4000000000000000000000000000000000000000000000000000000000000000000000000000000000000000000000000000000000000000000000000000000000000000C0
:400040000000000000000000000000000000000000000000000000000000000000000000000000000000000000000000000000000000000000000000000000000000000080
:400080000000000000000000000000000000000000000000000000000000000000000000000000000000000000000000000000000000000000000000000000000000000040
:4000C0000000000000000000000000000000000000000000000000000000000000000000000000000000000000000000000000000000000000000000000000000000000000
:0200000490501A
:0C00000000012E16106900012E1D176073
:00000001FF