:400000000080002011000000C9050000C905000008B5044B1A6803F53F5302331A6000F0DBFA00BFFA46004010B5054C237833B9044B13B10448AFF300800123237010BD06
:400040003881FF1F00000000600B0000084B10B51BB108490848AFF300800848036803B910BD074B002BFBD0BDE81040184700BF000000003C81FF1F600B0000C880FF1F4C
:400080000000000038B5012000F04AFC0D4C25786B1C237000F0DCFB0B4B585563782BB9094B187800F072FC0122627000F058FC044B987000F048FC044B1870002000F076
:4000C0002FFC38BD5481FF1FE481FF1FAA82FF1F08B5114BDB78C3B9104A1078104B187052785A70002307E09A1C0C49895C0C4A1A4491700133DBB2821E9342F4DB064BDA
:4001000000225A700121D9701A7000F01DFC002000F006FC08BD00BF5481FF1FE481FF1FAC82FF1F08B5054B1879421C1A7100F0010000F0F5FB00F0BFFA08BD5481FF1FC4
:4001400008B5002000F0AEFB002000F065FC00F063FB002000F0ACFC00F0EAFA012000F0A7FC00F00FFB7A4800F01AFB00F096FA00F044FC00F0DAFB012000F0DFFB00F0F9
:40018000B3FB744800F0BEFB00F0A2FB00F066FC714800F071FC00F055FC62B66F4BDB78002BFBD06E4B5A786E4842706E494A701B7803700B70042A00F2C480DFE802F0D9
:4001C000031F5684A6000021684A11700BE0901C634911448C78634901448C7062490C54013262490A70614A12789342EFD800205A4BD87000F05CFC00F09AFAA2E00021D0
:400200005A4A11700BE0901C554911448C78554901448C7054490C54013254490A70534A12789342EFD800234C4AD3704F4A137017E09A00D11C4A4801448D78941C0444B8
:40024000A17841EA0521541C0444A47841EA0421024492781143464A42F823100133434A1370424B1B780F2BE3D96BE000213F4A11700BE0901C3A4911448C783949014445
:400280008C7039490C54013238490A70374A12789342EFD80023314AD370344A13700EE05A00511C2E48014489780244927842EA0122304921F8132001332C4A13702B4B31
:4002C0001B781F2BECD93DE00021284A11700BE0901C234911448C78224901448C7022490C54013221490A70204A12789342EFD800221A4BDA701A4BD87840EA002000B22F
:400300001D4B188080B200F0DDF91BE00021174A11700BE0901C124911448C78114901448C7011490C54013210490A700F4A12789342EFD80024094BDC7000F0AFF92046E0
:4003400000F0B6FB0848017800F098FA26E700BF2501000085000000D10000005481FF1FAC82FF1F6882FF1FA081FF1FAB82FF1F6081FF1F2882FF1FCC80FF1FFEE700BFA3
:40038000F0B40022174611E050F82760F3B226F0FF0608E001EB420511F812406D78A5550132013BDBB2002BF4D101371A2FEBD9F0BC7047064B1B78DBB203F00701054AF6
:4003C00011701B09013213704422034B1A707047CF0100496E5800407658004008B50A46002100F0B4FB08BD38B51925264B1D801823264A137040F65F11023211800232E8
:4004000013700222224B1A7008224FF040231A70032103F5007319701E4B1B78DBB21E490B701E4B1A8041F25122023B1A8000240CE01B4B1B7803F0010343EA440404F05C
:4004400003044FF4F07000F03BFB013D0DB1032CEFD115B90320FFF791FF124B4FF480721A8007221A7000220F490A704820023108701A700222033B1A700C4A137843F0DA
:400480000303137038BD00BF80400040824000400043004008010049A146004022420040254200400440004006400040A243004008B500F041FB08BD38B572B6334A1378BC
:4004C00043F00403137000240CE0314D630019194A0011462A44084691882858FFF77EFF0134E4B2082CF0D900240BE02849A3001819420088188022C16B806BFFF7D8FF2F
:400500000134E4B2002CF1D022494FF09040FFF737FF214A137843F0020313701032137843F0020313701D4C237843F040032370A2F58632513A137843F0100313700A22BD
:4005400017491848FFF7B4FF082217491748FFF7AFFF082216491748FFF7AAFF164A137843F008031370154D61232B70FFF73CFF81232B700122124B1A70FFF71BFF0E2217
:4005800021461048FFF794FF38BD00BFE8460040640B00006C00004803500140A0430040D0050048C0510040DC05004812510040E4050048225100402243004000480040AC
:4005C00004000840B043004008B500F089FA03680C2B00D1FEE7FEE708B5104E104D16E029686B68AC68002204E051F8040B43F8040B0432A242F8D1E868002203E0002128
:4006000043F8041B04328242F9D11035013E002EE6D100F06BFAFFF793FDFEE701000000CC0B000008B5104A104B1A60104A136843F40073136000230AE0032B03D80D4A50
:4006400052F8231000E00C490C4A42F8231001332F2BF2D90A4B1A780A4B1A70074A0A4B1A60FFF729FF08BD0004FA050CED00E014ED00E000000000C90500000080FF1FBA
:40068000BC760040C080FF1F08ED00E0024A137843F080031370704775650040024A137803F07F031370704775650040014B1870704700BF85650040014B1878704700BF4E
:4006C00065650040014B1880704700BF486A0040014B188880B27047886A0040014B1880704700BF086A004008B501E0FFF7F0FFFFF7E2FF10F0080FF8D108BD08B54FF690
:40070000FF70FFF7DFFF4FF6FF70FFF7E7FF00F0DFF9064A137843F01003137000F0DCF9FFF7E2FF0120FFF7C1FF08BD9565004008B5054B1B7823B9FFF7E0FF0122024B47
:400740001A70FFF7A3FF08BD5981FF1F704700BF014B1B689864704708ED00E04001C0B2014B1870704700BF02E400E00422014B1A60704700E100E00422014B1A60704703
:4007800080E100E008B5FFF7F7FF0448FFF7E0FF0720FFF7E3FFFFF7E9FF08BD4D07000010B50446FFF7E8FF2046FFF7D1FF0720FFF7D4FFFFF7DAFF10BD00BF7222074BEF
:4007C0001A702022013B1A7006225F3B1A70472210331A70002251331A7070478A65004010B500F075F904460A4A137843F020031370013A137843F010031370023213785C
:4008000043F01003137000F045F9204600F064F910BD00BF9A65004008B5054B1B7823B9FFF7CCFF0122024B1A70FFF7D9FF08BD5A81FF1F014B1878704700BF4965004040
:40084000024B187800F07F00704700BF6965004010B5FFF7F5FF0402FFF7ECFF204380B210BD00BF034B1B7813F0040FFAD1024B187070476B6500404B650040084B1B78BD
:4008800033B97047305DFFF7EDFF0134E4B203E070B50D4606460024AC42F3D370BD00BF5A81FF1F014B1870704700BF79650040704700BF014B1B681864704708ED00E042
:4008C0004001C0B2014B1870704700BF00E400E00122014B1A60704700E100E00122014B1A60704780E100E008B5FFF7F7FF0448FFF7E0FF0720FFF7E3FFFFF7E9FF08BD89
:40090000B108000010B50446FFF7E8FF2046FFF7D1FF0720FFF7D4FFFFF7DAFF10BD00BF014B1870704700BF79640040024A137843F080031370704778650040014B18707C
:40094000704700BF88640040014B1878704700BF68640040014B1870704700BF08640040024B1B78024B1878704700BF0864004048640040014B1878704700BF4864004078
:40098000014B1870704700BF28640040014B1870704700BF3864004008B501E0FFF7EAFFFFF7D2FF10F0400FF8D108BD08B5114B1A7802F0F8021A701A7802F0FC021A70AD
:4009C000FFF7EAFFFE20FFF7DBFF0020FFF7C2FF0120FFF7B3FFFFF7B7FF8020FFF7D6FF00F076F8044A137843F01003137000F073F808BD786500409864004008B5054BED
:400A00001B7823B9FFF7D2FF0122024B1A70FFF78DFF08BD5C81FF1F014B1870704700BF78640040704700BF014B1B685864704708ED00E04001C0B2014B1870704700BF54
:400A400001E400E00222014B1A60704700E100E00222014B1A60704780E100E008B5FFF7F7FF0448FFF7E0FF0720FFF7E3FFFFF7E9FF08BD250A000010B50446FFF7E8FFE6
:400A80002046FFF7D1FF0720FFF7D4FFFFF7DAFF10BD00BF054A137843F0010313701032137843F001031370704700BFA2430040014B1870704700BF7465004000000000A6
:400AC0000230800803D000BF01380046FCD17047EFF3108072B6704780F31088704700BF014B1868704700BF3081FF1F0E4B70B51E460E4C0025E41AA410A54204D056F8A8
:400B0000253098470135F8E700F04EF8084B094C1E46E41AA4100025A54204D056F8253098470135F8E770BDB40B0000B40B0000B40B0000BC0B000010B5431E0A44914289
:400B400004D011F8014B03F8014FF8E710BD03460244934202D003F8011BFAE77047000000000000005100401000305100404000F051004010000000014000100014014097
:400B8000800400190140000300400140000A004C014000020050014020000000801801405005004880004300F8B500BFF8BC08BC9E4670474D00000025060000F8B500BFED
:400BC000F8BC08BC9E46704729000000E00B0000C880FF1F70000000B80100000000000000000000010000000000000000000000000000000000000000000000000000003E
:400C00000000000000000000A60B00000000000000000000000000000000000000000000000000000000000000000000000000000000000000000000000000000000000003
:400C40000000000000000000D080FF1F0000000000000000000000000000000000000000000000000000000000000000000000000000000000000000000000000000000006
:400C80000000000000000000000000000000000000000000000000000000000000000000000000000000000000000000000000000000000000000000000000000000000034
:400CC00000000000000000000000000000000000000000000000000000000000000000000000000000000000000000000000000000000000000000000000000000000000F4
:400D000000000000000000000000000000000000000000000000000000000000000000000000000000000000000000000000000000000000000000000000000000000000B3
:400D40000000000000000000000000000000000000000000000000000000000000000000000000000000000000000000000000000000000000000000000000000000000073
:020000040003F7
:0200000480007A
:40000000045200400264004006650040010701405C08014043090140030B0140040C0140010D014064140140431501400117014010180140451901404D1A01404A1B01406E
:400040000440014003410140034201400543014002450140024601400248014002490140084D0140095001400151014010021102618064407801886774017901850D893828
:400080008A728B0FE6020203030510011102190622013002310433023501360139083E403F0540124105450C4620474E483B49FF4AFF4BFF4DA04F0150185407560458044B
:4000C00059045A045B045C995D995F056040628064406540668068406A506BA86C406D206E506FA8803B814C82408323843B850288238A1C8B638C388D018E0390109103D7
:400100009418950C980899049C439D6F9E04A001A14FA310A402A50CA773A963AA03AB0CAC03AD08B21FB34CB420B53CB640B703BA08BB20BE10D804D904DB04DF010008EF
:400140000181020103A80501089109080E801004111412421308168019201B881D801E8020282302262027A0288129402B28303031083202338036203701388039143A414F
:400180003F02458047204C014D024F04560857115A085B085E085F9063306608674468026F0379027B807F0287409002A402C01FC21FC41FCA0FCCAFCE8FD030D210D67009
:4001C000D8E0DE1084029002E00839803F4059045F01240200110202040905100604090C0A100B130E0E12041502160517051A091B08211F25012608270E2B0C3410351F52
:40020000360F3A804043410149FF4AFF4BFF4F015018580459045A045B045D015F016040624064406540668068806A806C806E808201848086128A208C468E1094069608A5
:40024000970199019C469E38A006A210A601A824AA50B001B23EB4C0B501B820BA08BE01C043C101C5ECC620C80BC9FFCAFFCBFFCD83CE03CF01D018D280D401D604D8046B
:40028000D904DA04DB04DD11DF05E040E240E440E540E680E880EA80EC80EE80000801A0038004080590068009290E2210201521162019A01A021C441D3C200821102708CE
:4002C000281029102B80302031043610370838083920414042A0434046A047404D044F0156205C405D045F01660269C076807D4080048101840486108780883089018A013C
:400300008C048D048E019E02AE02C0FFC2AEC474CA07CC66CE06D0DBD6D0D880DE10E402E609EE4002010B010F01130221023302360137013F445280580459045B045C0918
:400340005D905F0100080181030805020891090810061240130419901B011F802004214022062580260429102B012F80320633103502388239103A403CA041414204430859
:4003800048404B80500158045A045B02600461816802768078807B01910394809608981199229B029C849DC19E80A014A308A420A508A606B501C01FC20FC40FCA8CCC8727
:4003C000CE3DD00FD208D601D80DDE08EE4004010F0128012C012D01340135014004454049FF4A074BFF4C404D204EF04F05500856025711580459045A045B045E085F09D2
:40040000604061A862406320801081018506864088148C098E10910696409702982099049A039C1FA04CA211A41CA642A850AA0CB106B220B41FB501B640B902BE44BF117F
:40044000C023C104C6C0C7EBC838C9FFCAFFCBFFCEF0CF44D00CD401D804D904DA04DB04DF0DE6C0EA40EB020310050606050E180F22100211101504160817021A041E2A37
:400480002304244027082B0135043620370638803D013E0A404046084706484049864A015626571059205D815E105F08680269106B10702071487B037F0281048504862026
:4004C000870188408A308B028C408E09948095109604970499209D409F10A301A420A508B010B340C0F4C2E0C473CA08CCE0CEC8D0E1D6F4DE18E030E440E6A031203204B4
:400500003620CC709608A520A6209608A520A62086209608A520A620E6405702D6048702A7029608B520AE04EE1010207B018B018C20C408DC01E001E608000101010C01EE
:400540000D01100311011A031C011D01003F00006F0000010E004100633E0C000E1470A20802004C0C280092043E00000F001000020000000000020000002101003E8000B0
:40058000800E003040013FC020008000000000503204050001C000E022FFFFFF62A0F0410C00000018000400040404040000000D0000000000004002001030100010101216
:4005C00000000000000000000000000000000000800040808000800000000000000B0B0000000000000202000200000000000000000000000000000000000000000000009F
:4006000000000000000000000000000000000000000000000000000000000000000000000000000000000000000000000000000000000000000000000000000000000000BA
:40064000000000000000000000000000000000000000000000000000000000000000000000000000000000000000000000000000000000000000000000000000000000007A
:40068000000000000000000000000000000000000000000000000000000000000000000000000000000000000000000000000000000000000000000000000000000000003A
:4006C00000000000000000000000000000000000000000000000000000000000000000000000000000000000000000000000000000000000000000000000000000000000FA
:0200000490006A
:0400000000004005B7
:0200000490105A
:04000000BC90ACAF55
:0200000490303A
:0200000017EEF9
:0200000490402A
:4000000000000000000000000000000000000000000000000000000000000000000000000000000000000000000000000000000000000000000000000000000000000000C0
:400040000000000000000000000000000000000000000000000000000000000000000000000000000000000000000000000000000000000000000000000000000000000080
:400080000000000000000000000000000000000000000000000000000000000000000000000000000000000000000000000000000000000000000000000000000000000040
:4000C0000000000000000000000000000000000000000000000000000000000000000000000000000000000000000000000000000000000000000000000000000000000000
:0200000490501A
:0C00000000012E16106900012E1C28576C
:00000001FF