:400000000080002011000000E1040000E104000008B5044B1A6803F53F5302331A6000F067FA00BFFA46004010B5054C237833B9044B13B10448AFF300800123237010BD4C
:400040003081FF1F00000000A00A0000084B10B51BB108490848AFF300800848036803B910BD074B002BFBD0BDE81040184700BF000000003481FF1FA00A0000C880FF1FDE
:400080000000000038B5012000F040FB0D4C25786B1C237000F0D2FA0B4B585563782BB9094B187800F06EFB0122627000F054FB044B987000F044FB044B1870002000F09B
:4000C00025FB38BD4C81FF1F9881FF1F6082FF1F08B5114BDB78C3B9104A1078104B187052785A70002307E09A1C0C49895C0C4A1A4491700133DBB2821E9342F4DB064B83
:4001000000225A700121D9701A7000F019FB002000F0FCFA08BD00BF4C81FF1F9881FF1F6482FF1F08B500F0F7FAB0FA80F0400900F0ECFA00F0D2FB08BD00BF10B500202D
:4001400000F0A6FA002000F063FB00F05BFA00F051FB00F0E7FA012000F0ECFA00F0BAFA404800F0C5FA00F0A9FA00F073FB3E4800F07EFB00F062FB00F0F6FB00F024FC3F
:400180003A4800F02FFC00F00FFC41F2883000F0ABFB62B6364BDB78002BFBD0354B5A78531E042B57D8DFE803F0293B4C56030031494A70314B5A702E4A14780C701C70DA
:4001C00000230AE0991C2B4A1A4490782A4A0A4490702A4A50540133DBB2A342F2D30022234BDA7037E0234A02EB830292781168234A42F823100133DBB200E000231D4AC5
:400200001278B3EB920FEED325E01A4A02EB4302927811881B4A22F813100133DBB200E00023144A1278B3EB520FEED313E0114A1A449278B2F90010134A11800133DBB2C8
:4002400000E000230B4A1278B3EB520FEFD30E4B188800F049FB084B1978084800F004FA98E700BF85000000D1000000250100004C81FF1F6482FF1FDC81FF1F5481FF1F75
:40028000A882FF1F2082FF1F6282FF1FFEE700BFF0B40022174611E050F82760F3B226F0FF0608E001EB420511F812406D78A5550132013BDBB2002BF4D10137162FEBD96B
:4002C000F0BC7047064B1B78DBB203F00701054A11701B09013213704422034B1A707047CF0100496E5800407658004008B50A46002100F0CCFB08BD38B50122284B1A809C
:400300001823284A13701925023215800232137040F2E73102321180023213700222224B1A7008224FF040231A70032103F5007319701E4B1B78DBB21D490B701D4B1A8014
:4003400041F25122023B1A8000240CE01A4B1B7803F0010343EA440404F003044FF4F07000F04EFB013D0DB1032CEFD115B90320FFF78CFF114B4FF480721A8007221A707A
:4003800000220F490A704820023108701A700222033B1A700B4A137843F00703137038BD80400040824000400043004008010049A14600402242004025420040044000405E
:4003C00006400040A243004008B500F055FB08BD38B572B6334A137843F00403137000240CE0314D630019194A0011462A44084691882858FFF77AFF0134E4B2092CF0D965
:4004000000240BE02849A3001819420088188022016CC06BFFF7D8FF0134E4B2002CF1D022494FF09040FFF733FF214A137843F0020313701032137843F0020313701D4C83
:40044000237843F040032370A2F58632513A137843F0100313700A2217491848FFF7B4FF082217491748FFF7AFFF082216491748FFF7AAFF164A137843F008031370154DF3
:4004800061232B70FFF738FF81232B700122124B1A70FFF717FF0E2221461048FFF794FF38BD00BFE8460040A40A00005C00004803500140A0430040C4040048C051004097
:4004C000D004004812510040D804004822510040224300400048004004000840B043004008B500F09DFA03680C2B00D1FEE7FEE708B5104E104D16E029686B68AC68002231
:4005000004E051F8040B43F8040B0432A242F8D1E868002203E0002143F8041B04328242F9D11035013E002EE6D100F07FFAFFF705FEFEE701000000100B000008B5104ADB
:40054000104B1A60104A136843F40073136000230AE0032B03D80D4A52F8231000E00C490C4A42F8231001332F2BF2D90A4B1A780A4B1A70074A0A4B1A60FFF729FF08BDB0
:400580000004FA050CED00E014ED00E000000000E10400000080FF1FBC760040C080FF1F08ED00E07222084B1A702022013B1A700622A3F261131A70472210331A700022CA
:4005C0004F331A70704700BF8B65004010B500F01FFA04460A4A137843F020031370013A137843F010031370A2F58172137843F01003137000F04AF9204600F00DFA10BDAF
:400600009B65004008B5054B1B7823B9FFF7CAFF0122024B1A70FFF7D9FF08BD5081FF1F014B1878704700BF4B650040024B187800F07F00704700BF6A65004010B5FFF7F5
:40064000F5FF0402FFF7ECFF204380B210BD00BF034B1B7813F0040FFAD1024B187070476864004048640040084B1B7833B97047305DFFF7EDFF0134E4B203E070B50D461A
:4006800006460024AC42F3D370BD00BF5081FF1F014B1870704700BF7A650040704700BF014B1B681864704708ED00E04001C0B2014B1870704700BF00E400E00122014B55
:4006C0001A60704700E100E00122014B1A60704780E100E008B5FFF7F7FF0448FFF7E0FF0720FFF7E3FFFFF7E9FF08BD9D06000010B50446FFF7E8FF2046FFF7D1FF0720D9
:40070000FFF7D4FFFFF7DAFF10BD00BF014B1870704700BF79640040014B1878704700BF79640040024A137843F080031370704779650040014B1870704700BF8965004062
:40074000014B1878704700BF69650040014B1870704700BF09650040024B1B78024B1878704700BF0965004049650040014B1878704700BF49650040014B1870704700BFC8
:4007800029650040014B1870704700BF3965004008B501E0FFF7EAFFFFF7D2FF10F0400FF8D108BD08B5114B1A7802F0F8021A701A7802F0FC021A70FFF7EAFFFE20FFF702
:4007C000DBFF0020FFF7C2FF0120FFF7B3FFFFF7B7FF8020FFF7D6FF00F01AF9044A137843F01003137000F017F908BD796500409965004008B5054B1B7823B9FFF7D2FF5F
:400800000122024B1A70FFF78DFF08BD5281FF1F014B1870704700BF78650040704700BF014B1B685864704708ED00E04001C0B2014B1870704700BF01E400E00222014B60
:400840001A60704700E100E00222014B1A60704780E100E008B5FFF7F7FF0448FFF7E0FF0720FFF7E3FFFFF7E9FF08BD1D08000010B50446FFF7E8FF2046FFF7D1FF0720D4
:40088000FFF7D4FFFFF7DAFF10BD00BF054A137843F0020313701032137843F002031370704700BFA2430040084A137843F0010313701032137843F00103137002F64D32C7
:4008C000137843F001031370704700BFA3430040014B1870704700BF034F0040014B1878704700BF034F0040014B1880704700BF044F0040014B1880704700BF064F00407B
:4009000008B5164A137803F0010313700232137803F0FC031370124B1A7802F0CF021A701A7842F030021A701A7802F0F0021A701A7842F00F021A700A4A137843F0010330
:40094000137045F6BF50FFF7CFFF45F6BF50FFF7D1FF0820FFF7BCFF08BD00BF004F00400B4F0040014F004008B5054B1B7823B9FFF7C6FF0122024B1A70FFF795FF08BD40
:400980005381FF1F704700BF024B1B68C3F88400704700BF08ED00E04001C0B2014B1870704700BF11E400E04FF40032014B1A60704700BF00E100E04FF40032014B1A60F6
:4009C000704700BF80E100E008B5FFF7F5FF0448FFF7DAFF0720FFF7DFFFFFF7E5FF08BD8509000010B50446FFF7E6FF2046FFF7CBFF0720FFF7D0FFFFF7D6FF10BD00BF03
:400A00000230800803D000BF01380046FCD17047EFF3108072B6704780F31088704700BF014B1868704700BF2C81FF1F0E4B70B51E460E4C0025E41AA410A54204D056F86C
:400A4000253098470135F8E700F050F8084B094C1E46E41AA4100025A54204D056F8253098470135F8E770BDF80A0000F80A0000F80A0000000B000010B5431E0A4491423B
:400A800004D011F8014B03F8014FF8E710BD03460244934202D003F8011BFAE77047000000000000004F00400C00005100401000305100404000F051004010000000014022
:400AC0000010001401408006001B0140000100400140000A004C01400002005001402000801A01404404004880004300F8B500BFF8BC08BC9E4670474D0000003D050000A7
:400B0000F8B500BFF8BC08BC9E46704729000000200B0000C880FF1F68000000B801000000000000000000000000000000000000000000000000000000000000000000005B
:400B400000000000EA0A0000000000000000000000000000000000000000000000000000000000000000000000000000000000000000000000000000000000000000000081
:400B800000000000CC80FF1F0000000000000000000000000000000000000000000000000000000000000000000000000000000000000000000000000000000000000000CB
:400BC00000000000000000000000000000000000000000000000000000000000000000000000000000000000000000000000000000000000000000000000000000000000F5
:400C000000000000000000000000000000000000000000000000000000000000000000000000000000000000000000000000000000000000000000000000000000000000B4
:400C40000000000000000000000000000000000000000000000000000000000000000000000000000000000000000000000000000000000000000000000000000000000074
:400C80000000000000000000000000000000000000000000000000000000000000000000000000000000000000000000000000000000000000000000000000000000000034
:020000040003F7
:0200000480007A
:40000000024F0040035200400164004005650040010701406E08014042090140011701405F1801404E190140151A0140531B014003400140014101400142014005430140D3
:4000400002450140014601400347014004480140094D0140045001400151014001200A27110261806440880F78017A0189678A388B72E6010410071009430A0C0B080C1FC3
:400080000D030F481143131C1608174918201B201D231F0420022205240C2613280129122A0E2B48321F334034203520371F38803B803E503F0440464102450E460C47B0D5
:4000C000482549FF4AFF4BFF4EF04F44500C5401580459045A045B045C115D115F0D66C06A406B02822085208603874489D08B0E8C3F9014941C95899602971498099A10E4
:400100009B089DD09F05A010A101A20CA302A410A709A80CAA11B020B1C0B30FB41FB530B922BB08BF01C004C504C9FFCA07CBFFCC40CD20CEF0CF05D008D804D904DA0490
:40014000DB04DC11DD01DF09E040E1A8E240E32000040102020104080601070809090B040E200F081020132216201722180419021D0C1E0A1F042050232C26A027122880A8
:400180002A092E202F0430203104328034803628370238183C103D403E083F844040472248204A104C044D044F0850045208550157405C225E48680178807C80820188011C
:4001C000C0EDC26EC47ECA23CCFECE76D0A1D220D6F0DE18E2440030010802060406052F08020B210D4F0F10100611231238130C150E16301730190C1C361E011F0220270F
:4002000022082504282629022A102B402C042D0E2F01301E333F3401362637403A023B08580459045B045C115F01820C84028E018F02910C920194049F09A401AD04B002DA
:40024000B101B208B304B404B502B601B708B908BE51BF44C013C105C542C6C0C70EC81FC9FFCAFFCBFFCDA0CF01D018D280D407D604D804D904DA04DB04DF05E040E2805E
:40028000E440E540E680E840EA50EBA8EC40ED20EE50EFA8004402400501060807200A200B400E400F12130414801602171018811A241C081E401F602106224023042688C7
:4002C00027102B022C082E483080310235013688372038403C083D403E023F1040014104488049044A015108525058105A84610862106380641065046F0273407B028340D4
:4003000088088B218C4090049C80A201A820A940B002B104B640B710C07DC2BCC4D4CA78CCF9CEF8D00AD208D60ED807DE08E2400101070209010F0417041B0225012E0139
:4003400033013502360137043F5054185604580459045B045C115D105F0504800501060807200D100E400F12101211081490160217101A021D0B1E08200422802310248085
:40038000252527012B202C082D412F2031203308340835013710380239143BC03D1A3E404408450A4D044F5057085B015E086044628068026C016D106F20760A77207880CF
:4003C0007C807D407E0185018710880889109240938094409540971098089B109C809D019E0A9F20A301A408B440C0F0C2F0C4F1CAF2CCE6CEFFD0E0D230D641D80DDE18A4
:4004000031103580CC309D909D906B4083409D90DC20E6805840D4019C4088409C40E00181808D109D90E2201020721088209210B610C408DC01E604EC0800020C0210036C
:400440001C03000F23071C1818520024087C0000030040833B83000000830300010080833B00000003000403027C800038290344107F00001F1CC060208000030020020036
:400480000000140046020500030E000C11FFFFFF62A0F0410C0000000000021204040404111108090000000000004002001030100010101200000000000000000000000056
:4004C00000000000800040808000800000000000000B0B000000000000020200020000000000000000000000000000000000000000000000000000000000000000000000A0
:4005000000000000000000000000000000000000000000000000000000000000000000000000000000000000000000000000000000000000000000000000000000000000BB
:40054000000000000000000000000000000000000000000000000000000000000000000000000000000000000000000000000000000000000000000000000000000000007B
:40058000000000000000000000000000000000000000000000000000000000000000000000000000000000000000000000000000000000000000000000000000000000003B
:4005C00000000000000000000000000000000000000000000000000000000000000000000000000000000000000000000000000000000000000000000000000000000000FB
:0200000490006A
:0400000000004005B7
:0200000490105A
:04000000BC90ACAF55
:0200000490303A
:020000006D256C
:0200000490402A
:4000000000000000000000000000000000000000000000000000000000000000000000000000000000000000000000000000000000000000000000000000000000000000C0
:400040000000000000000000000000000000000000000000000000000000000000000000000000000000000000000000000000000000000000000000000000000000000080
:400080000000000000000000000000000000000000000000000000000000000000000000000000000000000000000000000000000000000000000000000000000000000040
:4000C0000000000000000000000000000000000000000000000000000000000000000000000000000000000000000000000000000000000000000000000000000000000000
:0200000490501A
:0C00000000012E16106900012E1B7D8EE1
:00000001FF