:4000000000800020110000000D0700000D07000008B5044B1A6803F53F5302331A6000F07DFB00BFFA46004010B5054C237833B9044B13B10448AFF300800123237010BDD7
:400040003081FF1F00000000E80F0000084B10B51BB108490848AFF300800848036803B910BD074B002BFBD0BDE81040184700BF000000003481FF1FE80F0000C880FF1F44
:400080000000000038B50D4C25786B1C237000F031FE0B4B58552378042B05D1084BD8780630C0B200F0B8FE00F0A0FE034B587000F090FE034B187038BD00BF4C81FF1FF9
:4000C0005C81FF1F7E82FF1F08B5134B9B7803BB124B58781978124A41EA0021118099789170D878D07059791B7943EA01239380002307E09A1D0949895C094A1A449171ED
:400100000133DBB28342F5D3034B01229A7000221A7000F05FFE08BD4C81FF1F5C81FF1F6882FF1F38B5012000F006FC0D4CE5786B1CE37000F098FB0B4B585523792BB9B4
:40014000094B187800F02EFC0122227100F014FC044B587100F004FC044B1870002000F0EBFB38BD4C81FF1FC081FF1F7E82FF1F08B5114B9B79C3B9104A1078104B18702B
:4001800052785A70002307E09A1C0C49895C0C4A1A4491700133DBB2821E9342F4DB064B00221A7101219971DA7000F0D9FB002000F0C2FB08BD00BF4C81FF1FC081FF1F24
:4001C0009882FF1F10B5002000F078FB002000F02FFC002000F0A4FE002000F09BFE00F027FB00F06BFD00F029FD00F0C5FC00F011FC00F0A7FB012000F0ACFB00F044FE3F
:4002000000F0DAFD012000F0DFFD00F079FB7D4800F084FB00F068FB00F0B2FD7A4800F0BDFD00F0A1FD00F025FC784800F030FC00F014FC00F052FE754800F05DFE00F061
:4002400041FE62B6734B9B79002BFBD072494B7872484370724A5370097801701170012B52D07BB1022B00F09180C6E0981C6A4A1A449478694A02449470694A1454013316
:40028000DBB200E000238B42F0D30023614A937164484CF2AE1202800E228270C370042100F03EFD5B4B9B78002BFBD05E4A11885B4B9970090AD97091781971D4785C71D4
:4002C00092889A71120ADA71002308E003F10801554A1A449079524A50540133DBB2A342F4D308344E4B1C7000224A4B9A7084E0981C494A1A449478484A02449470484A12
:4003000014540133DBB200E000238B42F0D30023404A937143484CF2AE12028018228270C370042100F0FCFC3A4B9B78002BFBD03D4A11883A4B9970090AD97091781971AE
:40034000D4785C7192889A71120ADA71002308E003F10801344A1A449079314A50540133DBB2A342F4D308342D4B1C700022294B9A7042E0981C284A1A449478274A024416
:400380009470274A14540133DBB200E000238B42F0D300231F4A937122484CF2AE1202800C2282700122C2708371052100F0B8FC184B9B78002BFBD01B4A1188184B997089
:4003C000090AD97091781971D4785C7192889A71120ADA71002308E003F10801124A1A4490790F4A50540133DBB2A342F4D308340B4B1C700022074B9A700948017800F0DE
:4004000049FA1FE7250100008500000071010000C90000004C81FF1F9882FF1F0482FF1F7C81FF1F8082FF1F6882FF1FFEE700BFF0B40022174611E050F82760F3B226F041
:40044000FF0608E001EB420511F812406D78A5550132013BDBB2002BF4D101371F2FEBD9F0BC70470C4B1B78DBB203F007010B4A11701B09013213704022094B1A702023E4
:40048000084A1370042140321170043213704422054B1A70704700BFCF0100496E5800401D510040985A00407658004008B50A46002100F090FD08BD38B50122284B1A8046
:4004C0001823284A13700C210232118002321370192502321580023213700222224B1A7008224FF040231A70032103F5007319701E4B1B78DBB21E490B701E4B1A8041F23B
:400500005122023B1A8000240CE01B4B1B7803F0010343EA440404F003044FF4F07000F013FD013D0DB1032CEFD115B90320FFF77DFF124B4FF480721A8007221A7000220F
:400540000F490A704820023108701A700222033B1A700C4A137843F00703137038BD00BF80400040824000400043004008010049A1460040224200402542004004400040FE
:4005800006400040A243004008B500F019FD08BD38B572B6434A137843F00403137000240CE0414D630019194A0011462A44084691882858FFF77AFF0134E4B20A2CF0D9BC
:4005C00000240CE03848A20011194B000344B3F84C20996C586CFFF7D7FF0134E4B2022CF0D932494FF09040FFF722FF40F203322F4B1A802F4B304A1360304902F500723A
:4006000011602F498032116002F5C07213602D4A2D4B1A6002F1F84280331A602B4B2C4A1360803213602B4A2B4B1A602B4A137843F0020313701032137843F00203137023
:40064000274C237843F040032370A2F58632513A137843F0100313700A2222492248FFF793FF0A2221492248FFF78EFF082221492148FFF789FF214A137843F008031370F7
:400680001F4D61232B70FFF717FF81232B7001221C4B1A70FFF7E6FE0E2221461A48FFF773FF38BDE8460040EC0F0000800000484E5800400404C4C4580801400404C4000C
:4006C000040400C404048484580E0140040400845818014004048404D81A014003500140A043004030090048C05100403C09004810510040480900482251004022430040CF
:400700000048004004000840B043004008B500F02BFC03680C2B00D1FEE7FEE708B5104E104D16E029686B68AC68002204E051F8040B43F8040B0432A242F8D1E8680022BE
:4007400003E0002143F8041B04328242F9D11035013E002EE6D100F00DFCFFF733FDFEE7010000007410000008B5104A104B1A60104A136843F40073136000230AE0032B4C
:4007800003D80D4A52F8231000E00C490C4A42F8231001332F2BF2D90A4B1A780A4B1A70074A0A4B1A60FFF7F3FE08BD0004FA050CED00E014ED00E0000000000D070000D6
:4007C0000080FF1FBC760040C080FF1F08ED00E07222084B1A70202201331A700622A3F5AD731A70472210331A7000224F331A70704700BF8865004010B500F0ADFB04462D
:400800000A4A137843F0200313700132137843F010031370FB3A137843F01003137000F045F9204600F09CFB10BD00BF9865004008B5054B1B7823B9FFF7CAFF0122024B61
:400840001A70FFF7D9FF08BD5481FF1F014B1878704700BF4B650040024B187800F07F00704700BF6965004010B5FFF7F5FF0402FFF7ECFF204380B210BD00BF034B1B78BE
:4008800013F0040FFAD1024B187070476E6400404E640040084B1B7833B97047305DFFF7EDFF0134E4B203E070B50D4606460024AC42F3D370BD00BF5481FF1F014B1870D2
:4008C000704700BF7B650040704700BF014B1B681864704708ED00E04001C0B2014B1870704700BF00E400E00122014B1A60704700E100E00122014B1A60704780E100E012
:4009000008B5FFF7F7FF0448FFF7E0FF0720FFF7E3FFFFF7E9FF08BDC908000010B50446FFF7E8FF2046FFF7D1FF0720FFF7D4FFFFF7DAFF10BD00BF014B1870704700BFCD
:400940007C640040024A137843F080031370704779640040014B1870704700BF8A650040014B1878704700BF6A650040014B1870704700BF09640040024B1B78024B1878E5
:40098000704700BF0964004049640040014B1878704700BF49640040014B1870704700BF29640040014B1870704700BF3964004008B501E0FFF7EAFFFFF7D2FF10F0400F17
:4009C000F8D108BD08B5114B1A7802F0F8021A701A7802F0FC021A70FFF7EAFFFE20FFF7DBFF0020FFF7C2FF0120FFF7B3FFFFF7B7FF8020FFF7D6FF00F0AEFA044A137847
:400A000043F01003137000F0ABFA08BD796400409A65004008B5054B1B7823B9FFF7D2FF0122024B1A70FFF78DFF08BD5681FF1F014B1870704700BF79650040704700BFE0
:400A4000014B1B685864704708ED00E04001C0B2014B1870704700BF01E400E00222014B1A60704700E100E00222014B1A60704780E100E008B5FFF7F7FF0448FFF7E0FF8F
:400A80000720FFF7E3FFFFF7E9FF08BD3D0A000010B50446FFF7E8FF2046FFF7D1FF0720FFF7D4FFFFF7DAFF10BD00BF054A137843F0040313701032137843F004031370C9
:400AC000704700BFA2430040054A137843F0080313701032137843F008031370704700BFA74300400F490B7803F0FC0200F0030313430B7001280AD10B4B1B78DBB20B4A30
:400B000013700B4B1B78DBB2013213707047094B1B78DBB2054A1370074B1B78DBB201321370704743580040130100493646004017010049B3010049BB01004908B50020F6
:400B4000FFF7D0FF0B4B1A7842F020021A701A7802F0FB021A701A7842F008021A7003F527731A7802F0E7021A701A7842F008021A7008BD4358004008B5054B1B7823B98A
:400B8000FFF7DCFF0122024B1A70FFF79DFF08BD5781FF1F054A137843F0080313701032137843F008031370704700BFA8430040054B1A7802F0FD021A701A7800F0020072
:400BC00010431870704700BF2C580040014B1870704700BF835B0040064B1B78C3F3810303F19243063393F83831DBB2024A1370704700BF2C5800400B46004008B5064B2F
:400C00001A7802F0F3021A701A7800F00C0010431870FFF7E1FF08BD2C58004010B50024054B1C7001331C702046FFF7E7FF2046FFF7BEFF10BD00BF2C58004008B5074BAA
:400C40001B7823B9FFF7EAFF0122044B1A70FFF7A1FF6420FFF7BAFF08BD00BF5881FF1F7222074B1A702022033B1A7006225E3B1A70472210331A70002252331A70704703
:400C80008B64004010B500F067F904460A4A137843F020031370033A137843F0100313700432137843F01003137000F03FF9204600F056F910BD00BF9B64004008B5054B2E
:400CC0001B7823B9FFF7CCFF0122024B1A70FFF7D9FF08BD5981FF1F014B1878704700BF48640040024B187800F07F00704700BF6864004010B5FFF7F5FF0402FFF7ECFF9D
:400D0000204380B210BD00BF034B1B7813F0040FFAD1024B187070476C6400404C640040084B1B7833B97047305DFFF7EDFF0134E4B203E070B50D4606460024AC42F3D302
:400D400070BD00BF5981FF1F704700BF014B1B68D864704708ED00E04001C0B2014B1870704700BF03E400E00822014B1A60704700E100E00822014B1A60704780E100E06E
:400D800008B5FFF7F7FF0448FFF7E0FF0720FFF7E3FFFFF7E9FF08BD490D000010B50446FFF7E8FF2046FFF7D1FF0720FFF7D4FFFFF7DAFF10BD00BF024A137843F0800381
:400DC000137070477D640040014B1870704700BF8D640040014B1878704700BF6D640040014B1870704700BF0D640040024B1B78024B1878704700BF0D6400404D640040EA
:400E0000014B1878704700BF4D640040014B1870704700BF2D640040014B1870704700BF3D64004008B501E0FFF7EAFFFFF7D2FF10F0400FF8D108BD08B5114B1A7802F06B
:400E4000F8021A701A7802F0FC021A70FFF7EAFFFE20FFF7DBFF0020FFF7C2FF0120FFF7B3FFFFF7B7FF8020FFF7D6FF00F074F8044A137843F01003137000F071F808BD42
:400E80007D6400409D64004008B5054B1B7823B9FFF7D2FF0122024B1A70FFF78DFF08BD5B81FF1F704700BF014B1B689864704708ED00E04001C0B2014B1870704700BF88
:400EC00002E400E00422014B1A60704700E100E00422014B1A60704780E100E008B5FFF7F7FF0448FFF7E0FF0720FFF7E3FFFFF7E9FF08BDA50E000010B50446FFF7E8FFD9
:400F00002046FFF7D1FF0720FFF7D4FFFFF7DAFF10BD00BF014B1870704700BF7E640040014B1870704700BF78640040054A137843F0020313701032137843F0020313704B
:400F4000704700BFA24300400230800803D000BF01380046FCD17047EFF3108072B6704780F31088704700BF014B1868704700BF2C81FF1F0E4B70B51E460E4C0025E41A49
:400F8000A410A54204D056F8253098470135F8E700F05EF8084B094C1E46E41AA4100025A54204D056F8253098470135F8E770BD5C1000005C1000005C10000064100000CB
:400FC00010B5431E0A44914204D011F8014B03F8014FF8E710BD03460244934202D003F8011BFAE77047000000000000005100401000305100404000F05100401000000072
:4010000001400008800801400004000D01400003001401408006001B0140000100400140000A004C01400002005001402000000000080140B00700488000800C0140300879
:4010400000488000801A0140B008004880004300F8B500BFF8BC08BC9E4670474D00000069070000F8B500BFF8BC08BC9E4670472900000088100000C880FF1F68000000C0
:40108000C8010000000000000000000000000000000000000000000000000000000000000000000000000000000000004E1000000000000000000000000000000000000009
:4010C0000000000000000000000000000000000000000000000000000000000000000000000000000000000000000000CC80FF1F0000000000000000000000000000000086
:4011000000000000000000000000000000000000000000000000000000000000000000000000000000000000000000000000000000000000000000000000000000000000AF
:40114000000000000000000000000000000000000000000000000000000000000000000000000000000000000000000000000000000000000000000000000000000000006F
:40118000000000000000000000000000000000000000000000000000000000000000000000000000000000000000000000000000000000000000000000000000000000002F
:4011C00000000000000000000000000000000000000000000000000000000000000000000000000000000000000000000000000000000000000000000000000000000000EF
:020000040003F7
:0200000480007A
:4000000004520040015A00400764004005650040020301402E08014053090140630A0140520B0140240C01404C0D01406B0E01403C0F0140021501404618014044190140AE
:40004000171A01405E1B014004400140074101400142014001430140024401400445014003460140034701400348014004490140064C0140064D01400950014001510140A9
:400080000980100211026440DF0478017E0188388B728C0F8D678E0F79017B01887289388A67E6C0EA0288048E048F03910192049A02A202A601B102B204B301B402B601AD
:4000C000BE14BF04C035C102C54EC6C0C702C81FC9FFCAFFCBFFCDA0CF01D018D280D804D904DA04DB04DD99DF01E040E280E440E540E680E840EA50EBA8EC40ED20EE502F
:40010000EFA8002002030580068007140A440C020D600E2010A01440150416021720181019201A011E241F84210222042628275228502A042BC02D852E082F0431023608EC
:40014000376238803D083E223F804010432045244706484049444C804D804F20525456205E026402652067806C0272407E407F80908095049689978099809A8A9B209C089E
:400180009F10A020A12CA201A338A612A780B504B740C0F3C2FAC4FCCAF0CCF1CEF8D0E6D238D680D8B0DE80020C0701084C0A130F10101F17081B0A1C611D031E0E1F0489
:4001C0002208231C246225122605270828102A202F12321F33013460371E38203B803E104002460449FF4A074BFF4C404D204EF04F055008580459045A045C115D015F0951
:40020000604061A8624063208001817F8280843B85FC880389FC8C238D808E1C9129920393449438950796039718983B9A409B039C029D529F24A0C3A103A204A408A70343
:40024000A818AB03AC10AD03B020B103B280B380B440B51CB61FB760BA80BE01D602D710D804D904DB04DC11DD10DE08DF010012024005C80680071408400A800B010D80ED
:400280000E280F8010981304150516021720181419041D681E48210423012402258426812704284029042A402D8A2E20301833803690370539883D513E04400445044620AE
:4002C000508851405E406D506E04760A772079017B807F808510868087018D028E049080930494029520968997819C089D049F04A021A338A488A602AA08AB02B702C0FAA6
:40030000C2F9C4FECAFBCCFECEFAD004D610DE81E2020202050213041904230526012A02310432033301350238203E143F1140624101450B46C0470E481949FF4AFF4BFF98
:400340004EF04F44500C5401580459045A045B045D115F0D66C06A406B020012014804020AA10B040E200F2010A012011520170418141A401B081E281F20200221402344CB
:4003800024402728290C2F40300C324035013720380839903A113B053F0840444404460148204A444C044E105040510852205618570459205A485D105F4A610862206380F6
:4003C0006F02710179407E4089208A408B408F4091409C08A602AE02B120C01FC20FC46DCA82CCAACE4FD035D224D6FED807DE88E6C0040C05030611072808200A030B29B7
:400400000F1010091210141F15121728181019231A0C1B1C20102140241425232708281C29032A022B04321F33403420351F37203B203E103F444063410245EB470C48134A
:4004400049FF4AFF4BFF4EF04F44500C5401580459045A045B045C225D225F0D66C06A406B02820C83088511870288218A0E8B249310940C95609633970E982299609A05E3
:400480009B059E08A309A450A81FA949AB04B21FB360B50FB660B710B880B908BB20BF04C002C540C9FFCA07CBFFCC40CD20CEF0CF05D008D804D904DA04DC22DD02DF09E9
:4004C000E040E1A8E240E320001404080640071808080B840C840F0410A414081620181019201F4820082264230424042729280829062C042F4832203308350436203709EA
:4005000038083A603B803D043F21400442204720482449024C804F0150045620571059025A885B106940780879047C08C056C2EEC46ECAA7CCE6CEEED026D204D60FDE42FA
:40054000E602EC200003014303040403050108FC09030D280E030F03107F1123130C152B1603180B1A141B081C521E281F402203231024252502264828FC29232B082C807D
:400580002F103003314032803320341C35103660370F3B803F1456025711580459045B045C225D205E085F0180048C0190049501A203B002B401B501B604B880BE50BF106F
:4005C000D418D604D804D904DB04DC09DD20DF0500400102048207240A400C400E250F801240142015401711184019401A081C081D091E251F4022202410251027412C0882
:400600002D092F063308361437413D803E283F0259015C1060046201630169806A406D406F14762A78087C0880488A20981099049A509C089D409E01A040A308A410B121C4
:40064000B402B548B620C0F9C2F8C4F8CAF0CCF2CEF0D621D80DDE4200080302060407010E0912021A021B01300133023406350136083E503F1054075604580459045B0450
:400680005C995D905F05008801060402062A08200B800D080E420F041422172119821B101D021F262024240225402625273028022B012C012D042E022F04322034403508E1
:4006C00037113A053D803E283F02450A47104C014D014F205604581059805A08610462106340670C6E4079807C087D087F20840185088761882089088D048F4091809208E8
:400700009380940695019708985099049A3B9B019C289D029F20A044A108A410A540A604A743B108B202B510B701C0FDC2FAC4F0CAF0CCF4CEF3D0E0D230D60ED807DE4818
:40074000EC20302236203708CCF08B088C029F08A402A620AC20EA40A620A6207340DC015D80B340D604E8048610B580EC0202109E10C0082701A620C8208620A620B301B7
:40078000E640300160808880CC02D802E00410408840B001C408E201EC04000701010C030D010E07100411011C041D0100FF0000020200000E0041280000211063630C04E6
:4007C000000080100E03702C6F030000000002400F2B1000040100000C2300080828000300403F0F4010802320000808000000105302040006E0C0000AFFFFFF62A0F04155
:400800000C00000018000400040404041111000D000000000000400200103010001010120000000000000000000000000000000009A310081CA3021C00030388200000102E
:400840001F0000001440008910000C006003000410000000001240A8000000000C00110040801F00201F00602080002000001101420600000024C00E1FFFFFFF00A000018B
:40088000180080000700040004040404110000054000800040408000400050A8402050A80000000000000000000000000000000063630C040C080000041800000883001C72
:4008C000001B8080000161404E9B3020000202000E104100020300006F1800834F0010034C403F208080001F00200880000000005302040006C0000E12FFFFFF62A0F0410D
:400900000C00000000000000040404042202000900000000000040020010301000101012000000000000000000000000000000008000408080008000000000008000008B5F
:400940008B00800040000000000202000200000000000000000000000000000000000000000000000000000000000000000000000000000000000000000000000000000026
:400980000000000000000000000000000000000000000000000000000000000000000000000000000000000000000000000000000000000000000000000000000000000037
:4009C00000000000000000000000000000000000000000000000000000000000000000000000000000000000000000000000000000000000000000000000000000000000F7
:400A000000000000000000000000000000000000000000000000000000000000000000000000000000000000000000000000000000000000000000000000000000000000B6
:400A40000000000000000000000000000000000000000000000000000000000000000000000000000000000000000000000000000000000000000000000000000000000076
:0200000490006A
:0400000000004005B7
:0200000490105A
:04000000BC90ACAF55
:0200000490303A
:02000000953B2E
:0200000490402A
:4000000000000000000000000000000000000000000000000000000000000000000000000000000000000000000000000000000000000000000000000000000000000000C0
:400040000000000000000000000000000000000000000000000000000000000000000000000000000000000000000000000000000000000000000000000000000000000080
:400080000000000000000000000000000000000000000000000000000000000000000000000000000000000000000000000000000000000000000000000000000000000040
:4000C0000000000000000000000000000000000000000000000000000000000000000000000000000000000000000000000000000000000000000000000000000000000000
:0200000490501A
:0C00000000012E16106900012E1EA5A4A0
:00000001FF