:400000000080002011000000490500004905000008B5044B1A6803F53F5302331A6000F09BFA00BFFA46004010B5054C237833B9044B13B10448AFF300800123237010BD46
:400040003081FF1F00000000700E0000084B10B51BB108490848AFF300800848036803B910BD074B002BFBD0BDE81040184700BF000000003481FF1F700E0000C880FF1F36
:400080000000000008B5034A13680133136000F053FC08BD4C81FF1F38B50C4C25796B1C237100F0F7FB0A4B585563792BB9084B187800F01FFB0122627100F005FB034B62
:4000C000987100F0F5FA034B187038BD4C81FF1FDC81FF1FB882FF1F08B50F4BDB79C3B90E4A10780E4B187052785A70002307E09A1C0A49895C0A4A1A4491700133DBB2E7
:40010000821E9342F4DB044B00225A710121D9711A7100F0CDFA08BD4C81FF1FDC81FF1F5083FF1F000000002DE9F84300F04AFC00F078FC624800F083FC00F063FC002002
:4001400000F064FA002000F01BFB00F087FB00F009FB00F09FFA012000F0A4FA00F078FA584800F083FA00F067FA00F02BFB564800F036FB00F01AFB62B60024534BDB79A5
:40018000002BFBD0524B5A78531E042B00F28880DFE803F003353C4483004E494A704E4B5A704B4A15780D701D7000230AE0991C474A1A449078474A0A449070464A50549F
:4001C0000133DBB2AB42F2D30022404BDA7167E001EB8003DB003E4A1A4402323F4D2A60D2E900673E4A1344C3E900670131C9B200E000210329EBD90130C0B200E000207E
:400200000328F6D90022314BDA7149E02F4B1968344A11600022DA71012441E0012000F033FA002C3CD02A4B5A782A494A702A4B5A7012220A701A70244B186800F062FD76
:40024000804689461AA3D3E9002300F01FFC264EC6E9000118A3D3E900234046494600F015FC224FC7E90001002310E0991C16F8015B184A501885701748455403F10A0164
:4002800017F8015B0A44957045540133DBB2072BECDD00220D4BDA7102E000220B4BDA710C4B19780C4800F00BFB67E7AFF3008083C0CAA145B61640A10040982191234092
:4002C0008500000099000000D90000004C81FF1F5083FF1F6482FF1F5881FF1FBC82FF1FD082FF1FA882FF1FC882FF1FB082FF1FFEE700BFF0B40022174611E050F82760DD
:40030000F3B226F0FF0608E001EB420511F812406D78A5550132013BDBB2002BF4D101371C2FEBD9F0BC7047064B1B78DBB203F00701054A11701B09013213704422034B48
:400340001A707047CF0100496E5800407658004008B50A46002100F082FD08BD38B50122254B1A801823254A1370192502321580023213700222224B1A7008224FF04023C1
:400380001A70032103F5007319701E4B1B78DBB21D490B701D4B1A8041F25122023B1A8000240CE01A4B1B7803F0010343EA440404F003044FF4F07000F052FB013D0DB167
:4003C000032CEFD115B90320FFF792FF114B4FF480721A8007221A7000220F490A704820023108701A700222033B1A700B4A137843F00303137038BD8040004082400040A8
:400400000043004008010049A146004022420040254200400440004006400040A243004008B500F011FD08BD38B572B6354A137843F00403137000240CE0334D63001919C5
:400440004A0011462A44084691882858FFF780FF0134E4B2092CF0D900240CE02A48A20011194B000344B3F84420196CD86BFFF7D7FF0134E4B2012CF0D924494FF0904088
:40048000FFF738FF224A234B1A60234A137843F0020313701032137843F0020313701F4C237843F040032370A2F58632513A137843F0100313700A2219491A48FFF7B0FFAE
:4004C000082219491948FFF7ABFF082218491948FFF7A6FF184A137843F008031370174D61232B70FFF73AFF81232B700122144B1A70FFF719FF0E2221461248FFF790FFB9
:4005000038BD00BFE8460040740E000074000048040404C4D81A014003500140A043004018050048C051004024050048125100402C0500482251004022430040004800407E
:4005400004000840B043004008B500F051FC03680C2B00D1FEE7FEE708B5104E104D16E029686B68AC68002204E051F8040B43F8040B0432A242F8D1E868002203E00021DE
:4005800043F8041B04328242F9D11035013E002EE6D100F033FCFFF7C7FDFEE701000000EC0E000008B5104A104B1A60104A136843F40073136000230AE0032B03D80D4AB0
:4005C00052F8231000E00C490C4A42F8231001332F2BF2D90A4B1A780A4B1A70074A0A4B1A60FFF721FF08BD0004FA050CED00E014ED00E000000000490500000080FF1FC3
:40060000BC760040C080FF1F08ED00E0014B1870704700BF7A650040704700BF014B1B681864704708ED00E04001C0B2014B1870704700BF00E400E00122014B1A607047FE
:4006400000E100E00122014B1A60704780E100E008B5FFF7F7FF0448FFF7E0FF0720FFF7E3FFFFF7E9FF08BD1906000010B50446FFF7E8FF2046FFF7D1FF0720FFF7D4FF45
:40068000FFF7DAFF10BD00BF014B1870704700BF79640040024A137843F080031370704779650040014B1870704700BF8B650040014B1878704700BF6B650040014B1870E3
:4006C000704700BF08650040024B1B78024B1878704700BF0865004048650040014B1878704700BF48650040014B1870704700BF28650040014B1870704700BF386500408D
:4007000008B501E0FFF7EAFFFFF7D2FF10F0400FF8D108BD08B5114B1A7802F0F8021A701A7802F0FC021A70FFF7EAFFFE20FFF7DBFF0020FFF7C2FF0120FFF7B3FFFFF708
:40074000B7FF8020FFF7D6FF00F092F9044A137843F01003137000F08FF908BD796500409B65004008B5054B1B7823B9FFF7D2FF0122024B1A70FFF78DFF08BD5481FF1F29
:40078000014B1870704700BF7B650040704700BF014B1B685864704708ED00E04001C0B2014B1870704700BF01E400E00222014B1A60704700E100E00222014B1A6070477D
:4007C00080E100E008B5FFF7F7FF0448FFF7E0FF0720FFF7E3FFFFF7E9FF08BD8D07000010B50446FFF7E8FF2046FFF7D1FF0720FFF7D4FFFFF7DAFF10BD00BF7222084B6E
:400800001A70202203F580731A7006225F3B1A70472210331A700022B03B1A70704700BF8864004010B500F023F904460A4A137843F02003137002F58072137843F010032F
:400840001370FF3A137843F01003137000F04CF8204600F011F910BD9864004008B5054B1B7823B9FFF7CAFF0122024B1A70FFF7D9FF08BD5581FF1F014B1878704700BFBD
:400880004B650040024B187800F07F00704700BF6865004010B5FFF7F5FF0402FFF7ECFF204380B210BD00BF034B1B7813F0040FFAD1024B1870704769640040496400407A
:4008C000084B1B7833B97047305DFFF7EDFF0134E4B203E070B50D4606460024AC42F3D370BD00BF5581FF1F054A137843F0020313701032137843F002031370704700BF43
:40090000A2430040084A137843F0010313701032137843F00103137002F64D32137843F001031370704700BFA3430040014B1870704700BF034F0040014B1878704700BFEE
:40094000034F0040014B1880704700BF044F0040014B1880704700BF064F004008B5164A137803F0010313700232137803F0FC031370124B1A7802F0CF021A701A7842F0B3
:4009800030021A701A7802F0F0021A701A7842F00F021A700A4A137843F00103137045F6BF50FFF7CFFF45F6BF50FFF7D1FF0820FFF7BCFF08BD00BF004F00400B4F0040DF
:4009C000014F004008B5054B1B7823B9FFF7C6FF0122024B1A70FFF795FF08BD5781FF1F704700BF024B1B68C3F88400704700BF08ED00E04001C0B2014B1870704700BF24
:400A000011E400E04FF40032014B1A60704700BF00E100E04FF40032014B1A60704700BF80E100E008B5FFF7F5FF0448FFF7DAFF0720FFF7DFFFFFF7E5FF08BDE109000037
:400A400010B50446FFF7E6FF2046FFF7CBFF0720FFF7D0FFFFF7D6FF10BD00BF000000000230800803D000BF01380046FCD17047EFF3108072B6704780F31088704700BF02
:400A800081F0004102E000BF83F0004330B54FEA41044FEA430594EA050F08BF90EA020F1FBF54EA000C55EA020C7FEA645C7FEA655C00F0E2804FEA5454D4EB5555B8BF8A
:400AC0006D420CDD2C4480EA020281EA030382EA000083EA010180EA020281EA0303362D88BF30BD11F0004F4FEA01314FF4801C4CEA113102D0404261EB410113F0004F78
:400B00004FEA03334CEA133302D0524263EB430394EA050F00F0A780A4F10104D5F1200E0DDB02FA0EFC22FA05F2801841F1000103FA0EF2801843FA05F359410EE0A5F1E5
:400B400020050EF1200E012A03FA0EFC28BF4CF0020C43FA05F3C01851EBE37101F0004507D54FF0000EDCF1000C7EEB00006EEB0101B1F5801F1BD3B1F5001F0CD34908FF
:400B80005FEA30004FEA3C0C04F101044FEA445212F5800F80F09A80BCF1004F08BF5FEA500C50F1000041EB045141EA050130BD5FEA4C0C404141EB010111F4801FA4F181
:400BC0000104E9D191F0000F04BF01460020B1FA81F308BF2033A3F10B03B3F120020CDA0C3208DD02F1140CC2F10C0201FA0CF021FA02F10CE002F11402D8BFC2F1200C8E
:400C000001FA02F120FA0CFCDCBF41EA0C019040E41AA2BF01EB0451294330BD6FEA04041F3C1CDA0C340EDC04F11404C4F1200220FA04F001FA02F340EA030021FA04F30B
:400C400045EA030130BDC4F10C04C4F1200220FA02F001FA04F340EA0300294630BD21FA04F0294630BD94F0000F83F4801306BF81F480110134013D4EE77FEA645C18BFB6
:400C80007FEA655C29D094EA050F08BF90EA020F05D054EA000C04BF1946104630BD91EA030F1EBF0021002030BD5FEA545C05D14000494128BF41F0004130BD14F58004A5
:400CC0003CBF01F5801130BD01F0004545F0FE4141F470014FF0000030BD7FEA645C1ABF194610467FEA655C1CBF0B46024650EA013406BF52EA033591EA030F41F4002129
:400D000030BD00BF90F0000F04BF0021704730B54FF4806404F132044FF000054FF0000150E700BF90F0000F04BF0021704730B54FF4806404F1320410F0004548BF4042FD
:400D40004FF000013EE700BF42004FEAE2014FEA31014FEA02701FBF12F07F4393F07F4F81F06051704792F0000F14BF93F07F4F704730B54FF4607401F0004521F000411F
:400D800020E700BF50EA010208BF704730B54FF000050AE050EA010208BF704730B511F0004502D5404261EB41014FF4806404F132045FEA915C3FF4DCAE4FF003025FEA00
:400DC000DC0C18BF03325FEADC0C18BF033202EBDC02C2F1200300FA03FC20FA02F001FA03FE40EA0E0021FA02F11444C1E600BF014B1868704700BF2C81FF1F0E4B70B591
:400E00001E460E4C0025E41AA410A54204D056F8253098470135F8E700F056F8084B094C1E46E41AA4100025A54204D056F8253098470135F8E770BDD40E0000D40E000067
:400E4000D40E0000DC0E000010B5431E0A44914204D011F8014B03F8014FF8E710BD03460244934202D003F8011BFAE77047000000000000004F00400C000051004010001E
:400E8000305100404000F0510040100000000140001000140140000480180140800300400140000A004C014000020050014020006052004090040048060000180140980406
:400EC0000048800043000000F8B500BFF8BC08BC9E4670474D000000A5050000F8B500BFF8BC08BC9E46704729000000000F0000C880FF1F68000000680200000000000082
:400F0000000000000000000000000000000000000000000000000000000000000000000000000000C40E0000000000000000000000000000000000000000000000000000DF
:400F4000000000000000000000000000000000000000000000000000000000000000000000000000CC80FF1F00000000000000000000000000000000000000000000000007
:400F80000000000000000000000000000000000000000000000000000000000000000000000000000000000000000000000000000000000000000000000000000000000031
:400FC00000000000000000000000000000000000000000000000000000000000000000000000000000000000000000000000000000000000000000000000000000000000F1
:4010000000000000000000000000000000000000000000000000000000000000000000000000000000000000000000000000000000000000000000000000000000000000B0
:401040000000000000000000000000000000000000000000000000000000000000000000000000000000000000000000000000000000000000000000000000000000000070
:020000040003F7
:0200000480007A
:40000000024F004002640040046500400400014002010140020301405B08014040090140010B0140030D0140011501400117014033180140571901405D1A01404B1B0140F9
:40004000034001400541014005420140024301400245014001460140034701400448014003490140034C0140074D0140045001400151014001800A4B8872890F7A017B0106
:4000800088388B6738283E1458045F0118041B04AB04B404000201020403051B083809030A830E030F1810A31113121C13041401150118BB19131A401B081C3B1E80204326
:4000C00021032204231C240828182C102D182F03301F310F322033133440368038803A023B023E0456025711580459045B045C115D105E085F01841C86028A208C3F90806F
:400100009203944098099A109C14A00CA211A810AA0CAC10B01FB240B420B680BE44C036C104C50CC60BC70EC815C9FFCAFFCBFFCEF0CF44D00CD401D804DA04DB04DC01A3
:40014000DD11DF0DE6C0EA40EB0200080120020204600512061009880A800B080D020E2710301351144016011728180219241A801D021E141F4126092E012F0135103602BD
:40018000370838103B103C403E264018428448285188581159045A405E106501674069806D406F14745075087623772878407A027E028C01A340C0F7C2FFC4FBCA90CCE058
:4001C000CEF0D003D204D62FDE18A340A340B740EC40E602E60884528688870C88E389028A1C8B058C038E049510990C9A109B139D1FA0E3A208A308A403A688AAA9AD010E
:40020000AF0EB080B21FB460B51FB820BA08BE11C002C540C9FFCA07CBFFCC40CD20CEF0CF05D008D280D804D904DA04DB04DC11DD01DF09E040E1A8E240E32000180202BD
:400240000460050606100A020B0A0D020E251028130114401540171418141A401C401D141E021F01200822102518274229012A802F48304832103688381039083B083D2037
:400280003E023F404004452846604742480849214C804F845008560457125E026662734078407A027E0286028B128D12914092059380947096409709980899089B149D0353
:4002C0009E90A070A102A208A340A40CA612B001B108B540C0F7C2F2C4FECAA9CC5ECEB6D034D210D680D8B0DE180001072009400B050D210F02170919091B441F1022030C
:40030000230829802B042D402F0E3002311033C034013520370F39083B803E10580459045B045C105F0181028340852F860189048A028D089123930C950E960C97309B0281
:400340009C149D4F9F10A10EA301A50CA602AC10AF21B004B203B33FB410B540B608B820BB08BE15C045C102C206C403C5C0C70EC812C9FFCAFFCBFFCC62CDA0CEF0CF416B
:40038000D00CD407D604D804D904DA04DB04DC10DD01DF0DE640E702E910EA30EB10ED10EE10EF12010205140E020F2010801422154019021A041D281E4220442104220662
:4003C00023012420262429212A802D082E012F01325434803624370138543CA03E0A4408450A460847014E8957085E445F10660467446A806D407C827E02874088208A129A
:400400009010922393169420950897019808993D9A84A0D0A102A208A310A520A692A708B680B701C068C2A0C4A8CADDCCFECEFED0E0D230D670D8E0DE9033803620CC30E1
:40044000A280A620A780AA80EE206280A280A620A780D640A620A7805008D404A4088D02A408E0028780A620A780E6108620A620E6409902B408EC08104075028840990257
:40048000C408DE04E20100020C0210031C03000F808000004000000052002405070018000004030000000304030000002900440803000000000003087F000002FC0000006F
:4004C000FC0000028000000080041C0260010308000000000000004512050000000C402E3BFFFFFF00A00001180000001800040004040404011000054000800040408000A7
:40050000400050A8402050A800000000000000000000000000000000800040808000800000000000000B0B00000000000002020002000000000000000000000000000000CF
:40054000000000000000000000000000000000000000000000000000000000000000000000000000000000000000000000000000000000000000000000000000000000007B
:40058000000000000000000000000000000000000000000000000000000000000000000000000000000000000000000000000000000000000000000000000000000000003B
:4005C00000000000000000000000000000000000000000000000000000000000000000000000000000000000000000000000000000000000000000000000000000000000FB
:4006000000000000000000000000000000000000000000000000000000000000000000000000000000000000000000000000000000000000000000000000000000000000BA
:0200000490006A
:0400000000004005B7
:0200000490105A
:04000000BC90ACAF55
:0200000490303A
:02000000227963
:0200000490402A
:4000000000000000000000000000000000000000000000000000000000000000000000000000000000000000000000000000000000000000000000000000000000000000C0
:400040000000000000000000000000000000000000000000000000000000000000000000000000000000000000000000000000000000000000000000000000000000000080
:400080000000000000000000000000000000000000000000000000000000000000000000000000000000000000000000000000000000000000000000000000000000000040
:4000C0000000000000000000000000000000000000000000000000000000000000000000000000000000000000000000000000000000000000000000000000000000000000
:0200000490501A
:0C00000000012E16106900012E1D32E2D6
:00000001FF