:400000000080002011000000B1030000B103000008B5044B1A6803F53F5302331A6000F0CFF900BFFA46004010B5054C237833B9044B13B10448AFF300800123237010BD47
:400040004881FF1F00000000E0110000084B10B51BB108490848AFF300800848036803B910BD074B002BFBD0BDE81040184700BF000000004C81FF1FE0110000C880FF1F20
:400080000000000008B500F0C7FE014B188008BD8081FF1F08B5012000F0DCFA142000F083FA00F0F5F9002000F0D4FA08BD00BF08B5012000F06CFB012000F075FA00F0DC
:4000C000DDFA002000F064FB08BD00BF08B500F087FE00F0F3FE0D4800F0FEFE00F0DEFE00F092FE00F018FA00F040FA084800F04BFA00F02FFA00F005FB00F02DFB054877
:4001000000F038FB00F01CFB62B6FEE78500000095000000B1000000FEE700BFF0B40022174611E050F82760F3B226F0FF0608E001EB420511F812406D78A5550132013BC2
:40014000DBB2002BF4D101371C2FEBD9F0BC70470A4B1B78DBB203F00701094A11701B09013213700222074B1A70202203F6F3131A704422A3F28A231A707047CF0100496D
:400180006E5800400D51004008B50A46002101F01EF808BD08B501F00FF808BD38B500242C4B1C80502202331A7004222A492B48FFF7F0FF02222A4B1A7008224FF04023F2
:4001C0001A70032103F500731970264B1B78DBB225490B70254B1A8041F25122023B1A8019250CE0224B1B7803F0010343EA440404F003044FF4F07000F0A2FF013D0DB19B
:40020000032CEFD115B90320FFF786FF194B4FF480721A8007221A70002217490A704820023108701A700222033B1A7004220A331A70124A137843F001031370013A1378A4
:4002400043F001031370013A137843F08003137038BD00BF80400040A4020048004100400043004008010049A146004022420040254200400440004006400040A24300402C
:40028000012807D8044B53F820201844017A13780B431370704700BFE4110000012808D8044B53F820201844017A137823EA010313707047E411000038B572B62C4A137823
:4002C00043F00403137000240BE02A4863001A19510001440A46098AD068FFF755FF0134E4B2072CF1D924494FF09040FFF716FF0A22224B1A70224A137843F0020313700B
:400300001032137843F0020313701E4C237843F040032370A2F58632513A137843F010031370082218491948FFF734FF082218491848FFF72FFF082217491848FFF72AFFCC
:40034000174A137843F008031370164D61232B70FFF724FF81232B700122134B1A70FFF7F7FE0E2221461148FFF714FF38BD00BFE8460040E4110000740000488358004019
:4003800003500140A04300408C0200480251004094020048125100409C02004822510040224300400048004004000840B043004008B500F0D5FE03680C2B00D1FEE7FEE79A
:4003C00008B5104E104D16E029686B68AC68002204E051F8040B43F8040B0432A242F8D1E868002203E0002143F8041B04328242F9D11035013E002EE6D100F0B7FEFFF7F4
:4004000065FEFEE7010000004812000008B5104A104B1A60104A136843F40073136000230AE0032B03D80D4A52F8231000E00C490C4A42F8231001332F2BF2D90A4B1A7819
:400440000A4B1A70074A0A4B1A60FFF735FF08BD0004FA050CED00E014ED00E000000000B10300000080FF1FBC760040C080FF1F08ED00E0024A137843F080031370704713
:4004800074650040014B1870704700BF86650040014B1878704700BF6665004008B50146014800F0CDF808BD24650040024B186820F07F40704700BF4465004008B50146C2
:4004C000014800F0BDF808BD0465004008B501E0FFF7ECFFFFF7DCFF10F0080FF8D108BD10B50B4C2046FFF7D9FF2046FFF7E6FF00F02EFE074A137843F01003137000F069
:400500002BFEFFF7E3FF0120FFF7BCFF10BD00BFFF340C009665004008B5054B1B7823B9FFF7DEFF0122024B1A70FFF7A3FF08BD6481FF1F704700BF014B1B685864704781
:4005400008ED00E04001C0B2014B1870704700BF01E400E00222014B1A60704700E100E00222014B1A60704780E100E008B5FFF7F7FF0448FFF7E0FF0720FFF7E3FFFFF7E1
:40058000E9FF08BD3505000010B50446FFF7E8FF2046FFF7D1FF0720FFF7D4FFFFF7DAFF10BD00BF01BE704710B5044605E0084B186800F0C5FDA4F50044B4F5004FF6D85F
:4005C000034B586800FB04F000F0BAFD10BD00BFCC80FF1F08B5034B1B7A00FB03F000F0AFFD08BDCC80FF1F70B504460E46074B1D681F2802D90020FFF7D4FF04F01F044C
:40060000103455F8240045F8246070BD08ED00E038B504460D46072902D90020FFF7C2FF1F2C02D90020FFF7BDFF04F01F0000F1604000F564406D01EDB2057038BD00BF6B
:40064000CBB20370C1F307234370C1F307418170704700BF014B1870704700BF74640040024A137843F080031370704775640040014B1870704700BF86640040014B187804
:40068000704700BF6664004008B501460148FFF7D7FF08BD24640040024B186820F07F40704700BF4464004008B501460148FFF7C7FF08BD0464004008B501E0FFF7ECFF25
:4006C000FFF7DCFF10F0080FF8D108BD10B50B4C2046FFF7D9FF2046FFF7E6FF00F038FD074A137843F01003137000F035FDFFF7E3FF0120FFF7BCFF10BD00BF7FA90300A6
:400700009664004008B5054B1B7823B9FFF7DEFF0122024B1A70FFF7A3FF08BD6581FF1F704700BF014B1B681864704708ED00E04001C0B2014B1870704700BF00E400E0C7
:400740000122014B1A60704700E100E00122014B1A60704780E100E008B5FFF7F7FF0448FFF7E0FF0020FFF7E3FFFFF7E9FF08BD2107000010B50446FFF7E8FF2046FFF762
:40078000D1FF0020FFF7D4FFFFF7DAFF10BD00BF014B1870704700BF7565004038B59DF81040651EEDB2032D51D8013809282ED8DFE800F0052D2D052D2D0F192D230F2BDD
:4007C00003D92548007840B222E02448007840B21EE00F2B03D92248007840B218E02148007840B214E00F2B03D91F48007840B20EE01E48007840B20AE00F2B03D91C48BE
:40080000007840B204E01B48007840B200E0002001EB401101FB02F2D20B91B20D2B0BD8C3F10E0192B20A4191B2621E124800EB82020133937005E0631E0F4A02EB8303EE
:400840000F229A70013C0C4B23F8241038BD0020FFF7A8FE38BD00BF180100491C010049190100491D0100491A0100491E0100491B0100491F0100496881FF1FF8B50746C8
:4008800000F066FC06460D4D2B7843F003032B700B4C237843F0030323700A4B1F700320FFF798FE2B7803F0FC032B70237803F0FC032370304600F04FFCF8BDF846004044
:4008C000F9460040925800402DE9F04104460022C44B1A7401285FD13822C34B1A70042202331A70062201331A70002501331D7001331D703F2201331A7002331D7001332D
:400900001D7001331D7001260A331E70502203F527631A70272201331A702C2201331A7001331D70552203331A705A2201331A70052701331F7002331E70112201331A7011
:40094000192201331A70972201331A704420FFF795FF5822A54B1A7001331D7005331F704FF00208013383F8008001331D7001331D70284600F0CEFA4FF47A429C4B1A601D
:400980003146384600F0EAFA3146252000F06AFB98494046FFF728FE022C5FD13822924B1A70042202331A70062201331A70002501331D7001331D703F2201331A700233F5
:4009C0001D7001331D7001331D7001260A331E70502203F527631A70272201331A702C2201331A7001331D70552203331A705A2201331A70052701331F7002331E7011224E
:400A000001331A70192201331A70972201331A704420FFF733FF5822744B1A7001331D7005331F704FF00208013383F8008001331D7001331D70284600F06CFA4FF47A42F4
:400A40006B4B1A603146384600F088FA3146252000F008FB68494046FFF7C6FD032C5FD13822614B1A70042202331A70062201331A70002501331D7001331D703F2201334A
:400A80001A7002331D7001331D7001331D7001260A331E70502203F527631A70272201331A702C2201331A7001331D70552203331A705A2201331A70052701331F7002338F
:400AC0001E70112201331A70192201331A70972201331A704420FFF7D1FE5822434B1A7001331D7005331F704FF00208013383F8008001331D7001331D70284600F00AFA68
:400B00004FF47A423A4B1A603146384600F026FA3146252000F0A6FA38494046FFF764FD042C5DD13822304B1A70042202331A70062201331A70002401331C7001331C70DC
:400B40003F2201331A7002331C7001331C7001331C7001250A331D70502203F527631A70272201331A702C2201331A7001331C70552203331A705A2201331A700526013304
:400B80001E7002331D70112201331A70192201331A70972201331A704420FFF76FFE5822124B1A7001331C7005331E70022701331F7001331C7001331C70204600F0AAF971
:400BC0004FF47A420A4B1A602946304600F0C6F92946252000F046FA09493846FFF704FDBDE8F0816881FF1F004E0040945800408481FF1F690E00006D0E0000710E00007D
:400C0000750E00002DE9F04182B0394D4FF0010885F80080374E00247474102000F08CF9102000F00DFA07210220FFF7F1FC0427314B1F7001331C7007331C702F4A1378A3
:400C400043F0180313702E4B1C7003F2F5231C7001331C700A22A3F209331A7001331C7002331C705B2205331A705E2201331A7004331C701422A3F68C231A70CDF80080B0
:400C800010234FF4004249F2DA012046FFF786FD0223009310234FF4004249F2DA012046FFF77CFD0323009310234FF4004249F2DA012046FFF772FD009710234FF400428B
:400CC00049F2DA012046FFF769FD2B78013B06EB83039A780B4B1A702B78013B36F82320094B1A802878FFF7EFFD02B0BDE8F081DC80FF1F6881FF1F96580040075B0040FB
:400D0000935800400E4E00400C4E004070B500F01FFA0646294B1B78294B1A7842F001021A701A7842F010021A7010331A7842F001021A701A7842F010021A70214D2B78A7
:400D400043F002032B70204C237843F0020323701E4A137843F0030313700320FFF73AFC2B7803F0FD032B70237803F0FD032370174A137843F0060313707A22154B1A704D
:400D8000154A137843F0010313701032137843F0010313700F3A137843F0010313701032137843F00103137004230C4A1360A2F5C0721360304600F0CFF970BDDC80FF1FF2
:400DC000AA430040F8460040F9460040915800407758004082580040A143004080E200E008B5084B9B7C4BB9064BDB7C13F0FF0F01D1FFF707FF0122024B9A74FFF786FF66
:400E000008BD00BF6881FF1F024A137843F0010313707047004E00400E4B1B7803F00303012B03D80C4B188880B209E00A4A12780A49087842EA0020032B01D1084B1B7870
:400E4000084B1B7C13F0FF0F02D00022054B5A7400B27047144E0040104E0040114E0040124E00406881FF1F704700BF704700BF704700BF704700BF704700BF024B1B6858
:400E8000C3F8B400704700BF08ED00E04001C0B2014B1870704700BF1DE400E04FF00052014B1A60704700BF00E100E04FF00052014B1A60704700BF80E100E008B5FFF74B
:400EC000F5FF0448FFF7DAFF0020FFF7DFFFFFF7E5FF08BD790E000010B50446FFF7E6FF2046FFF7CBFF0020FFF7D0FFFFF7D6FF10BD00BF10B5002404E02046FFF7CEF98D
:400F00000134E4B2012CF8D9FF22014B1A7010BDDD80FF1F10B50446FFF7ECFF2046FFF7AFF9014B1C7010BDDD80FF1F014B188880B2704780400040034B1A7800F0F800F8
:400F400010431870704700BF82400040024B187800F00700704700BF8240004070B505460E46FFF7F3FF0446FFF7E0FFA84256D02B4B1B7803F0010294B900B185B938B9CB
:400F8000284B1D80284A137803F0BF03137070BD254A137843F040031370224B1D8070BD22B3002321490B7001240F310C7004310B700C390B7803F07F030B701A4B1B7877
:400FC00013F0080F00D08DB9194B18800721013B1970164B1B7813F0010FFAD110490B7803F0FE030B700021104B19700C4B1B7813F0010F0DD00E4B1D800EB1032200E022
:4010000001220A4B1A70094B1B7813F0010FFAD170BD044B1D8002490B7813430B7070BDA243004080400040824000400140004002400040014B188880B270470041004084
:40104000034B1A7800F0F80010431870704700BF02410040024B187800F00700704700BF0241004070B505460E46FFF7F3FF0446FFF7E0FFA84256D02B4B1B7803F001022D
:4010800094B900B185B938B9284B1D80284A137803F0BF03137070BD254A137843F040031370224B1D8070BD22B3002321490B70012413310C7004390B7008390B7803F036
:4010C0007F030B701A4B1B7813F0080F00D08DB9194B18800721013B1970164B1B7813F0010FFAD110490B7803F0FE030B700021104B19700C4B1B7813F0010F0DD00E4B8D
:401100001D800EB1032200E001220A4B1A70094B1B7813F0010FFAD170BD044B1D8002490B7813430B7070BDA1430040004100400241004001400040024000400000000077
:401140000230800803D000BF01380046FCD17047EFF3108072B6704780F31088704700BF014B1868704700BF4081FF1F0E4B70B51E460E4C0025E41AA410A54204D056F811
:40118000253098470135F8E700F04CF8084B094C1E46E41AA4100025A54204D056F8253098470135F8E770BD3012000030120000301200003812000010B5431E0A449142F9
:4011C00004D011F8014B03F8014FF8E710BD03460244934202D003F8011BFAE77047000000000000035B00402443004040000000305100404000C05100401000F051004082
:40120000100000000140001000140140000800400140000A004C0140000200500140200043000000F8B500BFF8BC08BC9E4670474D0000000D040000F8B500BFF8BC08BC21
:401240009E4670472900000058120000C880FF1F8000000040000000000000000000E02EC05D00001800000000366E0101FF00000000000000000000000000000000000032
:4012800000000000000000000000000000000000201200000000000000000000000000000000000000000000000000000000000000000000000000000000000000000000FC
:4012C00000000000000000000000000000000000E080FF1F000000000000000000000000000000000000000000000000000000000000000000000000000000000000000070
:4013000000000000000000000000000000000000000000000000000000000000000000000000000000000000000000000000000000000000000000000000000000000000AD
:40134000000000000000000000000000000000000000000000000000000000000000000000000000000000000000000000000000000000000000000000000000000000006D
:40138000000000000000000000000000000000000000000000000000000000000000000000000000000000000000000000000000000000000000000000000000000000002D
:4013C00000000000000000000000000000000000000000000000000000000000000000000000000000000000000000000000000000000000000000000000000000000000ED
:020000040003F7
:0200000480007A
:40000000025200400164004001650040290401400A0501401F0601401507014001090140040A0140020B0140291401400C1501401F16014013170140021B014004400140D4
:40004000024101400242014006430140024401400545014006460140044701400548014001490140024C0140054D0140045001400151014010021102860D860D405149FF3B
:400080004AFF4BFF4F0150185A045B045D095F016040624064406540668068806A806C806E80C051C9FFCAFFCBFFCD83CE03CF01D018D280DA04DB04DD99DF01E040E24069
:4000C000E440E540E680E880EA80EC80EE804202460248024C026B0174029F01B301D018D2180E01120130013E01405145EC4720482349FF4AFF4BFF4D834E034F0150189F
:400100005401560458045A045B045D995F016040624064406540668068806A806C806E8006020C021E8046024C024D044F0156025D045E805F01660182019E02A002C08036
:40014000C210D010D210D6D0D880B40138803E4058045F011802EC20405449FF4AFF4BFF4F01501852805A045B045D995F016040624064406540668068806A806C806E80F7
:40018000C054C9FFCAFFCBFFCD83CE03CF01D018DA04DB04DD09DF01E040E240E440E540E680E880EA80EC80EE804280468048024C026D80700289409A80A402D081D21894
:4001C000EC101201220130013E01405445EC4602480749FF4AFF4BFF4D834E034F0150185401560458045A045B045D995F016040624064406540668068806A806C806E8012
:400200000C0216801E8046804C024D044F0156805D045E805F0167408740C210C410D080D210D6D0D880E420EC10320833103640CC709F10A6489F10A648120883109F1049
:40024000A648C440E2207C08DE0150205F209C08D404D60445089C08A420B320D001EC04A420A508B408E80225108640A640C820E640B510A420A5088820A420B508E4044C
:40028000EC0801010B0111011B01002F0000000000000200000B0B000000000000030300030000002500180100000000000000000000000000000000000000000000000080
:4002C00000000000000000000000000000000000000000000000000000000000000000000000000000000000000000000000000000000000000000000000000000000000FE
:4003000000000000000000000000000000000000000000000000000000000000000000000000000000000000000000000000000000000000000000000000000000000000BD
:40034000000000000000000000000000000000000000000000000000000000000000000000000000000000000000000000000000000000000000000000000000000000007D
:40038000000000000000000000000000000000000000000000000000000000000000000000000000000000000000000000000000000000000000000000000000000000003D
:0200000490006A
:0400000000004005B7
:0200000490105A
:04000000BC90ACAF55
:0200000490303A
:020000003110BD
:0200000490402A
:4000000000000000000000000000000000000000000000000000000000000000000000000000000000000000000000000000000000000000000000000000000000000000C0
:400040000000000000000000000000000000000000000000000000000000000000000000000000000000000000000000000000000000000000000000000000000000000080
:400080000000000000000000000000000000000000000000000000000000000000000000000000000000000000000000000000000000000000000000000000000000000040
:4000C0000000000000000000000000000000000000000000000000000000000000000000000000000000000000000000000000000000000000000000000000000000000000
:0200000490501A
:0C00000000012E16106900012E1D417930
:00000001FF