:400000000080002011000000E9050000E905000008B5044B1A6803F53F5302331A6000F0EBFA00BFFA46004010B5054C237833B9044B13B10448AFF300800123237010BDB6
:400040005081FF1F0000000048150000084B10B51BB108490848AFF300800848036803B910BD074B002BFBD0BDE81040184700BF000000005481FF1F48150000C880FF1F38
:400080000000000010B58AB004468DF81410012308E0D11811F8010C0AA9194401F8140C0133DBB2102BF4D90023112205A9204600F0ECFC8DF8030041F2923000F092FE12
:4000C0000223012205A9204600F0E0FC9DF803301844C3B28DF80330642000F083FE0123102201A9204600F03FFD9DF803301844C3B28DF803304FF47A7000F073FE002100
:400100000CE09DF804209DF815309DF80300D31A0344DBB28DF803300131C9B20F29F0D99DF803000AB010BD70B582B00546164602AC04F8011D02230122214600F0A6FC5B
:400140000446642000F04EFE012310223146284600F00AFD2044C4B24FF47A7000F042FE204602B070BD00BF38B562B600F0E6FA00F0D0FF00F0C6FE00F04AFF01F086F917
:40018000002303E01A4AD35401339BB2FF2BF9D9002425460BE02901154A0A4401F0F0015020FFF76FFF2044C4B20135EDB20F2DF1D9002000F04CFE002511E0012000F0F4
:4001C00047FE29010B4A0A4401F0F0015020FFF7ABFF2044C4B2002000F03AFE0135EDB20F2DEBD94FF47A7000F0FCFD204638BD7C81FF1F7C82FF1FFEE700BFF0B40022F2
:40020000174611E050F82760F3B226F0FF0608E001EB420511F812406D78A5550132013BDBB2002BF4D101371F2FEBD9F0BC704710B4274B1B78DBB203F00701254A1170B2
:400240001B09013213701422234B1A70282230331A7040F604621F331A80112211331A7008231E4A137004221D490A7040200E31087002310B7001211A4801700224083082
:4002800004701024083004700230017016490A702021164A117044F2020102321180502213490A7007310A70124A1370124A134B1A60134A04331A60842214331A700B228F
:4002C00002331A704422A3F539731A7010BC7047CF0100496E5800400D510040105A0040125A0040805A00409A5A0040C85A0040CC5A0040D45A004006010501405B004009
:400300000401080108B50A46002101F014F908BD08B501F005F908BD38B500243A4B1C80502202331A70012202331A80182337490B7002310A80364A137003250232158011
:40034000023213707721023211800232137045F6BF5230490A8002310B7002310A802E4A137004222D492E48FFF7D2FF02222D4B1A7008224FF040231A7003F500731D70B0
:40038000294B1B78DBB229490B70294B1A8041F25122023B1A8019250CE0264B1B7803F0010343EA440404F003044FF4F07001F07BF8013D0DB1032CEFD115B90320FFF7C3
:4003C0001BFF1D4B4FF480721A8007221A7000221A490A704820023108701A700222033B1A7004220A331A70154A137843F07F031370013A137843F001031370013A13781C
:4004000043F08003137038BD80400040864000408A400040944000409A400040E0070048004100400043004008010049A1460040224200402542004004400040064000404F
:40044000A243004038B572B6494A137843F00403137000240CE0474863001A19510001440A46B1F84010D06BFFF74CFF0134E4B2052CF0D900240BE03E49A3001819420066
:4004800088180622416E006EFFF742FF0134E4B2002CF1D038494FF09040FFF7AFFE0A25364B1D7004213648FFF72CFF04213548FFF728FF04213448FFF724FF042133481B
:4004C000FFF720FF324A137843F0020313701032137843F0020313702E4C237843F040032370A2F58632513A137843F010031370082229492948FFF70BFF2A4628492948F2
:40050000FFF706FF082228492848FFF701FF082227492848FFF7FCFE082227492748FFF7F7FE082226492748FFF7F2FE082226492648FFF7EDFE082225492648FFF7E8FE19
:40054000254A137843F008031370244D61232B70FFF7E2FE81232B700122214B1A70FFF767FE0E2221461F48FFF7D2FE38BD00BFE84600404C15000080000048835800407D
:400580000076004008760040107600401876004003500140A04300409C07004802510040A4070048C0510040B007004812510040B807004822510040C0070048325100408C
:4005C000C807004842510040D007004852510040D807004862510040224300400048004004000840B043004008B500F06DFF03680C2B00D1FEE7FEE708B5104E104D16E085
:4006000029686B68AC68002204E051F8040B43F8040B0432A242F8D1E868002203E0002143F8041B04328242F9D11035013E002EE6D100F04FFFFFF797FDFEE7010000000C
:40064000E835000008B5114A114B1A60114A136843F40073136000230AE0032B03D80E4A52F8231000E00D490D4A42F8231001332F2BF2D90B4B1A780B4B1A70084A0B4BCE
:400680001A60FFF7DFFE00F0DFFA08BD0004FA050CED00E014ED00E000000000E90500000080FF1FBC760040C080FF1F08ED00E038B50024144B1C70012503F213131D70A7
:4006C00000F0FAFE114A137843F01003137000F0F7FE0F220E4B1A70082210331A700D4B1D600721204600F09BFB0B49204600F083FB1022094B1A70094B1C70094B1C7092
:40070000094B1C7038BD00BF74640040976500402664004080E100E0650700007C83FF1F8283FF1F8483FF1F8083FF1F024A137843F00203137070477464004008B5074B64
:400740001B7823B9FFF7B4FF0122044B1A70FFF7EDFF0122024B1A6008BD00BF6C81FF1F00E100E038B5AC4B1C78AC4B1B7813F0400F00F07B81E4B214F0010F00F04281AC
:40078000A64B1B78453B052B00F23981DFE813F006009200370137010600F90004F0DF0504F00A04082C50D19C4B1B78DBB2452B3DD19B4B1B7813F0FF0F16D0994B1B68FD
:4007C0001B78DBB2984A13700622984B1A70FF22603B1A70002240331A700122944B1A7046228E4B1A702C460CE1924B1B7813F0020F0CD0904A137843F00A0313706022BA
:40080000864B1A7001228D4B1A602C46FAE08C4A137843F0200313705222844B1A70FF22603B1A70002240331A702C46EAE002227E4B1A70FF22603B1A70002240331A7018
:400840004A22764B1A702C46DCE00A2C2DD17A4A137843F0A0031370764B1B7813F0020F13D06E4B1B7813F0080F01D0092300E00A23714A11780B4313706022674B1A7029
:4008800001226E4B1A602C46BCE06D4A137843F0200313705222654B1A70FF22603B1A70002240331A702C46ACE0002000F098FA2C46A7E014F0020F3ED15D4B1A78D2B22B
:4008C000574B1B78DBB29A4216D2594A1378DBB254490968CB5CDBB253490B700621534B1970FF21603B197000214033197013780133DBB2137085E04E4B1B7813F0020FBB
:400900000BD04D4A137843F00A0313706022434B1A700122494B1A6074E0494A137843F0200313705222414B1A70FF22603B1A70002240331A7065E03E4B1B7813F0020F7D
:400940000BD03D4A137843F09A0313706022334B1A700122394B1A6054E0394A137843F0200313705222314B1A70FF22603B1A70002240331A70304A137843F09003137044
:4009800040E0304A1378DBB22F49086826490978C9B2C15413780133DBB213701278D2B22A4B1B78DBB29A4209D202221F4B1A70FF22603B1A70002240331A7022E01D4B0D
:4009C0001B7813F0020F0BD01B4A137843F0090313706022114B1A700122184B1A6011E0174A137843F02003137012220F4B1A70FF22603B1A70002240331A7002E0002026
:400A000000F0EEF914F0200F38D0044B1B7813F0080F1DD001231CE0676500407C83FF1F8383FF1F8883FF1F04640040746400408083FF1F8183FF1F8283FF1F80E100E0BE
:400A4000876500408483FF1F8C83FF1F9083FF1F02230B4A11780B4313700A4A137803F0DF0313701022084B1A7038BD064B1B7813F0100F02D11022034B1A7038BD00BF21
:400A80008283FF1F876500407C83FF1F00294ED070B40C4629490978C9B2102906D12849097811F0100F10D1002111E023490978C9B260290BD1012522490D60224D2978AF
:400AC00001F0F7012970002102E0012100E0022181BB4526194D2E7000261C4D2E701C4D2A701C4A14601C4A1370174C227802F0FD0222704200D2B21848027013F0010F83
:400B000008D03222164B1A70FF22603B1A7040331E7008E08222124B1A70FF22603B1A70002240331A7001220E4B1A6002E0022108467047084670BC704700BF7C83FF1F72
:400B40006765004080E200E08283FF1F8083FF1F8383FF1F8883FF1F8183FF1F046400407464004000E100E0002951D070B40C462A490978C9B2102906D12949097811F0C0
:400B8000100F10D1002111E024490978C9B260290BD1012523490D60234D297801F0F7012970002102E0012100E00221002932D149261A4D2E7000261C4D2E701C4D2A70CB
:400BC0001C4A14601C4A1370174C227802F0FE0222704200D2B242F001021848027013F0010F08D03222164B1A70FF22603B1A7040331E7008E08222114B1A70FF22603B45
:400C00001A70002240331A7001220E4B1A6002E0022108467047084670BC70477C83FF1F6765004080E200E08283FF1F8483FF1F9083FF1F8C83FF1F8183FF1F04640040FF
:400C40007464004000E100E00B4A7F2313708021517007E0DA0002F1804202F5F042013BDBB21370002BF5D1DB0003F1804303F5F04300221A707047CC80FF1F172815D82D
:400C800031B103010A495A5C42F020025A5405E0030107495A5C02F0DF025A540001044A835C43F00103835400207047012070471070004017280BD80001064A835C03F0E3
:400CC000F103490001F00E011943815400207047012070471070004041F6FF73994201D14FF4005141F6FF739A4201D14FF40052172808D8C00000F1804000F5EC4081808F
:400D0000C280002070470120704700BF172805D8034B03EB0010417200207047012070471070004017281BD810B4C00000F1804404F5EC44D201D2B201F07F011143217038
:400D40009DF804201201D2B203F00F03134363709DF8083003F00F03A3700020E07001E00120704710BC704710B500F0A5FB0A4B5B78182B0BD9084A1478013B5370E30000
:400D800003F1804303F5F0431B78137000E0FF2400F096FB204610BDCC80FF1F10F0800F0CD111F4704F0BD1C00000F1804000F5F04001808270C370002070470120704723
:400DC0000120704710F0800F08D1C00000F1804000F5F0408180C280002070470120704701BE704708B5034B1B7A00FB03F000F05BFB08BDD480FF1F70B504460E46074B95
:400E00001D681F2802D90020FFF7EAFF04F01F04103455F8240045F8246070BD08ED00E038B504460D46072902D90020FFF7D8FF1F2C02D90020FFF7D3FF04F01F0000F1E9
:400E4000604000F564406D01EDB2057038BD00BF014B1870704700BF77640040054A137843F0020313701032137843F002031370704700BFA8430040054B1A7802F0FD020D
:400E80001A701A7800F0020010431870704700BF24580040014B1870704700BF815B0040064B1B78C3F3810303F19243063393F83031DBB2024A1370704700BF2458004017
:400EC0000946004008B5064B1A7802F0F3021A701A7800F00C0010431870FFF7E1FF08BD2458004010B50024054B1C7001331C702046FFF7E7FF2046FFF7BEFF10BD00BF26
:400F00002458004008B5074B1B7823B9FFF7EAFF0122044B1A70FFF7A1FF0F20FFF7BAFF08BD00BF6D81FF1F10B500F0EFF9074C01212078FFF7A2FE01216078FFF79EFECC
:400F4000002000F0FFF900F097F910BD6E81FF1F70B505460E464FF48043020C0121084600F098F9094C2070A078012302463146FFF714FF45F68332A9B2A078FFF722FFE3
:400F8000A1782078FFF7C2FE70BD00BF6E81FF1F70B505460E464FF48043020C0121084600F096F9094C6070E078012302463146FFF7F4FE45F68332A9B2E078FFF702FF28
:400FC000E1786078FFF7A2FE70BD00BF6E81FF1F10B500F0DFF9022000F0A6F9002000F0C9F9FFF7C1FE084CA070FFF7BDFEE070064C4FF47A612046FFF7AAFF642104F514
:401000007A60FFF7C5FF10BD6E81FF1FB815000008B5054B1B7923B9FFF7DAFF0122024B1A71FFF781FF08BD6E81FF1F10B500F0C9F8074C01212078FFF720FE0121607855
:40104000FFF71CFE002000F0D9F800F071F810BD7381FF1F70B505460E464FF48043020C0121084600F072F8094C2070A078012302463146FFF792FE4FF4B742A9B2A07890
:40108000FFF7A0FEA1782078FFF740FE70BD00BF7381FF1F70B505460E464FF48043020C0121084600F070F8094C6070E078012302463146FFF772FE4FF4B742A9B2E07864
:4010C000FFF780FEE1786078FFF720FE70BD00BF7381FF1F10B500F0B9F8022000F080F8002000F0A3F8FFF73FFE084CA070FFF73BFEE070064C4FF47A612046FFF7AAFF13
:40110000642104F57A60FFF7C5FF10BD7381FF1FBC25000008B5054B1B7923B9FFF7DAFF0122024B1A71FFF781FF08BD7381FF1F054A137843F0200313701032137843F096
:4011400020031370704700BFA2430040F0B583B016461F460B4D00242C700194009423460A4601462046FFF7DDFD3A4631462878FFF7B2FD02212878FFF79CFD287803B03D
:40118000F0BD00BFE480FF1FF0B583B016461F460B4C012525700023019300930A4601462846FFF7BFFD3A4631462078FFF794FD02212078FFF77EFD207803B0F0BD00BF9C
:4011C000E580FF1F054A137843F0010313701032137843F001031370704700BFA8430040054B1A7802F0FD021A701A7800F0020010431870704700BF20580040014B1870F2
:40120000704700BF805B0040064B1B78C3F3810303F19243063393F82031DBB2024A1370704700BF205800400846004008B5064B1A7802F0F3021A701A7800F00C00104317
:401240001870FFF7E1FF08BD2058004008B50020074B187001331870064A137843F008031370FFF7E3FF0220FFF7BAFF08BD00BF20580040875A0040054A137843F040032E
:4012800013701032137843F040031370704700BFA2430040F0B583B016461F460B4C022525700023019300930A4601462846FFF739FD3A4631462078FFF70EFD294620788C
:4012C000FFF7F8FC207803B0F0BD00BFE680FF1FF0B583B016461F460B4C032525700023019300930A4601462846FFF71BFD3A4631462078FFF7F0FC02212078FFF7DAFCC7
:40130000207803B0F0BD00BFE780FF1F054A137843F0080313701032137843F008031370704700BFA8430040054B1A7802F0FD021A701A7800F0020010431870704700BF75
:401340002C580040014B1870704700BF835B0040064B1B78C3F3810303F19243063393F83831DBB2024A1370704700BF2C5800400B46004008B5064B1A7802F0F3021A70F5
:401380001A7800F00C0010431870FFF7E1FF08BD2C58004008B50020074B187001331870064A137843F008031370FFF7E3FF0220FFF7BAFF08BD00BF2C5800409F5A00402C
:4013C000024A137843F080031370704773640040014B1880704700BF04680040014B1880704700BF84680040014B1880704700BF44680040014B1870704700BF83640040CC
:40140000014B1878704700BF63640040014B188880B27047A468004008B501E0FFF7F6FFFFF7EEFF10F0100FF8D108BD10B5154A137803F0C00343F0090313701F32137816
:4014400043F001031370104C237843F0010323704CF25030FFF7BCFF4CF25030FFF7BEFF3220FFF7C1FF0020FFF7C4FF00F024F8237843F01003237000F022F8FFF7CCFFE5
:4014800010BD00BF736400409364004008B5054B1B7823B9FFF7CAFF0122024B1A70FFF78FFF08BD7881FF1F0230800803D000BF01380046FCD17047EFF3108072B670471D
:4014C00080F31088704700BF014B1868704700BF4881FF1F0E4B70B51E460E4C0025E41AA410A54204D056F8253098470135F8E702F068F8084B094C1E46E41AA4100025A8
:40150000A54204D056F8253098470135F8E770BDD0350000D0350000D0350000D835000010B5431E0A44914204D011F8014B03F8014FF8E710BD03460244934202D003F878
:40154000011BFAE770470000000000003C5100400D5100403C510040445B00408002401000010001005B0040005B0040042000000C5100403D5100400C5100403D5100409C
:401580000810200400000000F0510040100000000140001000140140000800400140000A004C014000020050014020006052004094070048060000000303030303030303F2
:4015C000030303030303030303030303030303030303030303030303030303030303030303030303030303030303030303030303030303030303030303030303030303032B
:4016000003030303030303030303030303030303030303030303030303030303030303030303030303030303030303030303030303030303030404040404040404040404DF
:40164000040404040404040404040404040404040404040404040404040404040404040404040404040404040404040404040404040404040404040404040404040404046A
:40168000040404040404040404040404040404040404040404040404040404040404040404040404040404040404040404040404040404040404040404040404040404042A
:4016C00004040404040404040404040404040404040404040404040404040404040404040404040404040404040404040404040404040404040404040404040404040404EA
:401700000404040404040404040404040404040404040404040404040404040404040404040404040404040404040404040404050505050505050505050505050505050598
:401740000505050505050505050505050505050505050505050505050505050505050505050505050505050505050505050505050505050505050505050505050505050529
:4017800005050505050505050505050505050505050505050505050505050505050505050505050505050505050505050505050505050505050505050505050505050505E9
:4017C00005050505050505050505050505050505050505050505050505050505050505050505050505050505050505050505050505050505050505050505050505050505A9
:401800000505050505050505050505050505050505050505050505050505050505050505050505050505050505060606060606060606060606060606060606060606060651
:4018400006060606060606060606060606060606060606060606060606060606060606060606060606060606060606060606060606060606060606060606060606060606E8
:4018800006060606060606060606060606060606060606060606060606060606060606060606060606060606060606060606060606060606060606060606060606060606A8
:4018C0000606060606060606060606060606060606060606060606060606060606060606060606060606060606060606060606060606060606060606060606060606060668
:40190000060606060606060606060606060606060606060606060606060606060606060606060607070707070707070707070707070707070707070707070707070707070A
:4019400007070707070707070707070707070707070707070707070707070707070707070707070707070707070707070707070707070707070707070707070707070707A7
:401980000707070707070707070707070707070707070707070707070707070707070707070707070707070707070707070707070707070707070707070707070707070767
:4019C0000707070707070707070707070707070707070707070707070707070707070707070707070707070707070707070707070707070707070707070707070707070727
:401A00000707070707070707070707070707070707070707070707070707070707060606060606060606060606060606060606060606060606060606060606060606060609
:401A400006060606060606060606060606060606060606060606060606060606060606060606060606060606060606060606060606060606060606060606060606060606E6
:401A800006060606060606060606060606060606060606060606060606060606060606060606060606060606060606060606060606060606060606060606060606060606A6
:401AC0000606060606060606060606060606060606060606060606060606060606060606060606060606060606060606060606060606060606060606060606060606060666
:401B0000060606060606060606060606060606060606060606060606050505050505050505050505050505050505050505050505050505050505050505050505050505054D
:401B40000505050505050505050505050505050505050505050505050505050505050505050505050505050505050505050505050505050505050505050505050505050525
:401B800005050505050505050505050505050505050505050505050505050505050505050505050505050505050505050505050505050505050505050505050505050505E5
:401BC00005050505050505050505050505050505050505050505050505050505050505050505050505050505050505050505050505050505050505050505050505050505A5
:401C00000505050505050505050505050505050505040404040404040404040404040404040404040404040404040404040404040404040404040404040404040404040493
:401C40000404040404040404040404040404040404040404040404040404040404040404040404040404040404040404040404040404040404040404040404040404040464
:401C80000404040404040404040404040404040404040404040404040404040404040404040404040404040404040404040404040404040404040404040404040404040424
:401CC00004040404040404040404040404040404040404040404040404040404040404040404040404040404040404040404040404040404040404040404040404040404E4
:401D000004040404040404040404040403030303030303030303030303030303030303030303030303030303030303030303030303030303030303030303030303030303D7
:401D400003030303030303030303030303030303030303030303030303030303030303030303030303030303030303030303030303030303030303030303030303030303A3
:401D80000303030303030303030303030303030303030303030303030303030303030303030303030303030303030303030303030303030303030303030303030303030363
:401DC0000303030303030303030303030303030303030303030303030303030303030303030303030303030303030303030303030303030303030303030303030303030323
:401E0000030303030302020202020202020202020202020202020202020202020202020202020202020202020202020202020202020202020202020202020202020202021D
:401E400002020202020202020202020202020202020202020202020202020202020202020202020202020202020202020202020202020202020202020202020202020202E2
:401E800002020202020202020202020202020202020202020202020202020202020202020202020202020202020202020202020202020202020202020202020202020202A2
:401EC0000202020202020202020202020202020202020202020202020202020202020202020202020202020202020202020202020202020202020202020202020202020262
:401F00000101010101010101010101010101010101010101010101010101010101010101010101010101010101010101010101010101010101010101010101010101010161
:401F40000101010101010101010101010101010101010101010101010101010101010101010101010101010101010101010101010101010101010101010101010101010121
:401F800001010101010101010101010101010101010101010101010101010101010101010101010101010101010101010101010101010101010101010101010101010101E1
:401FC00001010101010101010101010101010101010101010101010101010101010101010101010101010101010101010101010101010101010101010100000000000000A8
:4020000000000000000000000000000000000000000000000000000000000000000000000000000000000000000000000000000000000000000000000000000000000000A0
:402040000000000000000000000000000000000000000000000000000000000000000000000000000000000000000000000000000000000000000000000000000000000060
:402080000000000000000000000000000000000000000000000000000000000000000000000000000000000000000000000000000000000000000000000000000000000020
:4020C00000000000000000000000000000000000000000000000000000000000000000000000000000000000000000000000000000000000000000000000000000000000E0
:40210000000000000000000000000000000000000000000000000000000000000000000000000000000000000000000000000000000000000000000000000000000000009F
:40214000000000000000000000000000000000000000000000000000000000000000000000000000000000000000000000000000000000000000000000000000000000005F
:40218000000000000000000000000000000000000000000000000000000000000000000000000000000000000000000000000000000000000000000000000000000000001F
:4021C00000000000000000000000000000000000000000000000000000000000000000000000000000000000000000000000000000000000000000000000000000000000DF
:40220000000000000000000000000000000000000000000000000000000000000000000000000000000000000000000000000000000000000000000000000000000000009E
:40224000000000000000000000000000000000000000000000000000000000000000000000000000000000000000000000000000000000000000000000000000000000005E
:40228000000000000000000000000000000000000000000000000000000000000000000000000000000000000000000000000000000000000000000000000000000000001E
:4022C00000000000000000000000000000000000000000000000000000000000000000000000000000000000010101010101010101010101010101010101010101010101C6
:40230000010101010101010101010101010101010101010101010101010101010101010101010101010101010101010101010101010101010101010101010101010101015D
:40234000010101010101010101010101010101010101010101010101010101010101010101010101010101010101010101010101010101010101010101010101010101011D
:4023800001010101010101010101010101010101010101010101010101010101010101010101010101010101010101010101010101010101010101010101010101010101DD
:4023C000010101010101010101010101010101010101010101010101010101010101010101020202020202020202020202020202020202020202020202020202020202027E
:40240000020202020202020202020202020202020202020202020202020202020202020202020202020202020202020202020202020202020202020202020202020202021C
:4024400002020202020202020202020202020202020202020202020202020202020202020202020202020202020202020202020202020202020202020202020202020202DC
:40248000020202020202020202020202020202020202020202020202020202020202020202020202020202020202020202020202020202020202020202020202020202029C
:4024C0000202020202020202020202020202020202020202020202020202020203030303030303030303030303030303030303030303030303030303030303030303030338
:4025000003030303030303030303030303030303030303030303030303030303030303030303030303030303030303030303030303030303030303030303030303030303DB
:4025400003030303030303030303030303030303030303030303030380808081828282838484848586868687888888898A8A8A8B8C8C8C8B8A8A8A89888888878686868509
:4025800084848483828282818080807F7E7E7E7D7C7C7C7B7A7A7A797878787776767675747474737474747576767677787878797A7A7A7B7C7C7C7D7E7E7E7F0000000056
:4025C00000000000000000000000000000000000000000000000000000000000000000000000000000000000000000000000000000000000000000000000000000000000DB
:40260000000000000000000000000000000000000000000000000000000000000000000000000000000000000000000000000000000000000000000000000000000000009A
:40264000000000000000000000000000000000000000000000000000000000000000000000000000000000000000000000000000000000000000000000000000000000005A
:40268000000000000000000000000000000000000000000000000000000000000000000000000000000000000000000000000000000000000000000000000000000000001A
:4026C00000000000000000000000000000000000000000000000000000000000000000000000000000000000000000000000000000000000000000000000000000000000DA
:402700000000000000000000000000000000000000000000000000000000000000000000000000000000000000000000000000000000000000000000000000000000000099
:402740000000000000000000000000000000000000000000000000000000000000000000000000000000000000000000000000000000000000000000000000000000000059
:402780000000000000000000000000000000000000000000000000000000000000000000000000000000000000000000000000000000000000000000000000000000000019
:4027C00000000000000000000000000000000000000000000000000000000000000000000000000000000000000000000000000000000000000000000000000000000000D9
:402800000000000000000000000000000000000000000000000000000000000000000000000000000000000000000000000000000000000000000000000000000000000098
:402840000000000000000000000000000000000000000000000000000000000000000000000000000000000000000000000000000000000000000000000000000000000058
:402880000000000000000000000000000000000000000000000000000000000000000000000000000000000000000000000000000000000000000000000000000000000018
:4028C00000000000000000000000000000000000000000000000000000000000000000000000000000000000000000000000000000000000000000000000000000000000D8
:402900000000000000000000000000000000000000000000000000000000000000000000000000000000000000000000000000000000000000000000000000000000000097
:402940000000000000000000000000000000000000000000000000000000000000000000000000000000000000000000000000000000000000000000000000000000000057
:402980000000000000000000000000000000000000000000000000000000000000000000000000000000000000000000000000000000000000000000000000000000000017
:4029C00000000000000000000000000000000000000000000000000000000000000000000000000000000000000000000000000000000000000000000000000000000000D7
:402A00000000000000000000000000000000000000000000000000000000000000000000000000000000000000000000000000000000000000000000000000000000000096
:402A40000000000000000000000000000000000000000000000000000000000000000000000000000000000000000000000000000000000000000000000000000000000056
:402A80000000000000000000000000000000000000000000000000000000000000000000000000000000000000000000000000000000000000000000000000000000000016
:402AC00000000000000000000000000000000000000000000000000000000000000000000000000000000000000000000000000000000000000000000000000000000000D6
:402B00000000000000000000000000000000000000000000000000000000000000000000000000000000000000000000000000000000000000000000000000000000000095
:402B40000000000000000000000000000000000000000000000000000000000000000000000000000000000000000000000000000000000000000000000000000000000055
:402B80000000000000000000000000000000000000000000000000000000000000000000000000000000000000000000000000000000000000000000000000000000000015
:402BC00000000000000000000000000000000000000000000000000000000000000000000000000000000000000000000000000000000000000000000000000000000000D5
:402C00000000000000000000000000000000000000000000000000000000000000000000000000000000000000000000000000000000000000000000000000000000000094
:402C40000000000000000000000000000000000000000000000000000000000000000000000000000000000000000000000000000000000000000000000000000000000054
:402C80000000000000000000000000000000000000000000000000000000000000000000000000000000000000000000000000000000000000000000000000000000000014
:402CC00000000000000000000000000000000000000000000000000000000000000000000000000000000000000000000000000000000000000000000000000000000000D4
:402D0000000000000000000000000000000000000000000000000000000000000000000000000000000000000000000000000000000000000000000000000000010101018F
:402D400001010101010101010101010101010101010101020202020202020202020202020202020202020202020203030303030303030303030303030303030303030303D0
:402D800003040404040404040404040404040404040404040404040505050505050505050505050505050505050505050505060606060606060606060606060606060606D9
:402DC00006060606060707070707070707070707070707070707070707070707080808080808080808080808080808080808080808080809090909090909090909090909E7
:402E0000090909090909090909090A0A0A0A0A0A0A0A0A0A0A0A0A0A0A0A0A0A0A0A0A0A0A0B0B0B0B0B0B0B0B0B0B0B0B0B0B0B0B0B0B0B0B0B0B0C0C0C0C0C0C0C0C0CF4
:402E40000C0C0C0C0C0C0C0C0C0C0C0C0C0C0D0D0D0D0D0D0D0D0D0D0D0D0D0D0D0D0D0D0D0D0D0D0D0E0E0E0E0E0E0E0E0E0E0E0E0E0E0E0E0E0E0E0E0E0E0E0F0F0F0F01
:402E80000F0F0F0F0F0F0F0F0F0F0F0F0F0F0F0F0F0F0F1010101010101010101010101010101010101010101010111111111111111111111111111111111111111111110F
:402EC0001212121212121212121212121212121212121212121212131313131313131313131313131313131313131313131314141414141414141414141414141414141417
:402F00001414141414151515151515151515151515151515151515151515151516161616161616161616161616161616161616161616161717171717171717171717171725
:402F4000171717171717171717171818181818181818181818181818181818181818181819191919191919191919191919191919191919191919191A1A1A1A1A1A1A1A1A32
:402F80001A1A1A1A1A1A1A1A1A1A1A1A1A1A1B1B1B1B1B1B1B1B1B1B1B1B1B1B1B1B1B1B1B1B1B1B1B1C1C1C1C1C1C1C1C1C1C1C1C1C1C1C1C1C1C1C1C1C1C1C1D1D1D1D40
:402FC0001D1D1D1D1D1D1D1D1D1D1D1D1D1D1D1D1D1D1D1E1E1E1E1E1E1E1E1E1E1E1E1E1E1E1E1E1E1E1E1E1E1E1F1F1F1F1F1F1F1F1F1F1F1F1F1F1F1F1F1F1F1F1F1F4E
:403000002020202020202020202020202020202020202020202020212121212121212121212121212121212121212121212122222222222222222222222222222222222255
:403040002222222222232323232323232323232323232323232323232323232324242424242424242424242424242424242424242424242525252525252525252525252564
:403080002525252525252525252526262626262626262626262626262626262626262626272727272727272727272727272727272727272727272728282828282828282871
:4030C000282828282828282828282828282829292929292929292929292929292929292929292929292A2A2A2A2A2A2A2A2A2A2A2A2A2A2A2A2A2A2A2A2A2A2A2B2B2B2B7F
:403100002B2B2B2B2B2B2B2B2B2B2B2B2B2B2B2B2B2B2B2C2C2C2C2C2C2C2C2C2C2C2C2C2C2C2C2C2C2C2C2C2C2D2D2D2D2D2D2D2D2D2D2D2D2D2D2D2D2D2D2D2D2D2D2D8B
:403140002E2E2E2E2E2E2E2E2E2E2E2E2E2E2E2E2E2E2E2E2E2E2E2F2F2F2F2F2F2F2F2F2F2F2F2F2F2F2F2F2F2F2F2F2F2F30303030303030303030303030303030303094
:4031800030303030303131313131313131313131313131313131313131313131323232323232323232323232323232323232323232323233333333333333333333333333A3
:4031C00033333333333333333334343434343434343434343434343434343434343434343535353535353535353535353535353535353535353535363636363636363636AF
:4032000036363636363636363636363636363737373737373737373737373737373737373737373737383838383838383838383838383838383838383838383839393939BD
:40324000393939393939393939393939393939393939393A3A3A3A3A3A3A3A3A3A3A3A3A3A3A3A3A3A3A3A3A3A3B3B3B3B3B3B3B3B3B3B3B3B3B3B3B3B3B3B3B3B3B3B3BCA
:403280003C3C3C3C3C3C3C3C3C3C3C3C3C3C3C3C3C3C3C3C3C3C3C3D3D3D3D3D3D3D3D3D3D3D3D3D3D3D3D3D3D3D3D3D3D3D3E3E3E3E3E3E3E3E3E3E3E3E3E3E3E3E3E3ED3
:4032C0003E3E3E3E3E3F3F3F3F3F3F3F3F3F3F3F3F3F3F3F3F3F3F3F3F3F3F3F404040404040404040404040404040404040404040404041414141414141414141414141E2
:4033000041414141414141414142424242424242424242424242424242424242424242424343434343434343434343434343434343434343434343444444444444444444ED
:4033400044444444444444444444444444444545454545454545454545454545454545454545454545464646464646464646464646464646464646464646464647474747FC
:403380004747474747474747474747474747474747474848484848484848484848484848484848484848484848494949494949494949494949494949494949494949494908
:4033C0004A4A4A4A4A4A4A4A4A4A4A4A4A4A4A4A4A4A4A4A4A4A4A4B4B4B4B4B4B4B4B4B4B4B4B4B4B4B4B4B4B4B4B4B4B4B4C4C4C4C4C4C4C4C4C4C4C4C4C4C4C4C4C4C12
:403400004C4C4C4C4C4D4D4D4D4D4D4D4D4D4D4D4D4D4D4D4D4D4D4D4D4D4D4D4E4E4E4E4E4E4E4E4E4E4E4E4E4E4E4E4E4E4E4E4E4E4F4F4F4F4F4F4F4F4F4F4F4F4F4F1F
:403440004F4F4F4F4F4F4F4F4F505050505050505050505050505050505050505050505051515151515151515151515151515151515151515151515252525252525252522C
:40348000525252525252525252525252525253535353535353535353535353535353535353535353535454545454545454545454545454545454545454545454555555553B
:4034C0005555555555555555555555555555555555555656565656565656565656565656565656565656565656575757575757575757575757575757575757575757575747
:40350000585858585858585858585858585858585858585858585859595959595959595959595959595959595959595959595A5A5A5A5A5A5A5A5A5A5A5A5A5A5A5A5A5A50
:403540005A5A5A5A5A5B5B5B5B5B5B5B5B5B5B5B5B5B5B5B5B5B5B5B5B5B5B5C80848A8F94989EA2A8ACB2B6BCC0C6CAD0D5DADEE4E8EEF2F8FCF8F2EEE8E4DEDAD4D0CA43
:40358000C6C0BCB6B2ADA8A29E98948F8A84807A76706B66615D58534E49443E39342F2A25211C17120D0803080D12171C21252A2F34393E44494E53585D61666B70767A4E
:4035C00043000000F8B500BFF8BC08BC9E4670474D00000045060000F8B500BFF8BC08BC9E46704729000000F8350000C880FF1F8800000048020000000000007F80000065
:403600000F0000000000E02EC05D00001800000000366E01FFFFFFFF0000000000000000000000000000000000000000000000000000000000000000C035000000000000A2
:403640000000000000000000000000000000000000000000000000000000000000000000000000000000000000000000000000000000000000000000E880FF1F00000000C4
:40368000000000000000000000000000000000000000000000000000000000000000000000000000000000000000000000000000000000000000000000000000000000000A
:4036C00000000000000000000000000000000000000000000000000000000000000000000000000000000000000000000000000000000000000000000000000000000000CA
:403700000000000000000000000000000000000000000000000000000000000000000000000000000000000000000000000000000000000000000000000000000000000089
:403740000000000000000000000000000000000000000000000000000000000000000000000000000000000000000000000000000000000000000000000000000000000049
:020000040003F7
:0200000480007A
:4000000006520040025A0040046400400101014067020140340301405204014045050140570601404C07014002090140040A0140030B0140010F0140501401404D150140A8
:400040004F16014043170140011901400F4001400B4101400C4201400A43014008440140044501400646014008470140094801400E490140064C014005500140025101408F
:4000800009401101201421183004310487019F012404260F3608830DE0800102040105040802091C0A040B020D1F10011101131E1402150A1604171019011D121F08210674
:4000C0002502271829182B063201331F3607388839083E444050410649FF4AFF4BFF4DA04F045018580459045A045B045C305D045F01604062C06440654066C068C06AC043
:400100006CC06EC0840287048908930495089B019D089E01A508A603A908AF02B002B102B304B401B501B708B980BF44C040C106C5D1C702C813C9FFCAFFCBFFCDAFCE0FC0
:40014000CF04D018D280D405D804D904DA04DB04DC44DD44DF01E040E2C0E440E540E6C0E8C0EAC0ECC0EEC00008041005040A020F90102019101A801C021D082048220510
:40018000230127202AA02B202D022E202F24302032013344376638083B103E023F544040482049014A084E095004520859015A885E806F01728083208701A240AE40C064D6
:4001C000C231C404CAEECCFFCEF6D001D234D61B000204020802140218021C0422082601281030083207361038083E0440354401450B46DD470D481D49FF4A7F4BFF4C4242
:400200004DA04E70500C52F658045A045B045C035D335F0161096240630964306509800381FF84038501880889058A028B788C018D228F05900291039209940F9508970761
:40024000993A9A149B049C1F9D109F07A010A103A20BA501A601A801A901ADC0AE0BAF07B21FB37FB780B980BF04D804D904DB04DC33DF0100040364040805020601070486
:4002800009200B1A0D200E410F1010A815061608174018821A031B081C101E201F04260827022E282F413502361037443E453F10438848014B044C014F4050245114534014
:4002C000680869046A046D407002722A7308808083108D4093019410975C9D069E029F46A001A108A760A910C0FEC2F7C4FECAF0CCF0CEF0D00AD208E002E240EC0400109B
:400300000410080F0E0F100F16021A081E0F201026042A012E083010320F38023E04403445504602480649FF4AFF4BFF4C424DA04E705008511058045A045B045C035D03F3
:400340005F0161486240634864806548668067488002812084A58525864A870A884D89018A928B028D068EB58F2090CC912F9213941A9660974098A999019A549B049CFFDE
:400380009D219F02A204A380A404A710A920AA02AB02AD08AE01AF05B2FFB360B51FB780BE04D804D904DB04DC30DF0100840122030404A20504060108110A020B180D01AD
:4003C0000E620F0410421110130814011680176419081C801D041E401F0320042280233429282A012B022C402E02301032093340380439203A423D103E20450847014C80FB
:40040000568057405C806A806D80808090829128920293099404950297129A229B089D069F54A022A108A218A308A7C0AA21B404B640C0FFC2FFC4FFCA0FCC0FCE0FD0C0C0
:40044000D610E001B502E001B802BE01D804DF011D02E002EC04E080000301070320050706030708080109160A060E200F011210150416031738180319161D101F0622036B
:40048000251026032704280229142A092B022C012E0430203207333C3410360837033A083B08580459045C335F01803F8301862088408A148C808D088F30910893109450DD
:4004C0009602970398409A089B019C0FA004A208A302A640A704A850AA01AB01AC40AE18B0C0B320B507B63FB718B882BB20BE01D804D904DC33DF0101A802100348040239
:4005000005040706080809100A400C800E200F041018110112011408151B176019801A441B881E021F0221482240242025102716280429082D102E022F20301031083340F4
:40054000341436113704380239903A073D013F80430366106704834084088E019002910A9304942096C499049A049B609D209F15A080A210A320A508A601A780AC02AD0483
:40058000B001B108C0FFC2EEC4FFCAE6CCEECE9FE21000E20401052A07540840090E0A1D0B300D800E020F56100D145D154016A21713180419331AE01B0C1D461E081FA903
:4005C00022FF24012701283D2AC22C922DFF2E6031FF34FF3E10580459045C305F01810182028308860D880289078E0D900491019209930E940495039618970498099A047B
:400600009C069D069E109F01A20DA502A705A907B002B10FB21CB30FB401BA08BB0ABE10D420D604D804D904DB04DC33DD30DF010102020503180402062207040A660B022C
:400640000C160E200F06128015021768180419021A201B011F2021022204274028142C202F01310233443610374438023B103C803F14580159205A88608463018880900224
:40068000910A92029315942099049A239B289D029F55A0E0A290A308A601A780AD40AE40AF10B640C0FFC2FFC4F8CA56CC7BCE75D60FD80DE220E8100220074030103C11A4
:4006C0005301544067047C107E808A80C030CC10CEA0D4C0D88081088704940197069B409C10A440A680AE20E2C0EC40510887018F01940197029B409C10A108A440A680A1
:40070000D420E0408001834094019B409C109F01A440A680E080E480338055017C018B80CC08D604DE01E00153019401A501D401450885089401A501AB01D001302068200A
:400740006B208320A501B401CC08EC082701881094019C109F01A680AC40C820EA4010801610228024017C80808086108C809401A680C430C830DE20E0606320A310B50177
:40078000B710D802E808001808180A0810081A080003102201020000030000000000000000003C00030000030000030000000000004B4B00400000000001010001000000CB
:4007C0000000000000003C00031C1C001C0000000000000000000A000004040004001100250018010000000000000000000000000000000000000000000000000000000001
:4008000000000000000000000000000000000000000000000000000000000000000000000000000000000000000000000000000000000000000000000000000000000000B8
:400840000000000000000000000000000000000000000000000000000000000000000000000000000000000000000000000000000000000000000000000000000000000078
:400880000000000000000000000000000000000000000000000000000000000000000000000000000000000000000000000000000000000000000000000000000000000038
:4008C00000000000000000000000000000000000000000000000000000000000000000000000000000000000000000000000000000000000000000000000000000000000F8
:0200000490006A
:0400000000004005B7
:0200000490105A
:04000000BC90ACAF55
:0200000490303A
:020000002A7F55
:0200000490402A
:4000000000000000000000000000000000000000000000000000000000000000000000000000000000000000000000000000000000000000000000000000000000000000C0
:400040000000000000000000000000000000000000000000000000000000000000000000000000000000000000000000000000000000000000000000000000000000000080
:400080000000000000000000000000000000000000000000000000000000000000000000000000000000000000000000000000000000000000000000000000000000000040
:4000C0000000000000000000000000000000000000000000000000000000000000000000000000000000000000000000000000000000000000000000000000000000000000
:0200000490501A
:0C00000000012E12306900012E1E5AE88B
:00000001FF