:4000000000800020110000007D0500007D05000008B5044B1A6803F53F5302331A6000F0B5FA00BFFA46004010B5054C237833B9044B13B10448AFF300800123237010BDC4
:400040003881FF1F00000000C00B0000084B10B51BB108490848AFF300800848036803B910BD074B002BFBD0BDE81040184700BF000000003C81FF1FC00B0000C880FF1F8C
:400080000000000038B5012000F090FB0D4C25786B1C237000F022FB0B4B585563782BB9094B187800F0B8FB0122627000F09EFB044B987000F08EFB044B1870002000F01C
:4000C00075FB38BD5481FF1FA481FF1F2A82FF1F08B5114BDB78C3B9104A1078104B187052785A70002307E09A1C0C49895C0C4A1A4491700133DBB2821E9342F4DB064B55
:4001000000225A700121D9701A7000F063FB002000F04CFB08BD00BF5481FF1FA481FF1F2C82FF1F08B5002000F0A0FC0122024B1A7000F011FC08BDCC80FF1F10B500203F
:4001400000F094FC002000F0F3FA002000F094FC002000F0A7FB00F0A5FA00F0D5FC002000F09CFC00F090FB00F026FB012000F02BFB00F037FC00F0E7FB012000F0E6FB0E
:4001800000F0F8FA514800F003FB00F0E7FA00F0ABFB4F4800F0B6FB00F09AFB00F04AFC4C4800F055FC00F039FC62B64A4BDB78002BFBD0494A53784948437049494B709D
:4001C000127802700A70032B79D8DFE803F00E263E5F424919448878414919448870991C404C60540133DBB200E00023911E8B42EFDB0022384BDA70384B987800F036FC15
:400200005DE0364919448878354919448870991C344C60540133DBB200E00023911E8B42EFDB00222C4BDA702C4B987800F086FB45E02A4919448878294919448870991C93
:40024000284C60540133DBB200E00023911E8B42EFDB0022204BDA70204948790B79CA78120242EA034343EA00638878184300F015FC24E019491944887819491944887099
:40028000991C184C60540133DBB200E00023911E8B42EFDB0024104BDC70104948790B79CA78120242EA034343EA00638878184300F06AFB012000F0D9FB0B4B1C70084BDC
:4002C0001978084800F020FA70E700BF85000000D1000000250100005481FF1F2C82FF1FE881FF1F6081FF1FCC80FF1FFEE700BFF0B40022174611E050F82760F3B226F090
:40030000FF0608E001EB420511F812406D78A5550132013BDBB2002BF4D10137232FEBD9F0BC7047064B1B78DBB203F00701054A11701B09013213704422034B1A707047BB
:40034000CF0100496E5800407658004008B50A46002100F02CFC08BD38B500242C4B1C80582202331A70012202331A80182329490B7002310A80284A13701721023211801F
:4003800002321370192502321580023213700222224B1A7008224FF040231A70032103F5007319701E4B1B78DBB21E490B701E4B1A8041F25122023B1A800CE01B4B1B786F
:4003C00003F0010343EA440404F003044FF4F07000F0A6FB013D0DB1032CEFD115B90320FFF784FF124B4FF480721A8007221A70002210490A704820023108701A70022278
:40040000033B1A700C4A137843F01F03137038BD80400040864000408A4000400043004008010049A146004022420040254200400440004006400040A243004008B500F013
:40044000ABFB08BD38B572B6394A137843F00403137000240CE0374D630019194A0011462A44084691882858FFF770FF0134E4B2072CF0D900240BE02E48A20011194B004A
:4004800003441A8F596B186BFFF7D8FF0134E4B2012CF1D928494FF09040FFF729FF274A274B1A6002F1004203F558631A60254A137843F0020313701032137843F002035F
:4004C0001370214C237843F040032370A2F58632513A137843F01003137008221B491C48FFF7ACFF0A221B491B48FFF7A7FF08221A491B48FFF7A2FF08221A491A48FFF7AC
:400500009DFF1A4A137843F008031370184D61232B70FFF721FF81232B700122154B1A70FFF700FF0E2221461348FFF787FF38BDE8460040C40B000090000048040484840C
:40054000D806014003500140A0430040CC09004802510040D4090048C0510040E009004812510040E809004822510040224300400048004004000840B043004008B500F066
:40058000DFFA03680C2B00D1FEE7FEE708B5104E104D16E029686B68AC68002204E051F8040B43F8040B0432A242F8D1E868002203E0002143F8041B04328242F9D11035DB
:4005C000013E002EE6D100F0C1FAFFF7B7FDFEE701000000300C000008B5104A104B1A60104A136843F40073136000230AE0032B03D80D4A52F8231000E00C490C4A42F8D3
:40060000231001332F2BF2D90A4B1A780A4B1A70074A0A4B1A60FFF715FF08BD0004FA050CED00E014ED00E0000000007D0500000080FF1FBC760040C080FF1F08ED00E0F7
:400640007222084B1A70202203F201131A700622663B1A70472210331A700022AD3B1A70704700BF8964004010B500F061FA04460B4A137843F02003137002F201121378CF
:4006800043F010031370A2F20312137843F01003137000F045F9204600F04EFA10BD00BF9964004008B5054B1B7823B9FFF7C8FF0122024B1A70FFF7D7FF08BD5881FF1F24
:4006C000014B1878704700BF4A650040024B187800F07F00704700BF6A65004010B5FFF7F5FF0402FFF7ECFF204380B210BD00BF034B1B7813F0040FFAD1024B18707047E3
:400700006764004047640040084B1B7833B97047305DFFF7EDFF0134E4B203E070B50D4606460024AC42F3D370BD00BF5881FF1F014B1870704700BF7B650040704700BFBE
:40074000014B1B681864704708ED00E04001C0B2014B1870704700BF00E400E00122014B1A60704700E100E00122014B1A60704780E100E008B5FFF7F7FF0448FFF7E0FFD5
:400780000720FFF7E3FFFFF7E9FF08BD3D07000010B50446FFF7E8FF2046FFF7D1FF0720FFF7D4FFFFF7DAFF10BD00BF014B1870704700BF7A640040024A137843F08003FB
:4007C0001370704778640040014B1870704700BF8B650040014B1878704700BF6B650040014B1870704700BF08650040024B1B78024B1878704700BF086500404865004003
:40080000014B1878704700BF48650040014B1870704700BF28650040014B1870704700BF3865004008B501E0FFF7EAFFFFF7D2FF10F0400FF8D108BD08B5114B1A7802F07D
:40084000F8021A701A7802F0FC021A70FFF7EAFFFE20FFF7DBFF0020FFF7C2FF0120FFF7B3FFFFF7B7FF8020FFF7D6FF00F060F9044A137843F01003137000F05DF908BD6E
:40088000786400409B65004008B5054B1B7823B9FFF7D2FF0122024B1A70FFF78DFF08BD5A81FF1F014B1870704700BF78650040704700BF014B1B685864704708ED00E06B
:4008C0004001C0B2014B1870704700BF01E400E00222014B1A60704700E100E00222014B1A60704780E100E008B5FFF7F7FF0448FFF7E0FF0720FFF7E3FFFFF7E9FF08BD86
:40090000B108000010B50446FFF7E8FF2046FFF7D1FF0720FFF7D4FFFFF7DAFF10BD00BF054A137843F0100313701032137843F010031370704700BFA2430040014B1870F3
:40094000704700BF7D640040704700BF014B1870704700BF8F640040014B1878704700BF6F640040014B1860704700BF0C640040014B1868704700BF4C640040014B1860A8
:40098000704700BF2C640040014B1860704700BF3C64004008B501E0FFF7EAFFFFF7DCFF10F0400FF8D108BD08B5FFF7F3FF6FF00100FFF7E3FF0020FFF7D4FF0120FFF7CF
:4009C000C5FFFFF7C9FF8020FFF7DEFF00F0B0F8034A137843F01003137000F0ADF808BD9F64004008B5044B1B7823B9FFF7DCFF0122014B1A7008BD5B81FF1F704700BFB2
:400A0000014B1B68D864704708ED00E04001C0B2014B1870704700BF03E400E00822014B1A60704700E100E00822014B1A60704780E100E008B5FFF7F7FF0448FFF7E0FF41
:400A40000720FFF7E3FFFFF7E9FF08BDFD09000010B50446FFF7E8FF2046FFF7D1FF0720FFF7D4FFFFF7DAFF10BD00BF014B1870704700BF7C640040014B1870704700BFB7
:400A80007F640040014B1870704700BF8B640040014B1878704700BF6B640040014B1860704700BF28640040014B1868704700BF48640040014B1860704700BF086400401F
:400AC00008B501E0FFF7F0FFFFF7E2FF10F0080FF8D108BD08B54FF0FF30FFF7DFFF4FF0FF30FFF7E7FF00F023F8064A137843F01003137000F020F8FFF7E2FF0020FFF70A
:400B0000C1FF08BD9B64004008B5044B1B7823B9FFF7E0FF0122014B1A7008BD5C81FF1F0230800803D000BF01380046FCD17047EFF3108072B6704780F31088704700BFC7
:400B4000014B1868704700BF3081FF1F0E4B70B51E460E4C0025E41AA410A54204D056F8253098470135F8E700F050F8084B094C1E46E41AA4100025A54204D056F8253086
:400B800098470135F8E770BD180C0000180C0000180C0000200C000010B5431E0A44914204D011F8014B03F8014FF8E710BD03460244934202D003F8011BFAE77047000030
:400BC00000000000305100404000F0510040100000000140800800090140000700140140000800400140000A004C014000020050014020006052004044090048060080080C
:400C000001404C090048800043000000F8B500BFF8BC08BC9E4670474D000000D9050000F8B500BFF8BC08BC9E46704729000000400C0000C880FF1F700000003801000066
:400C400000000000010000000000000000000000000000000000000000000000000000000000000000000000080C000000000000000000000000000000000000000000005F
:400C800000000000000000000000000000000000000000000000000000000000000000000000000000000000D080FF1F0000000000000000000000000000000000000000C6
:400CC00000000000000000000000000000000000000000000000000000000000000000000000000000000000000000000000000000000000000000000000000000000000F4
:400D000000000000000000000000000000000000000000000000000000000000000000000000000000000000000000000000000000000000000000000000000000000000B3
:400D40000000000000000000000000000000000000000000000000000000000000000000000000000000000000000000000000000000000000000000000000000000000073
:400D80000000000000000000000000000000000000000000000000000000000000000000000000000000000000000000000000000000000000000000000000000000000033
:020000040003F7
:0200000480007A
:400000000252004006640040056500400101014002050140410601402E0701401708014034090140400A0140250B01403A0C01401C0D01404E0E0140290F01404B140140CE
:400040003D1501404516014033170140521801403F1901404A1A0140461B014007400140054101400542014002430140054501400346014002470140044801400B4901405D
:40008000014C0140074D014007500140015101400140110176017F01870F89728B0D8F6778017B01862D8A388B67E208E640EA100D011D013101390259045B045F018112DB
:4000C00083208406853E860888248A108B068C068D218E388F189001940696109701984099289C069D209E10A220A301A519A722A938AA12AB05B03EB201B33EB440B70177
:40010000BA02BE14BF40C046C103C5CBC60EC807C9FFCAFFCBFFCEF0CF44D00CD401D804D904DA04DB04DC44DD44DF0DE6C0EA40EB02004001040308080109080A080B81F0
:4001400010081101184019041B20201022442780282029012B0830A837803850390B3D8040604108482849014B015340580159045A805B106D80790C8F20C007C20FC40AA7
:40018000CA07CC1ECE1FD003D204D60FDE0238023E01404549FF4AFF4BFF4F015018528058045A045B045D135F016040624064406540668068806A806C806E800020010897
:4001C000030208800AA00B0810A011401208190C1D0221402274280629042A022C042D1030223248384039453A204301470149804D804F805A086802691470A472227640B7
:400200007B02904095019B019D01A340A502C007C20FC40FCA0FCC0FCE0FD081D218D602DE08E04001010F013101404149FF4AFF4BFF4D834E034F01501859045A045B046F
:400240005C405D035F016040624064406540668068806A806C806E808E018F01930196029E01A002B101B202B601BE40C045C5ECC602C807C9FFCAFFCBFFCD83CE03CF01C5
:40028000D018D401D804D904DA04DB04DC34DD33DF01E040E240E440E540E680E880EA80EC80EE8007010C800E1015011E101F40204027403701384039013F80438147019D
:4002C0004BC04D044F81548057C05D045F4169808D419B019F40A502B740C080C2A0C410CC80CE19D089D210D6D0E640EA100F0112012C01310134013E104053410449FF47
:400300004AFF4BFF4DA04F015018580459045A045B045C205D025F016040628064406540668068406A506BA86C406D206E506FA8C052C104C9FFCAFFCBFFCDAFCE07CF014D
:40034000D018DA04DB04DD02DF01E040E280E440E540E680E840EA50EBA8EC40ED20EE50EFA80F8017801E0427803F80400441024502470849404E0168016E406F01880132
:4003800090049202964499409B089F40A340A502C210C480CE10D0C5D2180201120118011F01350136013E404052410449FF4AFF4BFF4DAF4E074F015018580459045A04D7
:4003C0005C205D025F016040628064406540668068406A506BA86C406D206E506FA891019C01A101AE03B001B501B602B920BE01BF10C053C104C50CC620C74EC83DC9FF15
:40040000CAFFCBFFCDAFCE07CF01D018D407D604D804D904DA04DB04DC02DD22DF05E040E280E440E540E680E840EA50EBA8EC40ED20EE50EFA8034009200A400E02160222
:4004400019401A021E821F802120240427082F80334037014004410242304502470849404E014F04562A57405E94660867846F037F028740C008C28AC480CA80CC88D0C575
:40048000D218D670D8E0DE100501060107020C060F0513091404170418061B0E1C011F0829092A022B0432013406350F38203B203E104002460449FF4A074BFF4C404D20A9
:4004C0004EF04F055008580459045A045B045C445D045F09604061A862406320800189038F0290019F01A202B001B103B602B802C010C106C9FFCAFFCBFFCDA0CF04D01801
:40050000D280D804D904DA04DB04DF01E040E2C0E440E540E6C0E8C0EAC0ECC0EEC0004001080680082009200A110E8010081640180419081DC01E801F80212027402B084D
:400540003088312032023740384039083D803E803F20400445804F205088698076407908850486018D4090409210950896019C209D409E80A140A202A318A488A580A780D2
:40058000AF40C015C217C412CA04CC1FCE3AD014D220DE02E208E61800180201030A07050A080E04100216041E10230C24182D0F3018310C32013404350336023E504010D2
:4005C000410645D046204710483A49FF4AFF4BFF4DAF4E0F4F04501854255604580459045A045B045F01604062C06440654066C068C06AC06CC06EC08401860E8C028D01B6
:400600008E05940C950296139C1FA208A501A810AB01AE0CB103B21FB902D804D904DC44DF0100400108054006880A110F621088120217081A101B081E881F442101220216
:400640002788282029082B082E802F80300838403E083F0245804F21560857115E885F01674883809040950A9C20A140A488A708A901AB10C0D5C2B5C42BCA96CC02CEC88D
:40068000D010D220D6D0D8A00203030110011E042201240430023404350136013E5040124104450C4640472E483B49FF4AFF4BFF4DA04F015018580459045A045B045C1195
:4006C0005D015F016040628064406540668068406A506BA86C406D206E506FA8803E8103840E85188631882089088C308F03911B9232940C95029633980C991B9C109D1038
:40070000A008A101A404A518A703A833A903AA0CAB1CAC3FAD03AF04B030B31FB40EB601B880BB08D804D904DC44DF01010902010308050108800AA00B080E800F0210A17C
:40074000114012181640170819021A091D801E8822082708288029182B02308132103308380839823A113B083F024582471049104A084F065501560857106F01904891D4BB
:4007800092A09501970899089A409C809D01A0A0A102A410A608A702B402B620C01FC29FC43FCA0FCC0FCE8FD0B00108033205F809F81A021DA01E011F4C2150238D260267
:4007C0002DF92E013002313833013401350637C03E113F104061410442034402450C47E0482149FF4AFF4BFF4C624DA04EF04F41500C54185604580459045A045B045C4006
:400800005D445F0D6640670269106A306B106D106E106F128B029101920296019D01A001B002B301B601B702B908BE40BF04D407D604D804D904DB04DC14DD10DF0508207B
:400840000A090E400F201022170218041B011D401F02202021912680271228802B0231803682370139163F204060415048204A08500259C25DA05E08600461016302644068
:40088000660867046E407B027E028180830884408501870288809040919492099304950399229A089B019C809D019F10A20CA310A410A70AB521C233C415CA09CC98CE2796
:4008C000D00FD204D671D8EDDE1831203302368037088708CCF0E2106010A520A680A702D8408D20A520A680A702B410A680A702500858408840D405E0018C08A408E408FB
:400900008D02E0028320A680A702E2807008772086808C089B20A680AF02DC80DE20E610EA1099021010750288109902C408DE04E204001F0A110C1A0E0410131A111C1206
:4009400000FF00008880000040000000000600080E013000000602000F361000000121000E3001060C02000002000010080400000426001023010C002F26001800003F20BD
:40098000001E00010000082000000004450000000000000000FFFFFF00830301180000000000021204040404444308014000400040408000800080008000800000000000D7
:4009C00000000000000000000000000000404000400000008000408A8A008A0000000000000B0B0000000000000303000300000000000000000000000000000000000000BA
:400A000000000000000000000000000000000000000000000000000000000000000000000000000000000000000000000000000000000000000000000000000000000000B6
:400A40000000000000000000000000000000000000000000000000000000000000000000000000000000000000000000000000000000000000000000000000000000000076
:400A80000000000000000000000000000000000000000000000000000000000000000000000000000000000000000000000000000000000000000000000000000000000036
:400AC00000000000000000000000000000000000000000000000000000000000000000000000000000000000000000000000000000000000000000000000000000000000F6
:0200000490006A
:0400000000004005B7
:0200000490105A
:04000000BC90ACAF55
:0200000490303A
:02000000A8CB8B
:0200000490402A
:4000000000000000000000000000000000000000000000000000000000000000000000000000000000000000000000000000000000000000000000000000000000000000C0
:400040000000000000000000000000000000000000000000000000000000000000000000000000000000000000000000000000000000000000000000000000000000000080
:400080000000000000000000000000000000000000000000000000000000000000000000000000000000000000000000000000000000000000000000000000000000000040
:4000C0000000000000000000000000000000000000000000000000000000000000000000000000000000000000000000000000000000000000000000000000000000000000
:0200000490501A
:0C00000000012E16106900012E1DB934FD
:00000001FF