:400000000080002011000000F1050000F105000008B5044B1A6803F53F5302331A6000F0EFFA00BFFA46004010B5054C237833B9044B13B10448AFF300800123237010BDA2
:400040005081FF1F0000000028190000084B10B51BB108490848AFF300800848036803B910BD074B002BFBD0BDE81040184700BF000000005481FF1F28190000C880FF1F70
:400080000000000038B5012001F036FB0D4C25786B1C237001F0C8FA0B4B585563782BB9094B187801F05EFB0122627001F044FB044B987001F034FB044B1870002001F0D9
:4000C0001BFB38BD6C81FF1FD881FF1F5E82FF1F08B5114BDB78C3B9104A1078104B187052785A70002307E09A1C0C49895C0C4A1A4491700133DBB2821E9342F4DB064B2F
:4001000000225A700121D9701A7001F009FB002001F0F2FA08BD00BF6C81FF1FD881FF1F6082FF1F10B5002000F07EFE0028FAD1114B1B783BB1114B1C7900F08DFE104B00
:4001400023F8140006E00D4B1C7900F085FE0D4B23F81400094A1379013303F01F0313713BB9054A137883F0010313700122034B5A7101F08BF910BDCC80FF1F6C81FF1F1C
:40018000E482FF1FA482FF1F08B5002001F076FA002001F02DFB01F02BFA00F0FFFA00F027FE01F0AFF901F0D7F9404801F0E2F901F05EF900F0C4FF01F00CFB01F0A2FABE
:4001C000012001F0A7FA01F07BFA394801F086FA01F06AFA01F02EFB364801F039FB01F01DFB62B600F018FE334BDB78002BFBD0324A53783248437032494B70127802704E
:400200000A70012B1DD013B1022B32D048E000212D4B19700BE0981C284919448C78284901448C7027490C54013327490B70264B1B789A42EFD800221F4BDA7001F062F913
:400240002EE00021204B19700BE0981C1B4919448C781B4901448C701A490C5401331A490B70194B1B789A42EFD80022124BDA7016E00021144B19700BE0981C0F491944C7
:400280008C780F4901448C700E490C5401330E490B700D4B1B789A42EFD80022064BDA700848017801F0D6F99EE700BF2501000085000000D10000006C81FF1F6082FF1F45
:4002C0001C82FF1F9481FF1F5F82FF1FFEE700BFF0B40022174611E050F82760F3B226F0FF0608E001EB420511F812406D78A5550132013BDBB2002BF4D101371E2FEBD93F
:40030000F0BC70470D4B1B78DBB203F007010C4A11701B09013213700123A2F232721370C0321370102302F69B02137068321370583213704422034B1A707047CF0100495F
:400340006E5800407658004008B50A46002101F0E2FA08BD08B501F0D3FA08BD38B50024314B1C80502202331A70192502331D8018232E4A1370EF2102321180023213703D
:4003800004222B492B48FFF7E5FF02222A4B1A7008224FF040231A70032103F500731970264B1B78DBB226490B70264B1A8041F25122023B1A800CE0234B1B7803F00103DE
:4003C00043EA440404F003044FF4F07001F05CFA013D0DB1032CEFD115B90320FFF776FF1A4B4FF480721A8007221A70002218490A704820023108701A700222033B1A70EF
:4004000004220A331A70134A137843F007031370013A137843F001031370013A137843F08003137038BD00BF8040004086400040A4070048004100400043004008010049A5
:40044000A146004022420040254200400440004006400040A2430040012807D8044B53F820201844017A13780B431370704700BF2C190000012808D8044B53F820201844CC
:40048000017A137823EA0103137070472C19000038B572B63E4A137843F00403137000240BE03C4863001A19510001440A46098AD068FFF749FF0134E4B2062CF1D90024BE
:4004C0000BE03449A3001819420088180622C16B806BFFF73FFF0134E4B2002CF1D02E494FF09040FFF7F4FE0A252C4B1D7004212B48FFF729FF04212A48FFF725FF2A4A37
:400500002A4B1A602A4A137843F0020313701032137843F002031370264C237843F040032370A2F58632513A137843F0100313702A4621492148FFF70DFF08222049214805
:40054000FFF708FF082220492048FFF703FF08221F492048FFF7FEFE08221F491F48FFF7F9FE1F4A137843F0080313701D4D61232B70FFF7F3FE81232B7001221A4B1A7043
:40058000FFF7C0FE0E2221461848FFF7E3FE38BDE84600402C1900007C000048835800400076004008760040040004C4580A014003500140A043004078070048C051004080
:4005C00084070048F25100408C0700481251004094070048225100409C07004832510040224300400048004004000840B043004008B501F059F903680C2B00D1FEE7FEE7FA
:4006000008B5104E104D16E029686B68AC68002204E051F8040B43F8040B0432A242F8D1E868002203E0002143F8041B04328242F9D11035013E002EE6D101F03BF9FFF731
:40064000A3FDFEE701000000601A000008B5114A114B1A60114A136843F40073136000230AE0032B03D80E4A52F8231000E00D490D4A42F8231001332F2BF2D90B4B1A7873
:400680000B4B1A70084A0B4B1A60FFF701FF00F0E3FD08BD0004FA050CED00E014ED00E000000000F10500000080FF1FBC760040C080FF1F08ED00E010B500F047FC074C6C
:4006C0000121207800F0E2FD0121607800F0DEFD002000F057FC00F0EFFB10BD7281FF1F70B505460E464FF48043020C0121084600F0F0FB094C2070A0780123024631468E
:4007000000F054FE45F68332A9B2A07800F062FEA178207800F002FE70BD00BF7281FF1F70B505460E464FF48043020C0121084600F0EEFB094C6070E078012302463146A5
:4007400000F034FE45F68332A9B2E07800F042FEE178607800F0E2FD70BD00BF7281FF1F10B500F037FC022000F0FEFB002000F021FC00F001FE074CA07000F0FDFDE070DB
:40078000054C64212046FFF7ABFF64216018FFF7C7FF10BD7281FF1F7019000008B5054B1B7923B9FFF7DCFF0122024B1A71FFF783FF08BD7281FF1F38B59DF81040651E51
:4007C000EDB2032D51D8013809282ED8DFE800F0052D2D052D2D0F192D230F2B03D92548007840B222E02448007840B21EE00F2B03D92248007840B218E02148007840B22C
:4008000014E00F2B03D91F48007840B20EE01E48007840B20AE00F2B03D91C48007840B204E01B48007840B200E0002001EB401101FB02F2D20B91B20D2B0BD8C3F10E0175
:4008400092B20A4191B2621E124800EB82020133937005E0631E0F4A02EB83030F229A70013C0C4B23F8241038BD002000F0C0FD38BD00BF180100491C0100491901004935
:400880001D0100491A0100491E0100491B0100491F0100497881FF1FF8B5074600F0FCFF06460D4D2B7843F003032B700B4C237843F0030323700A4B1F70032000F09AFDD2
:4008C0002B7803F0FC032B70237803F0FC032370304600F0E5FFF8BDF8460040F946004092580040F8B504460022C14B1A7401285DD13822BF4B1A70042202331A7006227D
:4009000001331A70002501331D7001331D703F2201331A7002331D7001331D7001331D7001260A331E70502203F527631A70272201331A702C2201331A7001331D70552234
:4009400003331A705A2201331A70052701331F7002331E70112201331A70192201331A70972201331A704420FFF796FF5822A24B1A7001331D7005331F70022201331A7020
:4009800001331D7001331D70284600F049FB4FF47A429A4B1A603146384600F065FB3146252000F0EDFB96491D2000F02DFD022C5DD138228F4B1A70042202331A7006227F
:4009C00001331A70002501331D7001331D703F2201331A7002331D7001331D7001331D7001260A331E70502203F527631A70272201331A702C2201331A7001331D70552274
:400A000003331A705A2201331A70052701331F7002331E70112201331A70192201331A70972201331A704420FFF736FF5822724B1A7001331D7005331F70022201331A70EF
:400A400001331D7001331D70284600F0E9FA4FF47A426A4B1A603146384600F005FB3146252000F08DFB67491D2000F0CDFC032C5DD138225F4B1A70042202331A700622CE
:400A800001331A70002501331D7001331D703F2201331A7002331D7001331D7001331D7001260A331E70502203F527631A70272201331A702C2201331A7001331D705522B3
:400AC00003331A705A2201331A70052701331F7002331E70112201331A70192201331A70972201331A704420FFF7D6FE5822424B1A7001331D7005331F70022201331A70C0
:400B000001331D7001331D70284600F089FA4FF47A423A4B1A603146384600F0A5FA3146252000F02DFB38491D2000F06DFC042C5DD138222F4B1A70042202331A7006221C
:400B400001331A70002401331C7001331C703F2201331A7002331C7001331C7001331C7001250A331D70502203F527631A70272201331A702C2201331A7001331C705522FB
:400B800003331A705A2201331A70052601331E7002331D70112201331A70192201331A70972201331A704420FFF776FE5822124B1A7001331C7005331E70022201331A7094
:400BC00001331C7001331C70204600F029FA4FF47A420A4B1A602946304600F045FA2946252000F0CDFA09491D2000F00DFCF8BD7881FF1F004E0040945800402483FF1FDC
:400C0000A90E0000AD0E0000B10E0000B50E00002DE9F04182B0394D4FF0010885F80080374E00247474102000F00CFA102000F095FA07211D2000F0FBFB0427314B1F7095
:400C400001331C7007331C702F4A137843F0180313702E4B1C7003F2F5231C7001331C700A22A3F209331A7001331C7002331C705B2205331A705E2201331A7004331C7073
:400C80001422A3F68C231A70CDF8008010234FF4004249F2DA012046FFF78EFD0223009310234FF4004249F2DA012046FFF784FD0323009310234FF4004249F2DA012046E2
:400CC000FFF77AFD009710234FF4004249F2DA012046FFF771FD2B78013B06EB83039A780B4B1A702B78013B36F82320094B1A802878FFF7F7FD02B0BDE8F081CD80FF1F15
:400D00007881FF1F96580040075B0040935800400E4E00400C4E004070B500F0BDFD06462A4B1B782A4B1A7842F001021A701A7842F010021A7010331A7842F001021A708E
:400D40001A7842F010021A70224D2B7843F002032B70214C237843F0020323701F4A137843F003031370032000F044FB2B7803F0FD032B70237803F0FD032370184A13781A
:400D800043F0060313707A22164B1A70164A137843F0010313701032137843F0010313700F3A137843F0010313701032137843F0010313704FF000530C4A1360A2F5C07288
:400DC0001360304600F06CFD70BD00BFCD80FF1FAA430040F8460040F9460040915800407758004082580040A143004080E200E008B5084B9B7C4BB9064BDB7C13F0FF0F94
:400E000001D1FFF705FF0122024B9A74FFF784FF08BD00BF7881FF1F024A137843F0010313707047004E0040094B1B7C13F0FF0F03D0074B5B7CDBB203E0064B1B7803F03F
:400E40000103012B01D00028EED01846704700BF7881FF1F014E00400E4B1B7803F00303012B03D80C4B188880B209E00A4A12780A49087842EA0020032B01D1084B1B7830
:400E8000084B1B7C13F0FF0F02D00022054B5A7400B27047144E0040104E0040114E0040124E00407881FF1F704700BF704700BF704700BF704700BF054A137843F004033A
:400EC00013701032137843F004031370704700BFA2430040F0B583B016461F460B4D00242C700194009423460A460146204600F021FA3A463146287800F0F6F902212878C6
:400F000000F0E0F9287803B0F0BD00BFCE80FF1FF0B583B016461F460B4C012525700023019300930A460146284600F003FA3A463146207800F0D8F90221207800F0C2F920
:400F4000207803B0F0BD00BFCF80FF1F054A137843F0080313701032137843F008031370704700BFA8430040054B1A7802F0FD021A701A7800F0020010431870704700BF51
:400F80002C580040014B1870704700BF835B0040064B1B78C3F3810303F19243063393F83831DBB2024A1370704700BF2C5800400B46004008B5064B1A7802F0F3021A70B9
:400FC0001A7800F00C0010431870FFF7E1FF08BD2C58004008B50020074B187001331870064A137843F008031370FFF7E3FF0220FFF7BAFF08BD00BF2C5800409F5A0040F0
:4010000010B5002404E02046FFF734FA0134E4B2012CF8D9FF22014B1A7010BDD080FF1F10B50446FFF7ECFF2046FFF715FA014B1C7010BDD080FF1F014B188880B270471B
:4010400080400040034B1A7800F0F80010431870704700BF82400040024B187800F00700704700BF8240004070B505460E46FFF7F3FF0446FFF7E0FFA84256D02B4B1B7825
:4010800003F0010294B900B185B938B9284B1D80284A137803F0BF03137070BD254A137843F040031370224B1D8070BD22B3002321490B7001240F310C7004310B700C39BE
:4010C0000B7803F07F030B701A4B1B7813F0080F00D08DB9194B18800721013B1970164B1B7813F0010FFAD110490B7803F0FE030B700021104B19700C4B1B7813F0010F4D
:401100000DD00E4B1D800EB1032200E001220A4B1A70094B1B7813F0010FFAD170BD044B1D8002490B7813430B7070BDA24300408040004082400040014000400240004042
:401140004FF00052014B1A60704700BF00E100E0014B188880B2704700410040034B1A7800F0F80010431870704700BF02410040024B187800F00700704700BF0241004022
:4011800070B505460E46FFF7F3FF0446FFF7E0FFA84256D02B4B1B7803F0010294B900B185B938B9284B1D80284A137803F0BF03137070BD254A137843F040031370224B56
:4011C0001D8070BD22B3002321490B70012413310C7004390B7008390B7803F07F030B701A4B1B7813F0080F00D08DB9194B18800721013B1970164B1B7813F0010FFAD114
:4012000010490B7803F0FE030B700021104B19700C4B1B7813F0010F0DD00E4B1D800EB1032200E001220A4B1A70094B1B7813F0010FFAD170BD044B1D8002490B781343C6
:401240000B7070BDA1430040004100400241004001400040024000400B4A7F2313708021517007E0DA0002F1804202F5F042013BDBB21370002BF5D1DB0003F1804303F559
:40128000F04300221A707047D480FF1F172815D831B103010A495A5C42F020025A5405E0030107495A5C02F0DF025A540001044A835C43F0010383540020704701207047AE
:4012C0001070004017280BD80001064A835C03F0F103490001F00E011943815400207047012070471070004041F6FF73994201D14FF4005141F6FF739A4201D14FF4005236
:40130000172808D8C00000F1804000F5EC408180C280002070470120704700BF172805D8034B03EB0010417200207047012070471070004017281BD810B4C00000F1804456
:4013400004F5EC44D201D2B201F07F01114321709DF804201201D2B203F00F03134363709DF8083003F00F03A3700020E07001E00120704710BC704710B500F08DFA0A4BF7
:401380005B78182B0BD9084A1478013B5370E30003F1804303F5F0431B78137000E0FF2400F07EFA204610BDD480FF1F10F0800F0CD111F4704F0BD1C00000F1804000F5F9
:4013C000F04001808270C37000207047012070470120704710F0800F08D1C00000F1804000F5F0408180C280002070470120704701BE704708B5034B1B7A00FB03F000F0AC
:4014000043FA08BDDC80FF1F70B504460E46074B1D681F2802D90020FFF7EAFF04F01F04103455F8240045F8246070BD08ED00E038B504460D46072902D90020FFF7D8FF64
:401440001F2C02D90020FFF7D3FF04F01F0000F1604000F564406D01EDB2057038BD00BF024A137843F080031370704779640040024A137803F07F03137070477964004064
:40148000014B1870704700BF8B640040014B1878704700BF6B640040014B1860704700BF28640040014B1868704700BF48640040014B1860704700BF0864004008B501E09A
:4014C000FFF7F0FFFFF7E2FF10F0080FF8D108BD08B54FF0FF30FFF7DFFF4FF0FF30FFF7E7FF00F0D9F9064A137843F01003137000F0D6F9FFF7E2FF0120FFF7C1FF08BDAA
:401500009B64004008B5054B1B7823B9FFF7E0FF0122024B1A70FFF7A3FF08BD9081FF1F704700BF014B1B689864704708ED00E04001C0B2014B1870704700BF02E400E005
:401540000422014B1A60704700E100E00422014B1A60704780E100E008B5FFF7F7FF0448FFF7E0FF0720FFF7E3FFFFF7E9FF08BD2115000010B50446FFF7E8FF2046FFF739
:40158000D1FF0720FFF7D4FFFFF7DAFF10BD00BF7222084B1A70202203F201131A700622613B1A70472210331A700022AC3B1A70704700BF8864004010B500F06DF90446AC
:4015C0000A4A137843F02003137002F20112137843F010031370FD3A137843F01003137000F044F9204600F05BF910BD9864004008B5054B1B7823B9FFF7CAFF0122024BC2
:401600001A70FFF7D9FF08BD9181FF1F014B1878704700BF4A650040024B187800F07F00704700BF6965004010B5FFF7F5FF0402FFF7ECFF204380B210BD00BF034B1B78B4
:4016400013F0040FFAD1024B187070476C6400404C640040084B1B7833B97047305DFFF7EDFF0134E4B203E070B50D4606460024AC42F3D370BD00BF9181FF1F014B1870CB
:40168000704700BF79650040704700BF014B1B681864704708ED00E04001C0B2014B1870704700BF00E400E00122014B1A60704700E100E00122014B1A60704780E100E046
:4016C00008B5FFF7F7FF0448FFF7E0FF0720FFF7E3FFFFF7E9FF08BD8916000010B50446FFF7E8FF2046FFF7D1FF0720FFF7D4FFFFF7DAFF10BD00BF014B1870704700BF32
:401700007D640040024A137843F080031370704778650040014B1870704700BF8A640040014B1878704700BF6A640040014B1870704700BF0D640040024B1B78024B187814
:40174000704700BF0D6400404D640040014B1878704700BF4D640040014B1870704700BF2D640040014B1870704700BF3D64004008B501E0FFF7EAFFFFF7D2FF10F0400F35
:40178000F8D108BD08B5114B1A7802F0F8021A701A7802F0FC021A70FFF7EAFFFE20FFF7DBFF0020FFF7C2FF0120FFF7B3FFFFF7B7FF8020FFF7D6FF00F06EF8044A1378BB
:4017C00043F01003137000F06BF808BD786500409A64004008B5054B1B7823B9FFF7D2FF0122024B1A70FFF78DFF08BD9381FF1F014B1870704700BF7A640040704700BF19
:40180000014B1B685864704708ED00E04001C0B2014B1870704700BF01E400E00222014B1A60704700E100E00222014B1A60704780E100E008B5FFF7F7FF0448FFF7E0FFC1
:401840000720FFF7E3FFFFF7E9FF08BDFD17000010B50446FFF7E8FF2046FFF7D1FF0720FFF7D4FFFFF7DAFF10BD00BF054A137843F0020313701032137843F00203137032
:40188000704700BFA24300400230800803D000BF01380046FCD17047EFF3108072B6704780F31088704700BF014B1868704700BF4C81FF1F0E4B70B51E460E4C0025E41AE0
:4018C000A410A54204D056F8253098470135F8E700F0B4F8084B094C1E46E41AA4100025A54204D056F8253098470135F8E770BD481A0000481A0000481A0000501A000054
:4019000010B5431E0A44914204D011F8014B03F8014FF8E710BD03460244934202D003F8011BFAE77047000000000000035B004024430040400000000051004010004051A4
:401940000040300000000140001000140140000800400140000A004C01400002005001402000000060520040700700480600000080878F979FA6AEB5BCC2C9CFD5DBE0E567
:40198000E9EDF1F4F6F9FAFCFCFCFCFCFAF9F6F4F1EDE9E5E0DBD5CFC9C2BCB5AEA69F978F87807870686059514A433D36302A241F1A16120E0B0906050303030303050613
:4019C000090B0E12161A1F242A30363D434A51596068707880848A8F94989EA2A8ACB2B6BCC0C6CAD0D5DADEE4E8EEF2F8FCF8F2EEE8E4DEDAD4D0CAC6C0BCB6B2ADA8A2D3
:401A00009E98948F8A84807A76706B66615D58534E49443E39342F2A25211C17120D0803080D12171C21252A2F34393E44494E53585D61666B70767A43000000F8B500BFDB
:401A4000F8BC08BC9E4670474D0000004D060000F8B500BFF8BC08BC9E46704729000000701A0000C880FF1F88000000D8010000000000000101FFFFFF0000007F800000BC
:401A8000030000000000E02EC05D00001800000000366E010000000000000000000000000000000000000000000000000000000000000000381A00000000000000000000E9
:401AC00000000000000000000000000000000000000000000000000000000000000000000000000000000000000000000000000000000000EC80FF1F00000000000000005C
:401B000000000000000000000000000000000000000000000000000000000000000000000000000000000000000000000000000000000000000000000000000000000000A5
:401B40000000000000000000000000000000000000000000000000000000000000000000000000000000000000000000000000000000000000000000000000000000000065
:401B80000000000000000000000000000000000000000000000000000000000000000000000000000000000000000000000000000000000000000000000000000000000025
:401BC00000000000000000000000000000000000000000000000000000000000000000000000000000000000000000000000000000000000000000000000000000000000E5
:020000040003F7
:0200000480007A
:4000000001520040015A00400564004002650040020501400207014060080140480901405D0A01404C0B01405C0C0140390D014004160140051701404F1801404A19014001
:40004000561A01404D1B0140064001400441014007420140064301400244014005450140044601400547014005480140014C0140084D01400A5001400251014011029F0147
:400080007A0188728A678B0D8C0F79018938E208E610E404E8040201050709070C0C0F0810041107120814021501170618081A041C031F082003241C2508281C29042B012A
:4000C0002C102D022F01300331083210340C350738023E013F01405349FF4AFF4BFF4F01501856025710580459045A045B045C115D195E085F01604062406440654066800D
:4001000068806A806C806E8084028E038F019102920495019F02B002B204B301B401B702BE01BF04C053C9FFCAFFCBFFCD83CE03CF01D018D280D804D904DA04DB04DC19FC
:40014000DD99DF01E040E240E440E540E680E880EA80EC80EE8000840501064007010B800C010DA00E2015421714180419041A801C101D2222842302244027082C052F10B3
:4001800031043280330234803709389039203B803D203E8442204404452046104B404F405E406D606E046F14734074A47F02908091029444968897409A309B019D019E40B7
:4001C000A040A180A210A308A508A702B084C095C2F8C4F0CA70CCDBCE78D042D218D610DE10E404E804000104080A040C0410081C0120022A0132043408360338A03E100B
:40020000405349FF4AFF4BFF4D834E034F0150185407560458045A045B045C015D995F056040624064406540668068806A806C806E8081028204830586108A088C018E02FF
:400240008F0C91109210940996049708990C9B139E09A101A205A30EAD1FAE0EB410B51FB60FBA80BE10C053C5ECC620C80BC9FFCAFFCBFFCD83CE03CF01D018D401D60489
:40028000D804D904DA04DB04DC11DD99DF01E040E240E440E540E680E880EA80EC80EE8000140101030306600705080209800A400E210F40112012401502160218101A0704
:4002C0001B401C081D80251026102E022F023108330435013610370439033D013F80422046204B404D064F40563059205A885C805D066104622267806A40780287408E0216
:40030000908091029440960699249A029E40A040A220A308A588A610A702A820AE21C0FFC2B9C49ACA90CCE0CE90D042D218D6DED887DE01E610EE040012022003010401F4
:4003400007010A06102011011218142017021B011C28203E2101243826042C182D022E22323E3401350237013E103F404054410146E047BC483849FF4AFF4BFF4EF04F4477
:40038000500C5401580459045A045B045C115D115F0D66C06A406B028103831C850387088F09931099129B089D039F08AD03AF04B11FBB02C042C103C54EC6C0C702C81F89
:4003C000C9FFCAFFCBFFCDA0CF01D018D904DA04DB04DC10DD09DF01E040E280E440E540E680E840EA50EBA8EC40ED20EE50EFA80410050106200D090F021490160A17209B
:400400001C101E081F0821012202264027042B022E022F0230103181320134103612370439023A483D023E084060420445814642484049044C044D204E0250445220562816
:4004400057015E895F2068017C807F028801C070C2B0C4B0CA98CCEDCECBD097D210D6F0DE10B902BF01D904DF0120409440A840EC04EE010103030C040405010603080320
:4004800009030B080C071001110813031404160317081802190B1C032102240725032A032D032F043004330F36033B083E014004470449FF4A074BFF4C404D204EF04F05E9
:4004C00050085280580459045A045B045C115D915F09604061A8624063208201840C88028A0C8C0F930196029701980EA008A404A80CA902AA02AC0EB00EB101B502B601A0
:40050000BF11D418D604D804D904DB04DC01DD10DF050008010403860601071A080809100C010D200F2210A01209130414081520170419011A021E412220234026082710A0
:400540002B082C802D042F0231053408352036023D213F24450249404B40550856405A016084614063806B01768078017B827F0289018A088E028F049120964097209B0AEE
:400580009C819EC0A0A4A122A308A508A702A880C0EFC2F6C46FCAD4CCE3CEE0D080D601D80DDE18EC0400020302040C08230A0C0E40100F1210130215011621180E1A3050
:4005C0001B011E022008210124042701280E2A012C2F30403101343F350239023A203F104032410642044401450C47E0482149FF4AFF4BFF4C624DA04EF04F41500C580418
:4006000059045A045C115D015F096640670269106A306B106D106E106F12811B850889188A018B038D0291039204931C9703991B9A029D18A110A503A602A901AD03AF04BB
:40064000B404B51FB603BB20BE40D804D904DC19DF010008038505010680070808080A860D200F8010A012091304142016201A841B131E011F102004210227042A012B1009
:400680002C902E202F023102331434083520364238023D013E403F24400841104281430444104708492450017B018120824088048A408C208F8091219202940497209921E0
:4006C0009A019B199D049F04A0A4A120A20AA340A793AE20B120B302C04FC25FC42FCAF3CCF7CEF1D00FD204DE08EC023002324037803C40CC70CE20944096809F80A402AA
:4007000084028F80944096809F80A402E210804094449680A804E420E8207C08DE01584088409C08D401E00147089C08A808D001338083809C08AB08CC0824449444AA4081
:40074000C8A0EE80A808128074048E80A004AC04C408DE04E202000201010C020D010E020F01100211011C021D01003F100200008080000040000000800040808000800084
:40078000000000000000000000000100000B0B00000000000002020002000000000000000000010025001801000000000000000000000000000000000000000000000000DD
:4007C00000000000000000000000000000000000000000000000000000000000000000000000000000000000000000000000000000000000000000000000000000000000F9
:4008000000000000000000000000000000000000000000000000000000000000000000000000000000000000000000000000000000000000000000000000000000000000B8
:400840000000000000000000000000000000000000000000000000000000000000000000000000000000000000000000000000000000000000000000000000000000000078
:400880000000000000000000000000000000000000000000000000000000000000000000000000000000000000000000000000000000000000000000000000000000000038
:0200000490006A
:0400000000004005B7
:0200000490105A
:04000000BC90ACAF55
:0200000490303A
:0200000092B8B4
:0200000490402A
:4000000000000000000000000000000000000000000000000000000000000000000000000000000000000000000000000000000000000000000000000000000000000000C0
:400040000000000000000000000000000000000000000000000000000000000000000000000000000000000000000000000000000000000000000000000000000000000080
:400080000000000000000000000000000000000000000000000000000000000000000000000000000000000000000000000000000000000000000000000000000000000040
:4000C0000000000000000000000000000000000000000000000000000000000000000000000000000000000000000000000000000000000000000000000000000000000000
:0200000490501A
:0C00000000012E16106900012E21A32122
:00000001FF