:400000000080002011000000550400005504000008B5044B1A6803F53F5302331A6000F021FA00BFFA46004010B5054C237833B9044B13B10448AFF300800123237010BDAA
:400040005081FF1F0000000088140000084B10B51BB108490848AFF300800848036803B910BD074B002BFBD0BDE81040184700BF000000005481FF1F88140000C880FF1FBA
:400080000000000010B5002000F000FE0028FAD1114B1B783BB1114B1C7800F00FFE104B23F8140006E00D4B1C7800F007FE0D4B23F81400094A1378013303F01F03137030
:4000C0003BB9054A137883F0010313700122034B5A7001F005F910BDCC80FF1F6C81FF1FE482FF1FA482FF1F08B500F089FA00F0B1FD01F031F901F059F9054801F064F93D
:4001000001F0E0F800F04EFF62B600F0B7FDFEE785000000FEE700BFF0B40022174611E050F82760F3B226F0FF0608E001EB420511F812406D78A5550132013BDBB2002BD0
:40014000F4D101371F2FEBD9F0BC70470D4B1B78DBB203F007010C4A11701B09013213700123A2F232721370C0321370102302F69B02137068321370583213704422034B6C
:400180001A707047CF0100496E5800407658004008B50A46002101F06EF908BD08B501F05FF908BD38B50024314B1C80502202331A70192502331D8018232E4A1370EF210B
:4001C000023211800232137004222B492B48FFF7E5FF02222A4B1A7008224FF040231A70032103F500731970264B1B78DBB226490B70264B1A8041F25122023B1A800CE01C
:40020000234B1B7803F0010343EA440404F003044FF4F07001F0E8F8013D0DB1032CEFD115B90320FFF776FF1A4B4FF480721A8007221A70002218490A70482002310870A4
:400240001A700222033B1A7004220A331A70134A137843F007031370013A137843F001031370013A137843F08003137038BD00BF8040004086400040440700480041004026
:400280000043004008010049A146004022420040254200400440004006400040A2430040012807D8044B53F820201844017A13780B431370704700BF8C140000012808D894
:4002C000044B53F820201844017A137823EA0103137070478C14000038B572B6464A137843F00403137000240BE0444863001A19510001440A46098AD068FFF749FF013495
:40030000E4B2082CF1D900240BE03C49A3001819420088188022816C406CFFF73FFF0134E4B2002CF1D036494FF09040FFF7F4FE0A25344B1D7004213348FFF729FF042124
:400340003248FFF725FF324B324A136032498032116001F1874102F5007211602F4902F578621160043102F5007211608032136002F564522B32137843F0020313701032CB
:40038000137843F002031370254C237843F040032370A2F58632513A137843F010031370082220492048FFF7F9FE2A461F492048FFF7F4FE08221F491F48FFF7EFFE08229E
:4003C0001E491F48FFF7EAFE1E4A137843F0080313701D4D61232B70FFF7E4FE81232B7001221A4B1A70FFF7B1FE0E2221461848FFF7D4FE38BD00BFE84600408C140000C5
:400400008000004883580040007600400876004004048404580201400404840000040084A0430040200700480251004028070048F051004034070048125100403C07004858
:4004400032510040224300400048004004000840B043004008B500F0D7FF03680C2B00D1FEE7FEE708B5104E104D16E029686B68AC68002204E051F8040B43F8040B043289
:40048000A242F8D1E868002203E0002143F8041B04328242F9D11035013E002EE6D100F0B9FFFFF721FEFEE701000000CC15000008B5114A114B1A60114A136843F40073A0
:4004C000136000230AE0032B03D80E4A52F8231000E00D490D4A42F8231001332F2BF2D90B4B1A780B4B1A70084A0B4B1A60FFF7F3FE00F0E3FD08BD0004FA050CED00E009
:4005000014ED00E000000000550400000080FF1FBC760040C080FF1F08ED00E010B500F047FC074C0121207800F0E2FD0121607800F0DEFD002000F057FC00F0EFFB10BD9B
:400540007281FF1F70B505460E464FF48043020C0121084600F0F0FB094C2070A07801230246314600F054FE45F68332A9B2A07800F062FEA178207800F002FE70BD00BFE5
:400580007281FF1F70B505460E464FF48043020C0121084600F0EEFB094C6070E07801230246314600F034FE45F68332A9B2E07800F042FEE178607800F0E2FD70BD00BFC8
:4005C0007281FF1F10B500F037FC022000F0FEFB002000F021FC00F001FE074CA07000F0FDFDE070054C64212046FFF7ABFF64216018FFF7C7FF10BD7281FF1FDC140000DB
:4006000008B5054B1B7923B9FFF7DCFF0122024B1A71FFF783FF08BD7281FF1F38B59DF81040651EEDB2032D51D8013809282ED8DFE800F0052D2D052D2D0F192D230F2B3F
:4006400003D92548007840B222E02448007840B21EE00F2B03D92248007840B218E02148007840B214E00F2B03D91F48007840B20EE01E48007840B20AE00F2B03D91C483F
:40068000007840B204E01B48007840B200E0002001EB401101FB02F2D20B91B20D2B0BD8C3F10E0192B20A4191B2621E124800EB82020133937005E0631E0F4A02EB830370
:4006C0000F229A70013C0C4B23F8241038BD002000F0C0FD38BD00BF180100491C010049190100491D0100491A0100491E0100491B0100491F0100497881FF1FF8B5074629
:4007000000F07AFE06460D4D2B7843F003032B700B4C237843F0030323700A4B1F70032000F09AFD2B7803F0FC032B70237803F0FC032370304600F063FEF8BDF84600409E
:40074000F946004092580040F8B504460022C14B1A7401285DD13822BF4B1A70042202331A70062201331A70002501331D7001331D703F2201331A7002331D7001331D70C4
:4007800001331D7001260A331E70502203F527631A70272201331A702C2201331A7001331D70552203331A705A2201331A70052701331F7002331E70112201331A701922E5
:4007C00001331A70972201331A704420FFF796FF5822A24B1A7001331D7005331F70022201331A7001331D7001331D70284600F049FB4FF47A429A4B1A603146384600F013
:4008000065FB3146252000F0EDFB96491D2000F02DFD022C5DD138228F4B1A70042202331A70062201331A70002501331D7001331D703F2201331A7002331D7001331D7060
:4008400001331D7001260A331E70502203F527631A70272201331A702C2201331A7001331D70552203331A705A2201331A70052701331F7002331E70112201331A70192224
:4008800001331A70972201331A704420FFF736FF5822724B1A7001331D7005331F70022201331A7001331D7001331D70284600F0E9FA4FF47A426A4B1A603146384600F073
:4008C00005FB3146252000F08DFB67491D2000F0CDFC032C5DD138225F4B1A70042202331A70062201331A70002501331D7001331D703F2201331A7002331D7001331D701F
:4009000001331D7001260A331E70502203F527631A70272201331A702C2201331A7001331D70552203331A705A2201331A70052701331F7002331E70112201331A70192263
:4009400001331A70972201331A704420FFF7D6FE5822424B1A7001331D7005331F70022201331A7001331D7001331D70284600F089FA4FF47A423A4B1A603146384600F0D3
:40098000A5FA3146252000F02DFB38491D2000F06DFC042C5DD138222F4B1A70042202331A70062201331A70002401331C7001331C703F2201331A7002331C7001331C70E2
:4009C00001331C7001250A331D70502203F527631A70272201331A702C2201331A7001331C70552203331A705A2201331A70052601331E7002331D70112201331A701922AA
:400A000001331A70972201331A704420FFF776FE5822124B1A7001331C7005331E70022201331A7001331C7001331C70204600F029FA4FF47A420A4B1A602946304600F04E
:400A400045FA2946252000F0CDFA09491D2000F00DFCF8BD7881FF1F004E0040945800402483FF1F0D0D0000110D0000150D0000190D00002DE9F04182B0394D4FF0010832
:400A800085F80080374E00247474102000F00CFA102000F095FA07211D2000F0FBFB0427314B1F7001331C7007331C702F4A137843F0180313702E4B1C7003F2F5231C7059
:400AC00001331C700A22A3F209331A7001331C7002331C705B2205331A705E2201331A7004331C701422A3F68C231A70CDF8008010234FF4004249F2DA012046FFF78EFDEC
:400B00000223009310234FF4004249F2DA012046FFF784FD0323009310234FF4004249F2DA012046FFF77AFD009710234FF4004249F2DA012046FFF771FD2B78013B06EBF9
:400B400083039A780B4B1A702B78013B36F82320094B1A802878FFF7F7FD02B0BDE8F081CD80FF1F7881FF1F96580040075B0040935800400E4E00400C4E004070B500F0A5
:400B80003BFC06462A4B1B782A4B1A7842F001021A701A7842F010021A7010331A7842F001021A701A7842F010021A70224D2B7843F002032B70214C237843F002032370D8
:400BC0001F4A137843F003031370032000F044FB2B7803F0FD032B70237803F0FD032370184A137843F0060313707A22164B1A70164A137843F0010313701032137843F0C9
:400C0000010313700F3A137843F0010313701032137843F0010313704FF000530C4A1360A2F5C0721360304600F0EAFB70BD00BFCD80FF1FAA430040F8460040F9460040B5
:400C4000915800407758004082580040A143004080E200E008B5084B9B7C4BB9064BDB7C13F0FF0F01D1FFF705FF0122024B9A74FFF784FF08BD00BF7881FF1F024A1378A3
:400C800043F0010313707047004E0040094B1B7C13F0FF0F03D0074B5B7CDBB203E0064B1B7803F00103012B01D00028EED01846704700BF7881FF1F014E00400E4B1B78A9
:400CC00003F00303012B03D80C4B188880B209E00A4A12780A49087842EA0020032B01D1084B1B78084B1B7C13F0FF0F02D00022054B5A7400B27047144E0040104E004049
:400D0000114E0040124E00407881FF1F704700BF704700BF704700BF704700BF054A137843F0040313701032137843F004031370704700BFA2430040F0B583B016461F4630
:400D40000B4D00242C700194009423460A460146204600F021FA3A463146287800F0F6F90221287800F0E0F9287803B0F0BD00BFCE80FF1FF0B583B016461F460B4C01257E
:400D800025700023019300930A460146284600F003FA3A463146207800F0D8F90221207800F0C2F9207803B0F0BD00BFCF80FF1F054A137843F0080313701032137843F0ED
:400DC00008031370704700BFA8430040054B1A7802F0FD021A701A7800F0020010431870704700BF2C580040014B1870704700BF835B0040064B1B78C3F3810303F192437F
:400E0000063393F83831DBB2024A1370704700BF2C5800400B46004008B5064B1A7802F0F3021A701A7800F00C0010431870FFF7E1FF08BD2C58004008B50020074B1870CE
:400E400001331870064A137843F008031370FFF7E3FF0220FFF7BAFF08BD00BF2C5800409F5A004010B5002404E02046FFF726FA0134E4B2012CF8D9FF22014B1A7010BD1A
:400E8000D080FF1F10B50446FFF7ECFF2046FFF707FA014B1C7010BDD080FF1F014B188880B2704780400040034B1A7800F0F80010431870704700BF82400040024B187897
:400EC00000F00700704700BF8240004070B505460E46FFF7F3FF0446FFF7E0FFA84256D02B4B1B7803F0010294B900B185B938B9284B1D80284A137803F0BF03137070BD0A
:400F0000254A137843F040031370224B1D8070BD22B3002321490B7001240F310C7004310B700C390B7803F07F030B701A4B1B7813F0080F00D08DB9194B18800721013BD9
:400F40001970164B1B7813F0010FFAD110490B7803F0FE030B700021104B19700C4B1B7813F0010F0DD00E4B1D800EB1032200E001220A4B1A70094B1B7813F0010FFAD16B
:400F800070BD044B1D8002490B7813430B7070BDA2430040804000408240004001400040024000404FF00052014B1A60704700BF00E100E0014B188880B27047004100403E
:400FC000034B1A7800F0F80010431870704700BF02410040024B187800F00700704700BF0241004070B505460E46FFF7F3FF0446FFF7E0FFA84256D02B4B1B7803F00102AE
:4010000094B900B185B938B9284B1D80284A137803F0BF03137070BD254A137843F040031370224B1D8070BD22B3002321490B70012413310C7004390B7008390B7803F0B6
:401040007F030B701A4B1B7813F0080F00D08DB9194B18800721013B1970164B1B7813F0010FFAD110490B7803F0FE030B700021104B19700C4B1B7813F0010F0DD00E4B0D
:401080001D800EB1032200E001220A4B1A70094B1B7813F0010FFAD170BD044B1D8002490B7813430B7070BDA1430040004100400241004001400040024000400B4A7F2301
:4010C00013708021517007E0DA0002F1804202F5F042013BDBB21370002BF5D1DB0003F1804303F5F04300221A707047D480FF1F172815D831B103010A495A5C42F020022E
:401100005A5405E0030107495A5C02F0DF025A540001044A835C43F00103835400207047012070471070004017280BD80001064A835C03F0F103490001F00E011943815433
:4011400000207047012070471070004041F6FF73994201D14FF4005141F6FF739A4201D14FF40052172808D8C00000F1804000F5EC408180C280002070470120704700BFC8
:40118000172805D8034B03EB0010417200207047012070471070004017281BD810B4C00000F1804404F5EC44D201D2B201F07F01114321709DF804201201D2B203F00F030F
:4011C000134363709DF8083003F00F03A3700020E07001E00120704710BC704710B500F00BF90A4B5B78182B0BD9084A1478013B5370E30003F1804303F5F0431B78137075
:4012000000E0FF2400F0FCF8204610BDD480FF1F10F0800F0CD111F4704F0BD1C00000F1804000F5F04001808270C37000207047012070470120704710F0800F08D1C0002B
:4012400000F1804000F5F0408180C280002070470120704701BE704708B5034B1B7A00FB03F000F0C1F808BDDC80FF1F70B504460E46074B1D681F2802D90020FFF7EAFFFF
:4012800004F01F04103455F8240045F8246070BD08ED00E038B504460D46072902D90020FFF7D8FF1F2C02D90020FFF7D3FF04F01F0000F1604000F564406D01EDB2057050
:4012C00038BD00BF024A137843F080031370704774640040014B1870704700BF87640040014B1878704700BF67640040014B1860704700BF24640040014B1868704700BF45
:4013000044640040014B1860704700BF0464004008B501E0FFF7F0FFFFF7E2FF10F0080FF8D108BD08B54FF0FF30FFF7DFFF4FF0FF30FFF7E7FF00F05FF8064A137843F046
:401340001003137000F05CF8FFF7E2FF0120FFF7C1FF08BD9764004008B5054B1B7823B9FFF7E0FF0122024B1A70FFF7ABFF08BD9081FF1F704700BF014B1B68986470470E
:4013800008ED00E04001C0B2014B1870704700BF02E400E00422014B1A60704700E100E00422014B1A60704780E100E008B5FFF7F7FF0448FFF7E0FF0720FFF7E3FFFFF78E
:4013C000E9FF08BD7513000010B50446FFF7E8FF2046FFF7D1FF0720FFF7D4FFFFF7DAFF10BD00BF000000000230800803D000BF01380046FCD17047EFF3108072B67047B5
:4014000080F31088704700BF014B1868704700BF4C81FF1F0E4B70B51E460E4C0025E41AA410A54204D056F8253098470135F8E700F0BAF8084B094C1E46E41AA410002514
:40144000A54204D056F8253098470135F8E770BDB4150000B4150000B4150000BC15000010B5431E0A44914204D011F8014B03F8014FF8E710BD03460244934202D003F829
:40148000011BFAE77047000000000000035B00402443004040000000205100401000405100403000C0510040100000000140001000140140800000150140000700400140CC
:4014C000000A004C01400002005001402000000080140140A00600488000000080878F979FA6AEB5BCC2C9CFD5DBE0E5E9EDF1F4F6F9FAFCFCFCFCFCFAF9F6F4F1EDE9E5E6
:40150000E0DBD5CFC9C2BCB5AEA69F978F87807870686059514A433D36302A241F1A16120E0B09060503030303030506090B0E12161A1F242A30363D434A51596068707855
:4015400080848A8F94989EA2A8ACB2B6BCC0C6CAD0D5DADEE4E8EEF2F8FCF8F2EEE8E4DEDAD4D0CAC6C0BCB6B2ADA8A29E98948F8A84807A76706B66615D58534E49443E18
:4015800039342F2A25211C17120D0803080D12171C21252A2F34393E44494E53585D61666B70767A43000000F8B500BFF8BC08BC9E4670474D000000B1040000F8B500BF79
:4015C000F8BC08BC9E46704729000000E0150000C880FF1F88000000D801000000000000000000000101FFFFFF0000007F800000030000000000E02EC05D000018000000AF
:4016000000366E010000000000000000000000000000000000000000000000000000000000000000A41500000000000000000000000000000000000000000000000000004C
:40164000000000000000000000000000000000000000000000000000000000000000000000000000EC80FF1F000000000000000000000000000000000000000000000000E0
:40168000000000000000000000000000000000000000000000000000000000000000000000000000000000000000000000000000000000000000000000000000000000002A
:4016C00000000000000000000000000000000000000000000000000000000000000000000000000000000000000000000000000000000000000000000000000000000000EA
:4017000000000000000000000000000000000000000000000000000000000000000000000000000000000000000000000000000000000000000000000000000000000000A9
:401740000000000000000000000000000000000000000000000000000000000000000000000000000000000000000000000000000000000000000000000000000000000069
:020000040003F7
:0200000480007A
:4000000004520040015A004004640040036500405A020140380301405A0401403F0501405D0601404507014002090140020B0140010D0140010F0140101401404515014097
:400040004E160140461701400418014002190140011B0140054001400941014006420140084301400444014003460140034701400948014006490140095001400251014013
:40008000000401041C8079049F017601850F8667870D77018438867204090501061007020C100E0C0F081203130518141C1C1E021F0E200C210922112304241F27092B0417
:4000C0002C10301F370F3B8040164104450E460C470B481549FF4AFF4BFF4EF04F44500C580459045A045B045C115D015F0966C06A406B02860C87028B018C0C8E13900126
:40010000920E94109C209D06A104A208A41FA501AC02AD06AE05B01FB220B301B506B920BE04BF10C002C604C9FFCA07CBFFCC40CD20CEF0CF05D008D804D904DA04DC1100
:40014000DD01DF09E040E1A8E240E3200040021003200540061009080A800B020E400F0A1091141015C81702184019011A201B011E401F01201426802702281129412B80BA
:400180002FA832C03401368038183D444004440147024C14508451485308568057046F01790C7D04821084808701C0A5C2DDC4BDCAEBCC98CE56D094D220DE4202010F01B0
:4001C000100213011404200228012E0230013406370138203F40405449FF4AFF4BFF4F0150185280580459045A045B045C015D995F016040624064406540668068806A8067
:400200006C806E8080038208842088408E208F029003921C9302940396049A109D02A003A102A208A609AB02AC12AE08AF01B102B220B301B440B61FBA80BE14BF01C0548A
:40024000C9FFCAFFCBFFCD83CE03CF01D018D401D804D904DA04DB04DC91DD19DF05E040E240E440E540E680E880EA80EC80EE80010204A005A0075008040A400B800C0883
:400280000D040E4410091280140116A019021A041B201D401E181F402240244027102C042D802E202F48310234013501368037403B403E80410145024B404F405C405E08B7
:4002C0005F2273407F049020950899019A809C809D40A280A308A720C0F8C27CC4BBCAB0CC91CE18D081D218D6F0DE20E002030110011E0228012901320233013401382029
:400300003E103F04405449FF4AFF4BFF4D834E034F01501854075604580459045A045B045C095D995F056040624064406540668068806A806C806E808208840385078801B7
:4003400089068D018F06900391079208950798039A049C039D049E0CA002A301A80BA902AC08AD06AE03AF01B307B60FBA80C054C5ECC720C823C9FFCAFFCBFFCD83CE030F
:40038000CF01D018D401D604D804D904DA04DB04DC11DD99DF01E040E240E440E540E680E880EA80EC80EE80012002100380080109010A010B080E400F02108411801710EE
:4003C00019801A011D201F082010260429A02B802F08308539883A103B083F024101450249054B404F40510359055A805D105E085F8060806502660467046E406F027F02B1
:400400008902929093409480950A97089B109C80A502A920AA80AB22C00EC29BC44BCA2DCC0BCE8ED081D218D67BD8E1DE10E280E4049404E4049404E00294048C040702B0
:400440000B020F05150423043102330137043F415418560459045B045C905D105F05058007280A020B010D040E4A1080110217561D101E59218822012501274829022C8099
:400480002DA43108372A38583C083E123F4045A44C404F045510560457015A0160446301750279087D3087208C40901C910C9340948095109640970499A09A029B169D105B
:4004C0009E049F68A004A124A201A501A701A904C0E0C2F0C4F0CAF1CCE2CEFED070D601D80DDE02E240EA0401100518060409010A040D230F1C12021303153B19021D3890
:400500001F03213B240125032704280129082C012D03340635203601371F3B803E103F1056025711580459045B045C115D105E085F01820183018E0193029C01A301A40111
:40054000B001B302B501B802BF10C015C106C203C402C7ECC830C9FFCAFFCBFFCC62CDA0CEF0CF41D00CD804D904DA04DB04DC11DD01DF09E640E702E910EA30EB10ED1021
:40058000EE10EF120180034005100620072009400E4013081540171419011E061F802004210425C02610270229012D242E413002340435103605374838023C083D803E228C
:4005C000401041C042044A054B4050055E2068026D406F14748475207612790C7D049010920194809598970499809C049D209E14A120A480A541A781AA10AB80C069C211F7
:40060000C4E4CAF1CCF1CEF1D00ED20CD620DE4239203F1059045F0124049404A804338836103C40CC70CE205F80830187889440A610A788D620E240E66087019302944017
:40064000A610A780E04080408A10930294409F01A610A780E4207D088D04DE01E40245088508D00133808380CC08244027015301930294409F01A780C8A0D4800F048704BF
:400680008F80A780C280E0400002010108020A020B01100211011A021B01003F1002000000080000290CC40003000002000003210723180CFF2F004052022400000003006E
:4006C000030E00307C4F00107C040000000E03011C3F800060400300000000020000000012030000004C200E3BFFFFFF00A000011800800000000000040404041199000111
:400700004000800040408000400050A8402050A8000000000000000000000000000000000004040004000000040000040400040001000000000B0B000000000080000000B6
:40074000000001002500180100000000000000000000000000000000000000000000000000000000000000000000000000000000000000000000000000000000000000003A
:400780000000000000000000000000000000000000000000000000000000000000000000000000000000000000000000000000000000000000000000000000000000000039
:4007C00000000000000000000000000000000000000000000000000000000000000000000000000000000000000000000000000000000000000000000000000000000000F9
:4008000000000000000000000000000000000000000000000000000000000000000000000000000000000000000000000000000000000000000000000000000000000000B8
:400840000000000000000000000000000000000000000000000000000000000000000000000000000000000000000000000000000000000000000000000000000000000078
:0200000490006A
:0400000000004005B7
:0200000490105A
:04000000BC90ACAF55
:0200000490303A
:020000009B97CC
:0200000490402A
:4000000000000000000000000000000000000000000000000000000000000000000000000000000000000000000000000000000000000000000000000000000000000000C0
:400040000000000000000000000000000000000000000000000000000000000000000000000000000000000000000000000000000000000000000000000000000000000080
:400080000000000000000000000000000000000000000000000000000000000000000000000000000000000000000000000000000000000000000000000000000000000040
:4000C0000000000000000000000000000000000000000000000000000000000000000000000000000000000000000000000000000000000000000000000000000000000000
:0200000490501A
:0C00000000012E16106900012E1FAC003C
:00000001FF