:400000000080002011000000E1040000E104000080B500AF024A034B1B68136000F092FABC760040FA46004010B5054C237833B9044B13B10448AFF300800123237010BDC1
:400040003881FF1F00000000AC130000084B10B51BB108490848AFF300800848036803B910BD074B002BFBD0BDE81040184700BF000000003C81FF1FAC130000C880FF1FA4
:400080000000000080B500AF044B1B680133034A136000F069FC00BF80BD00BF5481FF1F90B5A3B000AF00F03DFC00F08BFC3B4800F098FC00F0D2FC62B600F0D7FA0023EB
:4000C00087F88630002387F88430002387F8853000F03CFB034687F8833097F883306D2B13D06D2B02DC002B13D013E0732B02D0752B07D00EE02A4B1B682A4A1360012370
:4001000087F88630012387F88430012387F8853000E000BF97F88530002BD9D097F88630002BD5D0142387F88230002387F887300FE097F8874000F0FBFA03461A4607F183
:400140008803234403F8882C97F88730013387F8873097F8872097F882309A42E9D33A4607F140031049184600F0FCFC07F14003184600F027FB002387F8873004E097F84E
:400180008730013387F8873097F8872097F882309A42F4D3002387F8853099E7850000005481FF1F6481FF1FB013000080B582B000AF786039603A680021786800F0C9FC10
:4001C00000BF0837BD4680BD80B584B000AFF860B9607A607A68B968F86800F0AFFC00BF1037BD4680BD00BF80B483B000AF0346FB71FEE780B487B000AF786039600023FD
:400200003B6100237B6127E07B699B007A6813441B68BB60BB68FB73BB6823F0FF03BB6014E03B695B003A6813441B781A46BB68134419463B695B003A6813445B780B70E4
:400240003B6901333B61FB7B013BFB73FB7B002BE7D17B6901337B617B69132BD4D900BF1C37BD4680BC704780B582B000AF304B19221A802F4B18221A702F4B02221A70FA
:400280004FF0402308221A702C4B03221A702C4B2C4A1278D2B21A702B4B08221A802B4B41F251221A800023FB7019237B6014E0FB785B00DAB2264B1B78DBB203F00103D2
:4002C000DBB21343DBB203F00303FB704FF4F07000F0DEFB7B68013B7B607B68002B02D0FB78032BE4D17B68002B02D10320FFF77BFF184B4FF480721A80164B07221A70D4
:40030000154B00221A70154B48221A70114B00221A70134B02221A70124A124B1B78DBB243F00103DBB2137000BF0837BD4680BD80400040824000400043004000420040E4
:40034000A14600400801004922420040204200402542004004400040064000400840004001400040A243004080B483B000AF0B4B1B78FB710A4AFB7903F00703DBB213709F
:40038000084AFB791B09DBB21370074B44221A7000BF0C37BD4680BC704700BFCF0100496E5800406F5800407658004080B582B000AF72B6394A394B1B78DBB243F0040377
:4003C000DBB213700023FB7113E0FA7913465B0013445B00324A13443B603B681A683B689B889BB219461046FFF7E0FEFB790133FB71FB79082BE8D92A494FF09040FFF76F
:40040000F9FE294A284B1B78DBB243F00203DBB21370264A254B1B78DBB243F00203DBB21370234A224B1B78DBB243F04003DBB21370204A1F4B1B78DBB243F01003DBB2E8
:4004400013700A221C491D48FFF7BEFE08221C491C48FFF7B9FE08221B491C48FFF7B4FE1B4A1B4B1B78DBB243F00803DBB21370184B60221A70FFF7F7FE164B80221A70F7
:40048000154B01221A70FFF76FFF0E2208491348FFF79AFE00BF0837BD4680BDE8460040C0130000500000480350014013500140A0430040C2430040F0030048C05100401E
:4004C000FC030048125100400404004822510040224300400048004004000840B043004080B500AF00F0FEFA03461B680C2B00D1FEE7FEE780B584B000AF78600F4B1A682D
:400500007B6813441A460E4BD31A802B09DC0B4B1B68FB60094B1A687B681344074A136007E000F0DFFA02460C2313604FF0FF33FB60FB6818461037BD4680BDCC80FF1F2B
:400540007081FF1F80B586B000AF224B7B61224B3B61204B7B6135E03B691B68FB603B695B68BB603B699B683B6000237B600CE0FB681A68BB681A60BB680433BB60FB681A
:400580000433FB607B6804337B607A683B689A42EED13B69DB683B6000237B6008E0BB6800221A60BB680433BB607B6804337B607A683B689A42F2D13B6910333B617B6978
:4005C000013B7B617B69002BC6D100F091FAFFF767FDFEE7010000005014000080B582B000AF184B184A1A60184A184B1B6843F40073136000237B600FE07B68032B04D88A
:40060000134A7B6852F8233000E0124B12497A6841F822307B6801337B607B682F2BECD90E4B1B78DAB20E4B1A700E4B0A4A1A60FFF7BCFE0C4B00221A6000BF0837BD46BE
:4006400080BD00BF0CED00E00004FA0514ED00E000000000E10400000080FF1FBC760040C480FF1F08ED00E0C080FF1F80B500AF064B1B78002B04D100F00AF8034B01220C
:400680001A7000F025F800BF80BD00BF5981FF1F80B400AF094B72221A70094B20221A70084B06221A70084B47221A70074B00221A7000BFBD4680BC704700BF8864004092
:4006C0008865004029650040396500408B65004080B582B000AF00F0FAF90346FB71114A104B1B78DBB243F02003DBB213700E4A0D4B1B78DBB243F01003DBB213700B4A8C
:400700000A4B1B78DBB243F01003DBB2137000F07BF8FB79184600F0DEF900BF0837BD4680BD00BF98640040986500409B65004080B483B000AF044B1B78FB71FB79184606
:400740000C37BD4680BC70474B65004080B483B000AF0023FB710C4B1B78BB71BB7903F02003002B09D0094B1B78FB71BB7903F01E03002B01D00023FB71FB7918460C370C
:40078000BD4680BC704700BF686500404B65004080B483B000AF0346FB7100BF074B1B78DBB203F00403002BF8D1054AFB79137000BF0C37BD4680BC704700BF6B65004090
:4007C0004865004080B584B000AF78600023FB810C4B1B78002B10D009E0FB897A6813441B781846FFF7D4FFFB890133FB81FB897A6813441B78002BEFD100BF1037BD46B0
:4008000080BD00BF5981FF1F80B400AF094A094B1B78DBB243F00103DBB21370064A064B1B78DBB243F00103DBB2137000BFBD4680BC7047A2430040B243004080B500AFD8
:40084000224A224B1B78DBB203F00103DBB213701F4A1F4B1B78DBB223F00303DBB213701C4A1C4B1B78DBB223F03003DBB21370184A184B1B78DBB243F03003DBB21370BE
:40088000144A144B1B78DBB223F00F03DBB21370104A104B1B78DBB243F00F03DBB213700D4A0D4B1B78DBB243F00103DBB2137045F6BF5000F064F845F6BF5000F072F8AC
:4008C000082000F041F800BF80BD00BF004F0040024F00400B4F0040014F004080B400AF0D4A0D4B1B78DBB243F00103DBB213700A4A0A4B1B78DBB243F00103DBB2137099
:40090000074A074B1B78DBB243F00103DBB2137000BFBD4680BC7047A3430040B3430040004F004080B500AF064B1B78002B04D1FFF784FF034B01221A70FFF7CFFF00BF4E
:4009400080BD00BF5B81FF1F80B483B000AF0346FB71044AFB79137000BF0C37BD4680BC704700BF034F004080B400AF034B1B78DBB21846BD4680BC704700BF034F004032
:4009800080B485B000AF0346FB80FB88FB81044AFB89138000BF1437BD4680BC704700BF044F004080B483B000AF0346FB80044AFB88138000BF0C37BD4680BC704700BFB0
:4009C000064F004080B500AF00F054F8044800F021F8072000F030F800F040F800BF80BD090A000080B582B000AF786000F042F8786800F00FF8072000F01EF800F02EF845
:400A000000BF0837BD4680BD80B400AF00BFBD4680BC704780B485B000AF7860054B1B68FB60FB6884337A681A6000BF1437BD4680BC704708ED00E080B483B000AF034618
:400A4000FB71054AFB795B01DBB2137000BF0C37BD4680BC704700BF11E400E080B400AF034B4FF400321A6000BFBD4680BC704700E100E080B400AF034B4FF400321A6099
:400A800000BFBD4680BC704780E100E000000000142816D902B4012114381049097811F0C001890904B40E4A515C04BC00BF00BF00BF8841FDD500BF00BF02BC704700BFBC
:400AC00000BF70F10400FCD570470B050709EFF3108072B6704780F31088704700480040CA0A0000014B1868704700BF3081FF1F0E4B70B51E460E4C0025E41AA410A542B0
:400B000004D056F8253098470135F8E700F08EFC084B094C1E46E41AA4100025A54204D056F8253098470135F8E770BD3814000038140000381400004014000010B5431E10
:400B40000A44914204D011F8014B03F8014FF8E710BD03460244934202D003F8011BFAE7704700000EB400B54FF402719CB0ADF814106FF00041049107914FF6FF711DABC3
:400B800002900690084853F8042BADF81610006802A9019300F064F8029B00221A701CB05DF804EB03B070473081FF1F2DE9F0478E6882469E420C46914698463ED88A89D8
:400BC00012F4906F3AD02568096902236F1A656905EB450595FBF3F57B1C43449D4238BF1D4653050FD5294600F040FB064698B13A462169FFF7A2FFA38923F4906343F0ED
:400C00008003A38113E02A4600F08EFB064670B92169504600F0DEFA0C23CAF80030A3894FF0FF3043F04003A381BDE8F08726613E44266046466561ED1BA560464528BF03
:400C4000464649463246206800F0A8FAA36800209B1BA36023681E442660BDE8F08700002DE9F04F9DB003938B8980461C060D4616460DD50B695BB9402100F0F7FA28603D
:400C8000286118B90C23C8F80030CDE040236B610023099320238DF82930DFF89CB130238DF82A3037463C4614F8013B1BB9B7EB060910D003E0252BF9D02746F3E74B4629
:400CC000324629464046FFF771FF013000F0A780099B4B4409933B78002B00F0A08000234FF0FF3204930793059206938DF853301A930126052221784E4800F041FA671C48
:400D0000049B38B14B4A3C46801A06FA00F018430490EFE7D90644BF20228DF853201A0744BF2B228DF8532022782A2A03D0079A00210A200BE0039A111D12680391002AA5
:400D400010DA524243F00200079204900BE027463B780134303B092B03D800FB02320121F5E701B107923B782E2B1ED17B782A2B0AD1039B02371A1D1B680392002BB8BF7B
:400D80004FF0FF33059310E0002319460593781C0A2407463A780130303A092A03D804FB01210123F5E703B1059103223978224800F0E6F940B14023CBEB000003FA00F045
:400DC000049B013718430490397806221B487E1C8DF8281000F0D4F988B1194B33B9039B073323F007030833039314E003AB00932A46144B04A94046AFF3008007E003ABA0
:400E000000932A460F4B04A9404600F093F8B0F1FF3F824603D0099B5344099342E7AB895B0601D4099801E04FF0FF301DB0BDE8F08F00BFF8130000FE13000002140000F1
:400E400000000000AD0B00002DE9F04791461F460A698B6806469342B8BF1346C9F8003091F843200C46DDF8208012B10133C9F800302368990642BFD9F800300233C9F82C
:400E80000030256815F0060510D104F1190A07E00123524639463046C04701301AD00135E368D9F800209B1A9D42F1DB94F843302268003318BF012392060FD5E118302064
:400EC00081F843005A1C94F845102244023382F8431003E04FF0FF30BDE8F08704F1430239463046C0470130F4D02268D9F80050E36802F00602042A08BF5D1B2269A368EC
:400F00000CBF25EAE57500259342C4BF9B1AED184FF000091A344D4509D00123224639463046C0470130D5D009F10109F3E70020BDE8F0872DE9F04317460A7E85B06E2AD2
:400F4000984606460C460C9B01F1430E00F0AE8011D8632A22D009D8002A00F0BB80582A40F0CA8081F84520834955E0642A1ED0692A1CD0C0E0732A00F0B08009D86F2AA2
:400F80002ED0702A40F0B8800A6842F020020A603EE0752A24D0782A3AD0ADE01A6801F14205111D1960136884F84230A8E021681A6811F0800F02D0111D196008E011F0C7
:400FC000400F02F10401196002D0B2F9003000E01368002B3CDA2D225B4284F8432037E021681A6811F0800F02D0111D196007E011F0400F02F10401196001D0138800E0FE
:401000001368227E5C496F2A14BF0A2208221BE078225A4984F845202268186812F0800F00F104051D6003D1550601D5038800E00368D00744BF42F0200222601BB922681A
:4010400022F0200222601022002084F8430001E049490A226568002DA56008DB206820F0040020602BB9002D7DD175460CE0002B79D07546B3FBF2F002FB1033CB5C05F8E3
:40108000013D03460028F5D1082A0BD12368DA0708D5236962689A42DEBF302305F8013C05F1FF35C5EB0E0323612EE008681A6810F0800F496903D0101D1860136808E07D
:4010C00010F0400F02F104001860136801D0198000E0196000232361754616E01A68111D1960156800216268284600F049F808B1401B6060636804E004F1420584F84220CF
:4011000001232361002384F84330CDF800803B4603AA21463046FFF797FE013002D14FF0FF3026E023692A4639463046C0470130F5D023689B0710D5002504F1190907E07F
:4011400001234A4639463046C0470130E7D00135E368039A9B1A9D42F2DBE068039B9842B8BF184605E00B7804F1420584F842308AE705B0BDE8F083091400001A140000A8
:4011800010B5C9B202449042034605D01C7801308C42F8D1184610BD002010BD884210B501EB020301D8421E0BE09842FBD28118D21AD34204D013F8014D01F8014DF8E70D
:4011C00010BD994204D011F8014B02F8014FF8E710BD000038B50546002944D051F8043C0C1F002BB8BFE41800F0D4F81E4A1368114613B96360146030E0A3420DD9226803
:40120000A018834201BF18685B681218226063600C6023E0A24203D813465A68002AF9D118681918A1420BD12168014458188242196013D110685268014419605A600DE01C
:4012400002D90C232B6009E021686018824201BF106852680918216062605C602846BDE8384000F098B838BD6081FF1F70B5CD1C25F0030508350C2D38BF0C25002D064618
:4012800001DBA94202D90C23336046E000F082F8234B1C681A462146A1B10B685B1B0ED40B2B03D90B60CC18CD501EE08C420BBF63684B681360636018BF0C4615E00C462C
:4012C0004968E9E7174C23681BB9304600F052F820602946304600F04DF8431C18D0C41C24F00304A0420DD12560304600F053F804F10B00231D20F00700C31A0ED05A427B
:40130000E25070BD211A304600F034F80130EBD10C233360304600F03EF8002070BD00BF6081FF1F5C81FF1FF8B5074615460E4621B91146BDE8F840FFF798BF1AB9FFF763
:4013400049FF2846F8BD00F027F885420ED929463846FFF78BFF044650B131462A46FFF7EDFB31463846FFF735FF01E03046F8BD2046F8BD38B5064C002305460846236004
:40138000FFF7B8F8431C02D1236803B12B6038BD6881FF1F7047704751F8040C0028BEBF091851F8043CC018043870470000000054657374696E673A2025730A00000000D4
:4013C000004F00400C00005100401000305100404000F0510040100000000140001000140140000800400140000A004C014000020050014020004300232D302B2000686CC4
:401400004C00656667454647003031323334353637383941424344454600303132333435363738396162636465660000F8B500BFF8BC08BC9E4670474D000000DD050000AA
:40144000F8B500BFF8BC08BC9E4670472900000060140000C880FF1F7000000038000000000000007081FF1F00000000000000000000000000000000000000000000000033
:401480000000000000000000F61300000000000000000000000000000000000000000000000000000000000000000000000000000000000000000000000000000000000023
:4014C0000000000000000000D080FF1F000000000000000000000000000000000000000000000000000000000000000000000000000000000000000000000000000000007E
:4015000000000000000000000000000000000000000000000000000000000000000000000000000000000000000000000000000000000000000000000000000000000000AB
:40154000000000000000000000000000000000000000000000000000000000000000000000000000000000000000000000000000000000000000000000000000000000006B
:40158000000000000000000000000000000000000000000000000000000000000000000000000000000000000000000000000000000000000000000000000000000000002B
:4015C00000000000000000000000000000000000000000000000000000000000000000000000000000000000000000000000000000000000000000000000000000000000EB
:020000040003F7
:0200000480007A
:40000000024F00400352004001640040026500403D0801402F0901400414014002150140561801404B190140521A0140491B014002450140014601400547014002480140D0
:4000400003490140014C0140074D01400450014001800A36110261806440887288388B0F00080110040105080606080609180A010C040DC0113C120113C21408158018083A
:400080001B041C071D44200621DC22012321240225E72718280629FF2FE3300833D834073538371F3A203B8856025712580459045B045F0189018A038C1C8E02900C921115
:4000C00094149C099E10A010A20CA410B21FB301BF04D804D904DB04DF0100100202040205100602072008010A210C880D020E0412A01504171918101D121F022104272508
:400100002C142D032F02348035043610370138103D043E6258105B205C046A806C096E046F207622771889048E40C0F3C2FDC47CCAF0CCF0CEF4D640B908BF04D904DF0124
:4001400027208720020203180410080409140A010B010C040D190E010F061208131815181602180519181C081D0A1F01200823182507280529073001311832023307340475
:40018000361838823B203E1440134104450B47CE483149FF4AFF4BFF4EF04F44500C5418580459045A045B045F0166C06A406B0288028A018B0191029C019D039E02A403D5
:4001C000A803AD03B103B203B902BF01C004C504C9FFCA07CBFFCC40CD20CEF0CF05D008D804D904DA04DF01E040E1A8E240E3200010051106100701088009020B800C8238
:400200000D28102816801720181019041C041D011E011F0421012408252026012710280129402A802C282F603082328333403484372138203C103D013E4041014404452076
:400240004690474048104A204E1050105210560457015E02670A8E408F1091019404966199109B259C859D04A008A102A320A6B2B084B512C0F2C2F1C456CAE8CCF9CEB42A
:40028000D0D1D680D83002030A020B030C060E01110C13031D011E061F062205230C26012B082D012F0E310F36073A803B02580459045F01800281188320860287058A045D
:4002C0008B048C028F40915093209A049B029D189E029F60A118A202A320A728A801B004B106B401B501B602B778BB80BE51BF01C024C106C203C401C50CC70EC811C9FF14
:40030000CAFFCBFFCC62CDA0CEF0CF41D00CD401D804D904DA04DB04DF01E640E702E910EA30EB10ED10EE10EF1200200120020203800401054006100704084009400A01D2
:400340000F0A12901502160419401B801E081F4121012203240126902740284029602F903281368237103A103B203C103D803E083F02450247644BC04C044F0855085D1089
:400380005E085F418510870188808A088E048F0190189201960297029A149B349C809D40A010A102A301A508A690C0FBC2C1C45CCACDCCB9CEF4D0F0D220D6F05B40D4017E
:4003C0009F408B108F409F40E008E4016704D88087049704E24093101010731088109310C408DC01E20400010C0110011C010000800040808000800000000000000B0B005B
:4004000000000000000202000200000000000000000000000000000000000000000000000000000000000000000000000000000000000000000000000000000000000000B6
:40044000000000000000000000000000000000000000000000000000000000000000000000000000000000000000000000000000000000000000000000000000000000007C
:40048000000000000000000000000000000000000000000000000000000000000000000000000000000000000000000000000000000000000000000000000000000000003C
:4004C00000000000000000000000000000000000000000000000000000000000000000000000000000000000000000000000000000000000000000000000000000000000FC
:4005000000000000000000000000000000000000000000000000000000000000000000000000000000000000000000000000000000000000000000000000000000000000BB
:0200000490006A
:0400000000004005B7
:0200000490105A
:04000000BC90ACAF55
:0200000490303A
:02000000C0A599
:0200000490402A
:4000000000000000000000000000000000000000000000000000000000000000000000000000000000000000000000000000000000000000000000000000000000000000C0
:400040000000000000000000000000000000000000000000000000000000000000000000000000000000000000000000000000000000000000000000000000000000000080
:400080000000000000000000000000000000000000000000000000000000000000000000000000000000000000000000000000000000000000000000000000000000000040
:4000C0000000000000000000000000000000000000000000000000000000000000000000000000000000000000000000000000000000000000000000000000000000000000
:0200000490501A
:0C00000000012E16106900012E1ED10E0A
:00000001FF