:400000000080002011000000D5040000D504000080B500AF024A034B1B68136000F08CFABC760040FA46004010B5054C237833B9044B13B10448AFF300800123237010BDDF
:400040003881FF1F0000000034110000084B10B51BB108490848AFF300800848036803B910BD074B002BFBD0BDE81040184700BF000000003C81FF1F34110000C880FF1F98
:400080000000000080B588B000AF00F0E9FA0023FB77114800F082FB00F044FB0346BB77BB7F002B05D0752B00D003E00123FB7700E000BFFB7F002BEED06523BB6132232E
:4000C0007B61381D7B69BA69044900F00FFC3B1D184600F063FBDFE7381100004811000080B582B000AF786039603A680021786800F0F3FB00BF0837BD4680BD80B584B065
:4001000000AFF860B9607A607A68B968F86800F0D9FB00BF1037BD4680BD00BF80B483B000AF0346FB71FEE780B487B000AF7860396000233B6100237B6127E07B699B001A
:400140007A6813441B68BB60BB68FB73BB6823F0FF03BB6014E03B695B003A6813441B781A46BB68134419463B695B003A6813445B780B703B6901333B61FB7B013BFB7332
:40018000FB7B002BE7D17B6901337B617B69122BD4D900BF1C37BD4680BC704780B582B000AF3F4B00221A803E4B50221A703E4B19221A803D4B18221A7004223C493D4861
:4001C000FFF79CFF3C4B02221A704FF0402308221A703A4B03221A70394B3A4A1278D2B21A70394B08221A80384B41F251221A800023FB7019237B6014E0FB785B00DAB211
:40020000334B1B78DBB203F00103DBB21343DBB203F00303FB704FF4F07000F0FDFA7B68013B7B607B68002B02D0FB78032BE4D17B68002B02D10320FFF770FF254B4FF47F
:4002400080721A80234B07221A70234B00221A70224B48221A701F4B00221A70204B02221A70204B04221A701F4A1F4B1B78DBB243F00303DBB213701C4A1C4B1B78DBB2E3
:4002800043F00103DBB21370194A194B1B78DBB263F07F03DBB2137000BF0837BD4680BD8040004082400040844000408640004028030048004100400043004000420040E8
:4002C000A146004008010049224200402042004025420040044000400640004008400040014000400B400040A2430040A1430040A043004080B483B000AF0E4B1B78FB7120
:400300000D4AFB7903F00703DBB213700B4AFB791B09DBB213700A4B01221A70094B10221A70094B44221A7000BF0C37BD4680BC704700BFCF0100496E5800406F580040B5
:400340000D510040005B00407658004080B586B000AF72B64C4A4C4B1B78DBB243F00403DBB213700023FB7513E0FA7D13465B0013445B00454A13443B613B691A683B69AE
:400380009B889BB219461046FFF7AAFEFB7D0133FB75FB7D072BE8D90023FB751CE0FA7D13469B0013445B00394A1344FB60FB681B68BB60FB685B687B60FB681A7A5B7A44
:4003C0001B0213437B807B881A467968B868FFF795FEFB7D0133FB75FB7D012BDFD92D494FF09040FFF7A0FE2B4B0A221A702B4A2A4B1B78DBB243F00203DBB21370284A21
:40040000274B1B78DBB243F00203DBB21370254A244B1B78DBB243F04003DBB21370224A214B1B78DBB243F01003DBB2137008221E491F48FFF762FE0A221E491E48FFF7D3
:400440005DFE08221D491E48FFF758FE1D4A1D4B1B78DBB243F00803DBB213701A4B60221A70FFF79BFE184B80221A70174B01221A70FFF73FFF0E220A491548FFF73EFEBE
:4004800000BF1837BD4680BDE846004060110000901100004C000048835800400350014013500140A0430040C24300400C0300480251004014030048C0510040200300481A
:4004C00012510040224300400048004004000840B043004080B500AF00F0C8F903461B680C2B00D1FEE7FEE780B584B000AF78600F4B1A687B6813441A460E4BD31A802B23
:4005000009DC0B4B1B68FB60094B1A687B681344074A136007E000F0A9F902460C2313604FF0FF33FB60FB6818461037BD4680BDCC80FF1F6881FF1F80B586B000AF224B5F
:400540007B61224B3B61204B7B6135E03B691B68FB603B695B68BB603B699B683B6000237B600CE0FB681A68BB681A60BB680433BB60FB680433FB607B6804337B607A6847
:400580003B689A42EED13B69DB683B6000237B6008E0BB6800221A60BB680433BB607B6804337B607A683B689A42F2D13B6910333B617B69013B7B617B69002BC6D100F033
:4005C0005BF9FFF75FFDFEE7010000000012000080B582B000AF184B184A1A60184A184B1B6843F40073136000237B600FE07B68032B04D8134A7B6852F8233000E0124BAF
:4006000012497A6841F822307B6801337B607B682F2BECD90E4B1B78DAB20E4B1A700E4B0A4A1A60FFF792FE0C4B00221A6000BF0837BD4680BD00BF0CED00E00004FA052A
:4006400014ED00E000000000D50400000080FF1FBC760040C480FF1F08ED00E0C080FF1F80B500AF064B1B78002B04D100F00AF8034B01221A7000F025F800BF80BD00BF9E
:400680005481FF1F80B400AF094B72221A70094B20221A70084B06221A70084B47221A70074B00221A7000BFBD4680BC704700BF8A6500408B65004029650040396500400A
:4006C0008865004080B582B000AF00F0C4F80346FB71114A104B1B78DBB243F02003DBB213700E4A0D4B1B78DBB243F01003DBB213700B4A0A4B1B78DBB243F01003DBB257
:40070000137000F06DF8FB79184600F0A8F800BF0837BD4680BD00BF9A6500409B6500409865004080B483B000AF0023FB710C4B1B78BB71BB7903F02003002B09D0094B69
:400740001B78FB71BB7903F01E03002B01D00023FB71FB7918460C37BD4680BC704700BF6B6500404A65004080B483B000AF0346FB7100BF074B1B78DBB203F00403002BBD
:40078000F8D1054AFB79137000BF0C37BD4680BC704700BF686500404865004080B584B000AF78600023FB810C4B1B78002B10D009E0FB897A6813441B781846FFF7D4FF95
:4007C000FB890133FB81FB897A6813441B78002BEFD100BF1037BD4680BD00BF5481FF1F80B400AF094A094B1B78DBB243F00203DBB21370064A064B1B78DBB243F00203A7
:40080000DBB2137000BFBD4680BC7047A2430040B243004000000000142816D902B4012114381049097811F0C001890904B40E4A515C04BC00BF00BF00BF8841FDD500BF08
:4008400000BF02BC704700BF00BF70F10400FCD570470B050709EFF3108072B6704780F3108870470048004052080000014B1868704700BF3081FF1F0E4B70B51E460E4C77
:400880000025E41AA410A54204D056F8253098470135F8E700F0A2FC084B094C1E46E41AA4100025A54204D056F8253098470135F8E770BDE8110000E8110000E811000034
:4008C000F011000010B5431E0A44914204D011F8014B03F8014FF8E710BD03460244934202D003F8011BFAE7704700000EB400B54FF402719CB0ADF814106FF00041049134
:4009000007914FF6FF711DAB02900690084853F8042BADF81610006802A9019300F064F8029B00221A701CB05DF804EB03B070473081FF1F2DE9F0478E6882469E420C4623
:40094000914698463ED88A8912F4906F3AD02568096902236F1A656905EB450595FBF3F57B1C43449D4238BF1D4653050FD5294600F040FB064698B13A462169FFF7A2FFFA
:40098000A38923F4906343F08003A38113E02A4600F08EFB064670B92169504600F0DEFA0C23CAF80030A3894FF0FF3043F04003A381BDE8F08726613E442660464665619C
:4009C000ED1BA560464528BF464649463246206800F0A8FAA36800209B1BA36023681E442660BDE8F08700002DE9F04F9DB003938B8980461C060D4616460DD50B695BB90B
:400A0000402100F0F7FA2860286118B90C23C8F80030CDE040236B610023099320238DF82930DFF89CB130238DF82A3037463C4614F8013B1BB9B7EB060910D003E0252B82
:400A4000F9D02746F3E74B46324629464046FFF771FF013000F0A780099B4B4409933B78002B00F0A08000234FF0FF3204930793059206938DF853301A930126052221786D
:400A80004E4800F041FA671C049B38B14B4A3C46801A06FA00F018430490EFE7D90644BF20228DF853201A0744BF2B228DF8532022782A2A03D0079A00210A200BE0039A4A
:400AC000111D12680391002A10DA524243F00200079204900BE027463B780134303B092B03D800FB02320121F5E701B107923B782E2B1ED17B782A2B0AD1039B02371A1D52
:400B00001B680392002BB8BF4FF0FF33059310E0002319460593781C0A2407463A780130303A092A03D804FB01210123F5E703B1059103223978224800F0E6F940B14023B0
:400B4000CBEB000003FA00F0049B013718430490397806221B487E1C8DF8281000F0D4F988B1194B33B9039B073323F007030833039314E003AB00932A46144B04A9404636
:400B8000AFF3008007E003AB00932A460F4B04A9404600F093F8B0F1FF3F824603D0099B5344099342E7AB895B0601D4099801E04FF0FF301DB0BDE8F08F00BFA611000038
:400BC000AC110000B011000000000000350900002DE9F04791461F460A698B6806469342B8BF1346C9F8003091F843200C46DDF8208012B10133C9F800302368990642BFA2
:400C0000D9F800300233C9F80030256815F0060510D104F1190A07E00123524639463046C04701301AD00135E368D9F800209B1A9D42F1DB94F843302268003318BF0123B4
:400C400092060FD5E118302081F843005A1C94F845102244023382F8431003E04FF0FF30BDE8F08704F1430239463046C0470130F4D02268D9F80050E36802F00602042A7E
:400C800008BF5D1B2269A3680CBF25EAE57500259342C4BF9B1AED184FF000091A344D4509D00123224639463046C0470130D5D009F10109F3E70020BDE8F0872DE9F04332
:400CC00017460A7E85B06E2A984606460C460C9B01F1430E00F0AE8011D8632A22D009D8002A00F0BB80582A40F0CA8081F84520834955E0642A1ED0692A1CD0C0E0732A0D
:400D000000F0B08009D86F2A2ED0702A40F0B8800A6842F020020A603EE0752A24D0782A3AD0ADE01A6801F14205111D1960136884F84230A8E021681A6811F0800F02D03F
:400D4000111D196008E011F0400F02F10401196002D0B2F9003000E01368002B3CDA2D225B4284F8432037E021681A6811F0800F02D0111D196007E011F0400F02F10401B5
:400D8000196001D0138800E01368227E5C496F2A14BF0A2208221BE078225A4984F845202268186812F0800F00F104051D6003D1550601D5038800E00368D00744BF42F0DA
:400DC000200222601BB9226822F0200222601022002084F8430001E049490A226568002DA56008DB206820F0040020602BB9002D7DD175460CE0002B79D07546B3FBF2F0C8
:400E000002FB1033CB5C05F8013D03460028F5D1082A0BD12368DA0708D5236962689A42DEBF302305F8013C05F1FF35C5EB0E0323612EE008681A6810F0800F496903D0A3
:400E4000101D1860136808E010F0400F02F104001860136801D0198000E0196000232361754616E01A68111D1960156800216268284600F049F808B1401B6060636804E063
:400E800004F1420584F8422001232361002384F84330CDF800803B4603AA21463046FFF797FE013002D14FF0FF3026E023692A4639463046C0470130F5D023689B0710D50B
:400EC000002504F1190907E001234A4639463046C0470130E7D00135E368039A9B1A9D42F2DBE068039B9842B8BF184605E00B7804F1420584F842308AE705B0BDE8F08353
:400F0000B7110000C811000010B5C9B202449042034605D01C7801308C42F8D1184610BD002010BD884210B501EB020301D8421E0BE09842FBD28118D21AD34204D013F862
:400F4000014D01F8014DF8E710BD994204D011F8014B02F8014FF8E710BD000038B50546002944D051F8043C0C1F002BB8BFE41800F0D4F81E4A1368114613B96360146076
:400F800030E0A3420DD92268A018834201BF18685B681218226063600C6023E0A24203D813465A68002AF9D118681918A1420BD12168014458188242196013D1106852689F
:400FC000014419605A600DE002D90C232B6009E021686018824201BF106852680918216062605C602846BDE8384000F098B838BD5C81FF1F70B5CD1C25F0030508350C2DDB
:4010000038BF0C25002D064601DBA94202D90C23336046E000F082F8234B1C681A462146A1B10B685B1B0ED40B2B03D90B60CC18CD501EE08C420BBF63684B68136063607D
:4010400018BF0C4615E00C464968E9E7174C23681BB9304600F052F820602946304600F04DF8431C18D0C41C24F00304A0420DD12560304600F053F804F10B00231D20F0EB
:401080000700C31A0ED05A42E25070BD211A304600F034F80130EBD10C233360304600F03EF8002070BD00BF5C81FF1F5881FF1FF8B5074615460E4621B91146BDE8F840A6
:4010C000FFF798BF1AB9FFF749FF2846F8BD00F027F885420ED929463846FFF78BFF044650B131462A46FFF7EDFB31463846FFF735FF01E03046F8BD2046F8BD38B5064CB0
:401100000023054608462360FFF7EEF9431C02D1236803B12B6038BD6081FF1F7047704751F8040C0028BEBF091851F8043CC0180438704700000000434F4D20506F72741E
:40114000204F70656E0A0000256C752C256C750A00000000035B00402443004040000000205100405000F05100401000000001400010001401400006801A01408001004012
:401180000140000A004C0140000200500140200060520040840200480600001A01408C02004880004300232D302B2000686C4C006566674546470030313233343536373827
:4011C00039414243444546003031323334353637383961626364656600000000F8B500BFF8BC08BC9E4670474D000000D1050000F8B500BFF8BC08BC9E4670472900000075
:4012000010120000C880FF1F7000000030000000000000006881FF1F0000000000000000000000000000000000000000000000000000000000000000A411000000000000CA
:401240000000000000000000000000000000000000000000000000000000000000000000000000000000000000000000000000000000000000000000D080FF1F0000000000
:40128000000000000000000000000000000000000000000000000000000000000000000000000000000000000000000000000000000000000000000000000000000000002E
:4012C00000000000000000000000000000000000000000000000000000000000000000000000000000000000000000000000000000000000000000000000000000000000EE
:4013000000000000000000000000000000000000000000000000000000000000000000000000000000000000000000000000000000000000000000000000000000000000AD
:40134000000000000000000000000000000000000000000000000000000000000000000000000000000000000000000000000000000000000000000000000000000000006D
:020000040003F7
:0200000480007A
:4000000003650040040001400101014001030140010D014001150140681801403A190140101A0140471B01400244014002450140024601400147014002480140014901400B
:40004000014C01400A4D014002500140880F8A728B3839803F4059045F012001B401EC10EC100510060807AC08110A060C110D140E0E110C1371140C151016131740184097
:400080001B031E0C20202109220323D029DC2B222F20320F3440351F363037E038803A083B803E1040654104450E46CB480D49FF4AFF4BFF4EF04F44500C54015804590493
:4000C0005A045B045C115D115F0166C06A406B028544873189018B0E8C738E049208942A95679644987399679A0CA522A7D1A803AA44AE55B030B180B360B40FB507B64043
:40010000B718B802BA28BE41BF40C004C504C9FFCA07CBFFCC40CD20CEF0CF05D008D804D904DA04DC11DD01DF01E040E1A8E240E32003010524070109080A040B800D28DF
:400140000E010F081002112013201502184019A81A0C1D081E091F482002211423402620270128202C022F483314341035043620370139283B083E043F80404047014904B9
:400180004C024E044F0850025101551057405D815E085F20C0E1C2EEC413CAB2CCE6CE56D081D230D6F086028801920294019804A001B001B204B402BE14D418D804DB0445
:4001C000DC01DD10DF0100840108021003080504070409080A800B0A0C100D040F8010801140120C1308170219121A011B481C401E241F01224923042A162B0232513308D4
:4002000038283B4240444201430848014904530259105D026680670469086B1670947108720273088A948C208D408E109348981099089C209F14A041AD21B040B110C0671E
:40024000C27FC41FCA0FCC0FCE0FD00FD208D684D830EC107C01DE01B401EC084508D001A5082510C820B510A5081280750289028E80B508C408DE04E001E202EC0810027B
:400280001C020000808000004000000000000083FF180000F3080C0033000004CC0033400CA7001822040000001CB3A208100000041C00A14FBFB0001100004030200F9888
:4002C00040408C1F000208880000101034020100050C00E021FFFFFF62A0F0410C000000000002110404040411110001000000000000400200103010001010120000000092
:400300000000000000000000000000000000000000000100800040808000800000000000000B0B0000000000950018010000000000000000000000000000000000000000B8
:40034000000000000000000000000000000000000000000000000000000000000000000000000000000000000000000000000000000000000000000000000000000000007D
:40038000000000000000000000000000000000000000000000000000000000000000000000000000000000000000000000000000000000000000000000000000000000003D
:4003C00000000000000000000000000000000000000000000000000000000000000000000000000000000000000000000000000000000000000000000000000000000000FD
:4004000000000000000000000000000000000000000000000000000000000000000000000000000000000000000000000000000000000000000000000000000000000000BC
:0200000490006A
:0400000000004005B7
:0200000490105A
:04000000BC90ACAF55
:0200000490303A
:0200000061732A
:0200000490402A
:4000000000000000000000000000000000000000000000000000000000000000000000000000000000000000000000000000000000000000000000000000000000000000C0
:400040000000000000000000000000000000000000000000000000000000000000000000000000000000000000000000000000000000000000000000000000000000000080
:400080000000000000000000000000000000000000000000000000000000000000000000000000000000000000000000000000000000000000000000000000000000000040
:4000C0000000000000000000000000000000000000000000000000000000000000000000000000000000000000000000000000000000000000000000000000000000000000
:0200000490501A
:0C00000000012E16106900012E1D71DC9D
:00000001FF